:020000040000FA
:060000000A128A110C280F
:10000800FE00030EF1000A08F2000A128A115A2AA9
:100018000A128A110F2883135630FD000330FE00A0
:10002800B230FF004C3084000A128A1197230A125A
:100038008A11C001C101C201C301C401C501C601C1
:10004800C701C801C901CA01CB01F701F801F901CB
:1000580083010A128A11302807300A128A11BB223A
:100068000A128A11003083120313B1000030B00065
:100078002530AF008030AE000A128A11F5210A122D
:100088008A110A128A1145230A128A11831203134C
:10009800051C4F2850285C284A08031D5428552859
:1000A8005C280130BE003E08CB07CA01CA0A061404
:1000B80005185F28602869284A03031D64286528F5
:1000C80069280130CB02CA010610851C6C286D28EE
:1000D80079284908031D7128722879280130BE0043
:1000E8003E08CB07C901C90A861485187C287D28D3
:1000F80086284903031D8128822886280130CB02DF
:10010800C9018610051D89288A2896284808031DD4
:100118008E288F2896280130BE003E08CB07C801DC
:10012800C80A0615051999289A28A3284803031D03
:100138009E289F28A3280130CB02C8010611851DDF
:10014800A628A728B3284708031DAB28AC28B3283E
:100158000130BE003E08CB07C701C70A86158519BE
:10016800B628B728C0284703031DBB28BC28C028C9
:100178000130CB02C7018611051EC328C428D02828
:100188004608031DC828C928D0280130BE003E08EB
:10019800CB07C601C60A0616051AD328D428DD28B7
:1001A8004603031DD828D928DD280130CB02C60113
:1001B8000612851EE028E128ED284508031DE528DC
:1001C800E628ED280130BE003E08CB07C501C50A68
:1001D8008616851AF028F128FA284503031DF52804
:1001E800F628FA280130CB02C5018612051FFD2822
:1001F800FE280A294408031D022903290A29013077
:10020800BE003E08CB07C401C40A0617051B0D290A
:100218000E2917294403031D122913291729013010
:10022800CB02C4010613851F1A291B292729430855
:10023800031D1F29202927290130BE003E08CB07AE
:10024800C301C30A8617851B2A292B29342943038E
:10025800031D2F29302934290130CB02C30186130D
:100268000A128A1117230A128A11073083120313FC
:10027800BF007C30BE00BE0B3F29BF0B3F290000EA
:100288000A128A117D230A128A1107308312031376
:10029800BF007C30BE00BE0B4F29BF0B4F290000AA
:1002A8004A280A128A110C2883120313A901A31FD2
:1002B8005E295F296C29A009A109A209A309A00A3E
:1002C8000319A10A0319A20A0319A30AA901A90A71
:1002D800A71F6F2970297F29A409A509A609A709BD
:1002E800A40A0319A50A0319A60A0319A70A0130C3
:1002F800F3007308A9060030AD000030AC000030F0
:10030800AB000030AA0023082204210420040319AA
:100318008E298F29DC29A801A80A9F290130F3001A
:100328000310A00DA10DA20DA30DF30B942901300C
:10033800F3007308A807A31FA229A3299229013053
:10034800F3000310AA0DAB0DAC0DAD0DF30BA529F1
:1003580023082702031DBA2922082602031DBA29E9
:1003680021082502031DBA2920082402031CBD29DF
:10037800BE29CD292008A4022108031C210FA502AB
:100388002208031C220FA6022308031C230FA7021E
:100398002A1401300310A30CA20CA10CA00CFF3EE0
:1003A800031DCE290130A802031DDB29DC29A3295E
:1003B80029080319E029E129EC29AA09AB09AC09A4
:1003C800AD09AA0A0319AB0A0319AC0A0319AD0A45
:1003D8002D08A3002C08A2002B08A1002A08A000C1
:1003E8000800831203132E08B2002F08B300300848
:1003F800B4003108B50004300310B20DB30DB40DCC
:10040800B50DFF3E031D002A3508A3003408A200DD
:100418003308A1003208A0002E08B6002F08B70044
:100428003008B8003108B90004300310B60DB70D14
:10043800B80DB90DFF3E031D192A0030BA0012305D
:10044800BB007A30BC000030BD003608BA0237085D
:10045800031C370F302A312ABB023808031C380F17
:10046800362A372ABC023908031C390F3C2A3D2A90
:10047800BD023D08A7003C08A6003B08A5003A08B5
:10048800A4000A128A1158210A128A11831203132E
:1004980020088316031399001815981618121813B4
:1004A80083120313181698171813080083120313DE
:1004B8008C1D5F2A602AB42A1412141B642A652A28
:1004C800692A941F682A692A702A1308F00070089C
:1004D800F90014139413141683160313941A752A27
:1004E800762A912A1419792A7A2A912A83120313CF
:1004F8001308F0007008F9008C1114168316031302
:10050800141C872A882A822A831203131308880056
:100518005330F000F00B8E2AB12A941A942A952AA7
:10052800B12A141D982A992AB12A83120313130891
:10053800F0007008F90083160313141083120313D4
:100548004B08930014165330F000F00BA92A8316B9
:1005580003131418B02AB12AAB2A831203138C117F
:1005680072088A00710E8300FE0E7E0E0900F500E7
:10057800F32A831603130F128F120F13152B8316EA
:1005880003130F168F120F13152B831603130F1255
:100598008F160F13152B831603130F168F160F13B1
:1005A800152B831603130F128F120F17152B831693
:1005B80003130F168F120F17152B831603130F1221
:1005C8008F160F17152B831603130F168F160F1779
:1005D800152B831603130F128F160F17152B75087B
:1005E800F300F4017408003A0319FB2AED2A730892
:1005F800003A0319BD2A013A0319C32A033A031919
:10060800C92A013A0319CF2A073A0319D52A013A08
:100618000319DB2A033A0319E12A013A0319E72AE5
:10062800ED2A0F1408008312031349084A07F4003F
:1006380048087407F50047087507F6007608F800BB
:100648007808513E84008313000888007808031D49
:100658002E2B2F2B352B00300A128A11A6230A12B3
:100668008A1178080319392B3A2B402B01300A12CA
:100678008A11A6230A128A118312031309148910F6
:100688000800FF3083160313850086019830870021
:1006980088018901831603178801890183120313CE
:1006A80085018601870188010910891009118911BE
:1006B80010300A128A1163230A128A110800F30003
:1006C80073088316031393003630831203139400C0
:1006D80080308316031394000130910087150716A4
:1006E8008B170B17831203138C11831603138C15A6
:1006F80008008312031345084607F30044087307EC
:10070800F40043087407F5007508F70077084C3EB5
:1007180084008313000888000910891408007E08E3
:100728008A007F0882000A128A1193230A128A110A
:100738008000840A04087D0603190034FF0A03199F
:10074800FE0A972BF30083160313981CAC2BAD2BD2
:10075800A72B730883120313990008007E344834CA
:100768003D346D344B347E3448343D346D344B3431
:04400E00D4E0FFFFFC
:00000001FF
