:020000040000FA
:060000000A128A110C280F
:10000800FE00030EF1000A08F2000A128A11E22B20
:100018000A128A110F28F801F901FA018312031351
:10002800E101E201E301E401E501E60183010A12CD
:100038008A11FB298312031331088039B200320870
:10004800BB003108B2003207B3003308C200B01F4A
:100058002E282F283028421442080319342835281E
:100068004528420A031D39283A2842280030B100A1
:100078000030B0000030AF000030AE00B017B10162
:100088004D280030B1000030B0000030AF00003023
:10009800AE002D088039B2003208BB062D08B20028
:1000A8003207B3003308C300AC1F5B285C285D2807
:1000B800431443080319612862287228430A031D60
:1000C800662867286F280030AD000030AC0000308B
:1000D800AB000030AA00AC17AD017A280030AD00A3
:1000E8000030AC000030AB000030AA002D082C0412
:1000F8002B042A04031D812882289B280030B10084
:100108000030B0000030AF000030AE008030B004E6
:100118007F30B1043B08B2003208B1043108AD00A9
:100128003008AC002F08AB002E08AA00FA294208B4
:10013800031D9F28A028A9280030AD000030AC007E
:100148000030AB000030AA00FA294208B200B3011F
:100158003308B50043083202B400031CB503340861
:100168007F3EBC0035080318013E003EBD00310843
:10017800BA003008B9002F08B8002E08B7000030C0
:10018800B1000030B0000030AF000030AE000030E9
:10019800C1000030C0000030BF000030BE00C30105
:1001A8001F2943080319D928DA28FA280130B20090
:1001B8000310B70DB80DB90DBA0DB20BDC2801301C
:1001C800B2000310AE0DAF0DB00DB10DB20BE528A6
:1001D800C11FEF28F028F1282E140130B2000310B7
:1001E800BE0DBF0DC00DC10DB20BF3282D083A028C
:1001F800031D08292C083902031D08292B08380279
:10020800031D08292A083702031C0B290C291B295E
:1002180041172A08B7022B08031C2B0FB8022C0819
:10022800031C2C0FB9022D08031C2D0FBA02013034
:10023800B2003208C3071A304302031C24292529B7
:10024800D5283A0839043804370403192C292D29EC
:100258004C293E144C290130B2000310AE0DAF0DED
:10026800B00DB10DB20B3129C11F3B293C293D29E5
:100278002E140130B2000310BE0DBF0DC00DC10D0C
:10028800B20B3F29FF30BC070318BD0AFF30BD077A
:10029800B01F4F2950292F29C301C11F542955299F
:1002A8007129FF303E05B200FF303F05B300FF3033
:1002B8004005B4007F304105B500350834043304E7
:1002C80032040319682969296C29C301C30A7129F1
:1002D8002E1C6F297029712969294308031975296A
:1002E8007629A7290130AE07003003180130AF077F
:1002F800003003180130B007003003180130B1078F
:10030800311C87298829A7292E08B2002F08B30095
:100318003008B4003108B5000130B600350DB50C11
:10032800B40CB30CB20CB60B92293508B1003408E2
:10033800B0003308AF003208AE000130BC07031824
:10034800BD0A0030BD073D08803AFF0080307F02BB
:10035800031DB029FF303C02031CB329B429C2296C
:10036800FF3083120313BC000030BD000030B10021
:100378000030B0000030AF000030AE00831203132D
:100388003D08803AFF0080307F02031DCD290130EF
:100398003C020318D029D129DE2983120313BC019A
:1003A800BD010030B1000030B0000030AF000030B7
:1003B800AE00BB01831203133C08B2003208C2002E
:1003C800421CE729E829EA29B017EE297F30B20054
:1003D8003208B0054208B2000310320CB3003308EB
:1003E800B1003B08B2003208B1049228080004307A
:1003F8000A128A114F250A128A110A128A113E26F8
:100408000A128A110A128A1172260A128A112030D7
:100418000A128A1158260A128A110A128A112226E9
:100428000A128A110A128A1102260A128A110A303D
:100438008312031315060319222A242A0130252AB8
:100448000030DC000F30650603192B2A2D2A0130F5
:100458002E2A00305C0500380319332A342A432A2F
:100468006308031D382A392A432A6208031D3D2AD6
:100478003E2A432A19309500E301E30AE201DD012F
:1004880005306602031C492A4A2A562A6303031DBB
:100498004E2A4F2A562A6208031D532A542A562ADE
:1004A800DD01DD0A1930150603195B2A5D2A0130C2
:1004B8005E2A0030DC005D085C0500380319652AF7
:1004C800662A682AE301E201DE016608031D6D2A37
:1004D8006E2A7A2A6308031D722A732A7A2A620806
:1004E800031D772A782A7A2ADE01DE0A19301506D2
:1004F80003197F2A812A0130822A0030DC005E0835
:100508005C0500380319892A8A2A8C2A0A30950042
:100518000A3015060319912A932A0130942A0030CB
:10052800DC000530660203189A2A9C2A01309D2AAD
:1005380000305C0500380319A22AA32AB12A6308EF
:10054800031DA72AA82AB12A6208031DAC2AAD2ACE
:10055800B12A19309500E201E20ADF010F30650681
:10056800031DB72AB82AC42A6308031DBC2ABD2A5A
:10057800C42A6203031DC12AC22AC42ADF01DF0A72
:10058800193015060319C92ACB2A0130CC2A0030A4
:10059800DC005F085C0500380319D32AD42AD72A5F
:1005A800E301E201E20AE0016508031DDC2ADD2A15
:1005B800E92A6308031DE12AE22AE92A6203031DE6
:1005C800E62AE72AE92AE001E00A193015060319A4
:1005D800EE2AF02A0130F12A0030DC0060085C05C0
:1005E80000380319F82AF92AFD2A0A309500E30190
:1005F800E3010530D3000030D4000A128A11AE2579
:100608000A128A11831203135008D6004F08D50026
:100618000A128A11E6240A128A1183120313530854
:10062800DC005C08E400640803191B2B1C2B1E2B40
:10063800E501162A0F30DC005C08E500162A0A12CC
:100648008A110C2883120313A400240803192D2BE4
:100658002E2B422BF61F312B322B422B7309A6006F
:100668007409A7007509A8007609A900A60A031944
:10067800A70A0319A80A0319A90A4A2B7608A90088
:100688007508A8007408A7007308A6007608750402
:1006980074047304031D512B522B5B2B0030F6009E
:1006A8000030F5000030F4000030F300E12B963004
:1006B800A0002008A5006D2B0130A0002008A50788
:1006C80001300310A90CA80CA70CA60CFF3E031DB3
:1006D800652BFE302905031D722B732B602B8F2B86
:1006E8000130A0002008A5070130A6070030031834
:1006F8000130A707003003180130A807003003189D
:100708000130A90701300310A90CA80CA70CA60CEE
:10071800FF3E031D872BFF302905031D942B952BC6
:10072800742BA12B0130A5020130A0000310A60DE7
:10073800A70DA80DA90DA00B9A2BA81BA42BA52BC0
:10074800AB2B023025020318AA2BAB2B962B2518AE
:10075800AE2BAF2BB72BFF30A605FF30A7057F3098
:10076800A805FF30A9050310A50C2508A000A101C4
:10077800A201A30118300310A00DA10DA20DA30D15
:10078800FF3E031DBF2B2008A6042108A70422084A
:10079800A8042308A90424080319D32BD42BD92B84
:1007A800F61FD72BD82BD92BA9172908F60028080C
:1007B800F5002708F4002608F30008008312031345
:1007C8008C1DE72BE82B632C1412141BEC2BED2B40
:1007D800F12B941FF02BF12BF82B1308F000700865
:1007E800FA0014139413141683160313941AFD2B8A
:1007F800FE2B1A2C1419012C022C1A2C8312031309
:100808001308F0007008FA008C11141683160313ED
:10081800141C0F2C102C0A2C8312031313088800A5
:10082800A630F000F00B162C0000602C941A1D2C3A
:100838001E2C602C141D212C222C602C83120313D7
:100848001308F0007008FA008316031314107808D0
:10085800031D2F2C302C462C83120313660893009B
:10086800F801F80A1416A630F000F00B392C000035
:10087800831603131418412C422C3C2C83120313A7
:100888008C11632C7803031D4A2C4B2C602C83128B
:10089800031364089300F8011416A630F000F00B57
:1008A800532C00008316031314185B2C5C2C562C55
:1008B800831203138C11632C831203138C11720897
:1008C8008A00710E8300FE0E7E0E0900031083124B
:1008D8000313460D470DC8004808CE004E08031DF7
:1008E800762C772C802C0030C7000030C6000030F2
:1008F800C5000030C400E52C4408C8004508C900FC
:100908004608CA004708CB001F300310CB0CCA0C9E
:10091800C90CC80CFF3E031D892C4808CC004C08A4
:10092800CD00C617FF30C405FF30C505FF30C6052A
:100938000030C7059630CE02CE1FA32CA42CBE2CA7
:100948004E08803A973E0318AA2CAB2CAC2C772C77
:1009580001300310C70CC60CC50CC40CFF3E031DA8
:10096800AD2C0130C8004808CE07031DBC2CBD2C97
:10097800AC2CD52C20304E02031CC32CC42CD02CFC
:10098800772C0130C8000310C40DC50DC60DC70D66
:10099800C80BC72C0130CE024E08031DD42CD52C11
:1009A800C52C4D080319D92CDA2CE52CC409C50926
:1009B800C609C709C40A0319C50A0319C60A0319CF
:1009C800C70A080083120313D901D41FEC2CED2C9D
:1009D800F42CD309D409D30A0319D40AD901D90AA2
:1009E800D61FF72CF82C012DD509D609D50A0319DD
:1009F800D60A0130D7005708D906DA01DB015308B7
:100A080054040319082D092D402DD801D80A172D93
:100A180001300310D30DD40DFF3E031D0D2D013001
:100A2800D7005708D807D41F1A2D1B2D0C2D0130BD
:100A38000310DA0DDB0DFF3E031D1C2D5408560272
:100A4800031D282D53085502031C2B2D2C2D332D47
:100A58005308D5025408031CD603D6025A14013091
:100A68000310D40CD30CFF3E031D342D0130D802E3
:100A7800031D3F2D402D1B2D59080319442D452DCD
:100A88004A2DDA09DB09DA0A0319DB0A5B08D40004
:100A98005A08D3000800F500872D831603130F1298
:100AA8008F120F13A92D831603130F168F120F130E
:100AB800A92D831603130F128F160F13A92D831652
:100AC80003130F168F160F13A92D831603130F1276
:100AD8008F120F17A92D831603130F168F120F17D6
:100AE800A92D831603130F128F160F17A92D83161E
:100AF80003130F168F160F17A92D831603130F1242
:100B08008F160F17A92D7508F300F4017408003A21
:100B180003198F2D812D7308003A0319512D013ABD
:100B28000319572D033A03195D2D013A0319632D53
:100B3800073A0319692D013A03196F2D033A03196E
:100B4800752D013A03197B2D812D0F148F110F116B
:100B58008F100800831203138E018F0108140630CA
:100B6800F700F70BB52D0000831203130810881C3B
:100B7800BE2DBF2DBB2D10148818C32DC42DC02D1C
:100B880010100E08F3000F08F400F501F60100300C
:100B98000A128A1126230A128A117608831203136D
:100BA800B1007508B0007408AF007308AE00423099
:100BB800AD006B30AC004730AB00AE30AA000A1273
:100BC8008A111E200A128A11831203132D08C700E6
:100BD8002C08C6002B08C5002A08C4000A128A116E
:100BE8006A240A128A11831203134508D2004408A2
:100BF800D1005208D0005108CF000800C730F300D8
:100C0800052EF30B042E082E092E831203131F1131
:100C18009F111F129F12C730F300F30B112E142ED1
:100C2800831203131F140C139F149F181C2E1D2EC0
:100C3800192E1E08F3007308E60008008316031334
:100C48000715C830920083120313971517159710CC
:100C5800171019309500171697168C100330920448
:100C680012158C1C382E392E352E8C108316031332
:100C78000711080001308316031385008601183018
:100C88008700023088008901013083160317880025
:100C9800890183120313860187018801890185016F
:100CA800F801E301E2010800F30073088316031357
:100CB8009300363083120313940080308316031395
:100CC800940001309100871507168B170B178312B4
:100CD80003138C11831603138C1508008312031356
:100CE8001F083F3940389F001F14831603139F13B2
:060CF8001F129F1208000C
:04400E00D4E0FFFFFC
:00000001FF
