:020000040000FA
:060000000A128A110C280F
:10000800FE00030EF1000A08F2000A128A11012C00
:100018000A128A110F28F901FA0183120313DC016D
:10002800DD01DE01DF0183010A128A11992B831297
:10003800031331088039B2003208BB003108B2001E
:100048003207B3003308C200B01F2B282C282D28F4
:10005800421442080319312832284228420A031D53
:10006800362837283F280030B1000030B000003073
:10007800AF000030AE00B017B1014A280030B1001F
:100088000030B0000030AF000030AE002D088039DD
:10009800B2003208BB062D08B2003207B30033089D
:1000A800C300AC1F582859285A2843144308031979
:1000B8005E285F286F28430A031D632864286C287C
:1000C8000030AD000030AC000030AB000030AA00BA
:1000D800AC17AD0177280030AD000030AC0000301F
:1000E800AB000030AA002D082C042B042A04031DA1
:1000F8007E287F2898280030B1000030B0000030FA
:10010800AF000030AE008030B0047F30B1043B084F
:10011800B2003208B1043108AD003008AC002F0835
:10012800AB002E08AA00F7294208031D9C289D2829
:10013800A6280030AD000030AC000030AB00003025
:10014800AA00F7294208B200B3013308B5004308F2
:100158003202B400031CB50334087F3EBC003508E6
:100168000318013E003EBD003108BA003008B9004E
:100178002F08B8002E08B7000030B1000030B000DA
:100188000030AF000030AE000030C1000030C000C9
:100198000030BF000030BE00C3011C29430803190A
:1001A800D628D728F7280130B2000310B70DB80DAC
:1001B800B90DBA0DB20BD9280130B2000310AE0D3B
:1001C800AF0DB00DB10DB20BE228C11FEC28ED2820
:1001D800EE282E140130B2000310BE0DBF0DC00D65
:1001E800C10DB20BF0282D083A02031D05292C0871
:1001F8003902031D05292B083802031D05292A0881
:100208003702031C08290929182941172A08B702A7
:100218002B08031C2B0FB8022C08031C2C0FB90247
:100228002D08031C2D0FBA020130B2003208C30793
:100238001A304302031C21292229D2283A083904FA
:1002480038043704031929292A2949293E14492938
:100258000130B2000310AE0DAF0DB00DB10DB20BF1
:100268002E29C11F382939293A292E140130B20004
:100278000310BE0DBF0DC00DC10DB20B3C29FF30E0
:10028800BC070318BD0AFF30BD07B01F4C294D2914
:100298002C29C301C11F512952296E29FF303E055F
:1002A800B200FF303F05B300FF304005B4007F3097
:1002B8004105B500350834043304320403196529AF
:1002C80066296929C301C30A6E292E1C6C296D2968
:1002D8006E2966294308031972297329A429013054
:1002E800AE07003003180130AF07003003180130A3
:1002F800B007003003180130B107311C8429852963
:10030800A4292E08B2002F08B3003008B400310821
:10031800B5000130B600350DB50CB40CB30CB20CF9
:10032800B60B8F293508B1003408B0003308AF0088
:100338003208AE000130BC070318BD0A0030BD0703
:100348003D08803AFF0080307F02031DAD29FF3051
:100358003C02031CB029B129BF29FF3083120313C3
:10036800BC000030BD000030B1000030B0000030EB
:10037800AF000030AE00831203133D08803AFF003F
:1003880080307F02031DCA2901303C020318CD29A1
:10039800CE29DB2983120313BC01BD010030B10053
:1003A8000030B0000030AF000030AE00BB01831257
:1003B80003133C08B2003208C200421CE429E529B4
:1003C800E729B017EB297F30B2003208B0054208A0
:1003D800B2000310320CB3003308B1003B08B2007E
:1003E8003208B1048F28080083120313A4002408DC
:1003F8000319FF29002A142AF61F032A042A142A9B
:100408007309A6007409A7007509A8007609A90050
:10041800A60A0319A70A0319A80A0319A90A1C2A74
:100428007608A9007508A8007408A7007308A60034
:100438007608750474047304031D232A242A2D2ABC
:100448000030F6000030F5000030F4000030F30012
:10045800B32A9630A0002008A5003F2A0130A0004A
:100468002008A50701300310A90CA80CA70CA60C9E
:10047800FF3E031D372AFE302905031D442A452A5D
:10048800322A612A0130A0002008A5070130A607FA
:10049800003003180130A707003003180130A807FF
:1004A800003003180130A90701300310A90CA80C6B
:1004B800A70CA60CFF3E031D592AFF302905031D72
:1004C800662A672A462A732A0130A5020130A0004D
:1004D8000310A60DA70DA80DA90DA00B6C2AA81B2B
:1004E800762A772A7D2A0230250203187C2A7D2A5B
:1004F800682A2518802A812A892AFF30A605FF3014
:10050800A7057F30A805FF30A9050310A50C25080D
:10051800A000A101A201A30118300310A00DA10D94
:10052800A20DA30DFF3E031D912A2008A604210851
:10053800A7042208A8042308A90424080319A52A43
:10054800A62AAB2AF61FA92AAA2AAB2AA91729087C
:10055800F6002808F5002708F4002608F30008002C
:10056800031083120313460D470DC8004808F8000E
:100578007808031DC02AC12ACA2A0030C7000030E3
:10058800C6000030C5000030C4002F2B4408C80046
:100598004508C9004608CA004708CB001F300310A9
:1005A800CB0CCA0CC90CC80CFF3E031DD32A480843
:1005B800CC004C08F700C617FF30C405FF30C5054E
:1005C800FF30C6050030C7059630F802F81FED2A3F
:1005D800EE2A082B7808803A973E0318F42AF52A61
:1005E800F62AC12A01300310C70CC60CC50CC40C6E
:1005F800FF3E031DF72A0130C8004808F807031D0D
:10060800062B072BF62A1F2B20307802031C0D2BF4
:100618000E2B1A2BC12A0130C8000310C40DC50DBA
:10062800C60DC70DC80B112B0130F8027808031D41
:100638001E2B1F2B0F2B77080319232B242B2F2B53
:10064800C409C509C609C709C40A0319C50A031993
:10065800C60A0319C70A080083120313D801D31F57
:10066800362B372B3E2BD209D309D20A0319D30ACA
:10067800D801D80AD51F412B422B4B2BD409D509B9
:10068800D40A0319D50A0130D6005608D806D9016C
:10069800DA01520853040319522B532B8A2BD70122
:1006A800D70A612B01300310D20DD30DFF3E031D75
:1006B800572B0130D6005608D707D31F642B652B5C
:1006C800562B01300310D90DDA0DFF3E031D662BA2
:1006D80053085502031D722B52085402031C752B34
:1006E800762B7D2B5208D4025308031CD503D50260
:1006F800591401300310D30CD20CFF3E031D7E2B7E
:100708000130D702031D892B8A2B652B5808031942
:100718008E2B8F2B942BD909DA09D90A0319DA0AF7
:100728005A08D3005908D200080007300A128A1163
:1007380064240A128A110A128A1136250A128A11A9
:1007480020300A128A116E250A128A110A128A1199
:1007580052250A128A110A128A1116250A128A11BA
:100768000F30831203135E06031DBB2BBC2BC02B5B
:1007780019309500DC01DC0A05305F02031CC52B2B
:10078800C62BCC2B5C03031DCA2BCB2BCC2BDC013B
:100798005F08031DD02BD12BD82B5C08031DD52B4C
:1007A800D62BD82B0A3095000530D2000030D30064
:1007B8000A128A11C0240A128A11831203134E08DE
:1007C800D5004D08D4000A128A1130230A128A1162
:1007D800831203135208DB005B08DD005D08031970
:1007E800F62BF72BF92BDE01AF2B0F30DB005B0864
:1007F800DE00AF2B0A128A110C28831203138C1DFA
:10080800062C072C5D2C1412141B0B2C0C2C102CF2
:10081800941F0F2C102C172C1308F0007008FA00E6
:1008280014139413141683160313941A1C2C1D2CDA
:10083800392C1419202C212C392C8312031313085A
:10084800F0007008FA008C11141683160313141C98
:100858002E2C2F2C292C8312031313088800A63062
:10086800F000F00B352C00005A2C941A3C2C3D2C2F
:100878005A2C141D402C412C5A2C83120313130894
:10088800F0007008FA008316031314108312031380
:100898005F0893001416A630F000F00B512C0000EE
:1008A800831603131418592C5A2C542C831203132F
:1008B8008C1172088A00710E8300FE0E7E0E0900EC
:1008C800F5009C2C831603130F128F120F13BE2CE6
:1008D800831603130F168F120F13BE2C83160313E0
:1008E8000F128F160F13BE2C831603130F168F16B5
:1008F8000F13BE2C831603130F128F120F17BE2C63
:10090800831603130F168F120F17BE2C83160313AB
:100918000F128F160F17BE2C831603130F168F1680
:100928000F17BE2C831603130F128F160F17BE2C2A
:100938007508F300F4017408003A0319A42C962CE6
:100948007308003A0319662C013A03196C2C033A10
:100958000319722C013A0319782C073A03197E2CD3
:10096800013A0319842C033A03198A2C013A031912
:10097800902C962C0F140800831203138E018F01FC
:100988000814053083120313CF00CF0BC92CCC2CCD
:10099800831203130810881CD22CD32CCF2C1014CC
:1009A8008818D72CD82CD42C10100E08F3000F0858
:1009B800F400F501F60100300A128A11F8210A1232
:1009C8008A11760883120313B1007508B000740801
:1009D800AF007308AE004230AD006B30AC0047305A
:1009E800AB00AE30AA000A128A111B200A128A1123
:1009F800831203132D08C7002C08C6002B08C50056
:100A08002A08C4000A128A11B4220A128A1183120F
:100A180003134508D1004408D0005108CE005008FF
:100A2800CD000800C730F300192DF30B182D1C2D2D
:100A38001D2D831203131F119F111F129F12C73000
:100A4800F300F30B252D282D831203131F140C1309
:100A58009F149F18302D312D2D2D1E08F30073087B
:100A6800DF00080001308316031385008601183063
:100A78008700023088008901013083160317880037
:100A88008901831203138601870188018901850181
:100A98000A128A1188250A128A110800831603137C
:100AA8000715C8309200831203139715171597106E
:100AB80017101B309500171697168C1003309204E8
:100AC80012158C1C682D692D652D8C108316031347
:100AD80007110800F30073088316031393003630D8
:100AE800831203139400803083160313940001309B
:100AF8009100871507168B170B17831203138C1198
:100B0800831603138C150800831203131F139F17F2
:0E0B18001F14831603139F131F129F12080051
:04400E00D4E0FFFFFC
:00000001FF
