:020000040000FA
:060000000A128A110C280F
:10000800FE00030EF1000A08F2000A128A11B62A4D
:100018000A128A110F28F801F901FA018312031351
:10002800DD01DE01DF01E001E10183010A128A112D
:10003800BA2B8312031331088039B2003208BB008F
:100048003108B2003207B3003308C200B01F2D28B0
:100058002E282F284214420803193328342844280C
:10006800420A031D3828392841280030B1000030E1
:10007800B0000030AF000030AE00B017B1014C281E
:100088000030B1000030B0000030AF000030AE00EA
:100098002D088039B2003208BB062D08B20032079D
:1000A800B3003308C300AC1F5A285B285C284314EC
:1000B80043080319602861287128430A031D65282D
:1000C80066286E280030AD000030AC000030AB0070
:1000D8000030AA00AC17AD0179280030AD0000301F
:1000E800AC000030AB000030AA002D082C042B0413
:1000F8002A04031D802881289A280030B100003086
:10010800B0000030AF000030AE008030B0047F3067
:10011800B1043B08B2003208B1043108AD00300820
:10012800AC002F08AB002E08AA00F9294208031DCD
:100138009E289F28A8280030AD000030AC00003071
:10014800AB000030AA00F9294208B200B301330815
:10015800B50043083202B400031CB50334087F3EDF
:10016800BC0035080318013E003EBD003108BA0046
:100178003008B9002F08B8002E08B7000030B100C9
:100188000030B0000030AF000030AE000030C100D9
:100198000030C0000030BF000030BE00C3011E297F
:1001A80043080319D828D928F9280130B2000310C8
:1001B800B70DB80DB90DBA0DB20BDB280130B2007E
:1001C8000310AE0DAF0DB00DB10DB20BE428C11F79
:1001D800EE28EF28F0282E140130B2000310BE0DCF
:1001E800BF0DC00DC10DB20BF2282D083A02031D38
:1001F80007292C083902031D07292B083802031D7B
:1002080007292A083702031C0A290B291A2941172A
:100218002A08B7022B08031C2B0FB8022C08031C52
:100228002C0FB9022D08031C2D0FBA020130B200A1
:100238003208C3071A304302031C23292429D4286F
:100248003A0839043804370403192B292C294B2977
:100258003E144B290130B2000310AE0DAF0DB00DA6
:10026800B10DB20B3029C11F3A293B293C292E1464
:100278000130B2000310BE0DBF0DC00DC10DB20B91
:100288003E29FF30BC070318BD0AFF30BD07B01F69
:100298004E294F292E29C301C11F532954297029DA
:1002A800FF303E05B200FF303F05B300FF30400588
:1002B800B4007F304105B5003508340433043204F6
:1002C8000319672968296B29C301C30A70292E1CE1
:1002D8006E296F297029682943080319742975291B
:1002E800A6290130AE07003003180130AF070030EF
:1002F80003180130B007003003180130B107311C72
:1003080086298729A6292E08B2002F08B3003008AD
:10031800B4003108B5000130B600350DB50CB40C89
:10032800B30CB20CB60B91293508B1003408B000F3
:100338003308AF003208AE000130BC070318BD0A0D
:100348000030BD073D08803AFF0080307F02031D62
:10035800AF29FF303C02031CB229B329C129FF3061
:1003680083120313BC000030BD000030B100003020
:10037800B0000030AF000030AE00831203133D0818
:10038800803AFF0080307F02031DCC2901303C02F7
:100398000318CF29D029DD2983120313BC01BD011D
:1003A8000030B1000030B0000030AF000030AE00C7
:1003B800BB01831203133C08B2003208C200421C7E
:1003C800E629E729E929B017ED297F30B20032087C
:1003D800B0054208B2000310320CB3003308B10074
:1003E8003B08B2003208B1049128080083120313B5
:1003F800A40024080319012A022A162AF61F052A2E
:10040800062A162A7309A6007409A7007509A80008
:100418007609A900A60A0319A70A0319A80A031945
:10042800A90A1E2A7608A9007508A8007408A7005A
:100438007308A6007608750474047304031D252A3E
:10044800262A2F2A0030F6000030F5000030F4008C
:100458000030F300B52A9630A0002008A500412AF4
:100468000130A0002008A50701300310A90CA80C32
:10047800A70CA60CFF3E031D392AFE302905031DD3
:10048800462A472A342A632A0130A0002008A507F3
:100498000130A607003003180130A7070030031801
:1004A8000130A807003003180130A90701300310F4
:1004B800A90CA80CA70CA60CFF3E031D5B2AFF3055
:1004C8002905031D682A692A482A752A0130A502C8
:1004D8000130A0000310A60DA70DA80DA90DA00BB3
:1004E8006E2AA81B782A792A7F2A02302502031847
:1004F8007E2A7F2A6A2A2518822A832A8B2AFF3095
:10050800A605FF30A7057F30A805FF30A905031011
:10051800A50C2508A000A101A201A3011830031011
:10052800A00DA10DA20DA30DFF3E031D932A2008C7
:10053800A6042108A7042208A8042308A90424085B
:100548000319A72AA82AAD2AF61FAB2AAC2AAD2A76
:10055800A9172908F6002808F5002708F400260836
:10056800F3000800831203138C1DBB2ABC2A372B07
:100578001412141BC02AC12AC52A941FC42AC52ACA
:10058800CC2A1308F0007008FA00141394131416F8
:1005980083160313941AD12AD22AEE2A1419D52ABB
:1005A800D62AEE2A831203131308F0007008FA0003
:1005B8008C11141683160313141CE32AE42ADE2A6A
:1005C8008312031313088800A630F000F00BEA2A00
:1005D8000000342B941AF12AF22A342B141DF52A20
:1005E800F62A342B831203131308F0007008FA005C
:1005F8008316031314107808031D032B042B1A2BDE
:100608008312031361089300F801F80A1416A63040
:10061800F000F00B0D2B0000831603131418152B94
:10062800162B102B831203138C11372B7803031D01
:100638001E2B1F2B342B831203135F089300F80122
:100648001416A630F000F00B272B000083160313B6
:1006580014182F2B302B2A2B831203138C11372BB2
:10066800831203138C1172088A00710E8300FE0E28
:100678007E0E0900031083120313460D470DC800B0
:100688004808CE004E08031D4A2B4B2B542B003034
:10069800C7000030C6000030C5000030C400B92BC8
:1006A8004408C8004508C9004608CA004708CB00E6
:1006B8001F300310CB0CCA0CC90CC80CFF3E031D1D
:1006C8005D2B4808CC004C08CD00C617FF30C40588
:1006D800FF30C505FF30C6050030C7059630CE028D
:1006E800CE1F772B782B922B4E08803A973E031813
:1006F8007E2B7F2B802B4B2B01300310C70CC60C95
:10070800C50CC40CFF3E031D812B0130C8004808EE
:10071800CE07031D902B912B802BA92B20304E0246
:10072800031C972B982BA42B4B2B0130C8000310CC
:10073800C40DC50DC60DC70DC80B9B2B0130CE02CD
:100748004E08031DA82BA92B992B4D080319AD2B77
:10075800AE2BB92BC409C509C609C709C40A0319B0
:10076800C50A0319C60A0319C70A080004300A1281
:100778008A1190240A128A110A128A117F250A12F4
:100788008A110A128A11B3250A128A1120300A1214
:100798008A1199250A128A110A128A1163250A12E6
:1007A8008A110A128A1143250A128A110F308312FC
:1007B80003136006031DE12BE22BE62B193095008D
:1007C800DE01DE0A05306102031CEB2BEC2BF22B59
:1007D8005E03031DF02BF12BF22BDE016108031DD4
:1007E800F62BF72BFE2B5E08031DFB2BFC2BFE2B99
:1007F8000A3095000530D3000030D4000A128A115F
:10080800EF240A128A11831203135008D6004F08E6
:10081800D5000A128A1127240A128A118312031397
:100828005308DC005C08DF005F0803191C2C1D2C32
:100838001F2CE001D52B0F30DC005C08E000D52B25
:100848000A128A110C2883120313D901D41F2D2CE4
:100858002E2C352CD309D409D30A0319D40AD9016B
:10086800D90AD61F382C392C422CD509D609D50AD5
:100878000319D60A0130D7005708D906DA01DB0177
:10088800530854040319492C4A2C812CD801D80A3E
:10089800582C01300310D30DD40DFF3E031D4E2CF0
:1008A8000130D7005708D807D41F5B2C5C2C4D2C7F
:1008B80001300310DA0DDB0DFF3E031D5D2C5408DB
:1008C8005602031D692C53085502031C6C2C6D2C11
:1008D800742C5308D5025408031CD603D6025A14A4
:1008E80001300310D40CD30CFF3E031D752C0130CE
:1008F800D802031D802C812C5C2C59080319852CE7
:10090800862C8B2CDA09DB09DA0A0319DB0A5B0867
:10091800D4005A08D3000800F500C82C8316031326
:100928000F128F120F13EA2C831603130F168F1250
:100938000F13EA2C831603130F128F160F13EA2CCA
:10094800831603130F168F160F13EA2C831603133F
:100958000F128F120F17EA2C831603130F168F121C
:100968000F17EA2C831603130F128F160F17EA2C92
:10097800831603130F168F160F17EA2C831603130B
:100988000F128F160F17EA2C7508F300F40174087C
:10099800003A0319D02CC22C7308003A0319922C80
:1009A800013A0319982C033A03199E2C013A0319AA
:1009B800A42C073A0319AA2C013A0319B02C033ABC
:1009C8000319B62C013A0319BC2CC22C0F148F1131
:1009D8000F118F100800831203138E018F01081462
:1009E8000630F700F70BF62C0000831203130810EB
:1009F800881CFF2C002DFC2C10148818042D052DA4
:100A0800012D10100E08F3000F08F400F501F6018F
:100A180000300A128A11FA210A128A117608831202
:100A28000313B1007508B0007408AF007308AE0076
:100A38004230AD006B30AC004730AB00AE30AA009E
:100A48000A128A111D200A128A11831203132D0813
:100A5800C7002C08C6002B08C5002A08C4000A12C3
:100A68008A113E230A128A11831203134508D20001
:100A78004408D1005208D0005108CF000800C73000
:100A8800F300462DF30B452D492D4A2D83120313F0
:100A98001F119F111F129F12C730F300F30B522D25
:100AA800552D831203131F140C139F149F185D2DCB
:100AB8005E2D5A2D1E08F3007308E1000800831606
:100AC80003130715C83092008312031397151715DF
:100AD800971017101B309500171697168C100330B7
:100AE800920412158C1C792D7A2D762D8C10831674
:100AF80003130711080001308316031385008601CC
:100B080018308700023088008901013083160317E6
:100B180088008901831203138601870188018901EE
:100B28008501F801DE01DD010800F3007308831672
:100B38000313930036308312031394008030831616
:100B48000313940001309100871507168B170B17B4
:100B5800831203138C11831603138C150800831258
:100B680003131F083F3940389F001F1483160313CF
:080B78009F131F129F120800D9
:04400E00D4E0FFFFFC
:00000001FF
