:020000040000FA
:060000000A128A110C280F
:10000800FE00030EF1000A08F2000A128A111528F0
:100018000A128A110F28F501F60183010A128A11C2
:100028007828831203138C1D1A281B287128141290
:10003800141B1F2820282428941F232824282B2811
:100048001308F0007008F60014139413141683169E
:100058000313941A302831284D28141934283528C8
:100068004D28831203131308F0007008F6008C1152
:10007800141683160313141C422843283D288312A0
:10008800031313088800A630F000F00B492800007D
:100098006E28941A502851286E28141D5428552863
:1000A8006E28831203131308F0007008F6008316F5
:1000B8000313141075088312031393001416A63043
:1000C800F000F00B652800008316031314186D2840
:1000D8006E286828831203138C1172088A00710E27
:1000E8008300FE0E7E0E09000A128A1195200A125C
:1000F8008A110A128A11B1200A128A110A128A1167
:10010800FF200A128A1130300A128A11E5200A12D9
:100118008A110A128A110C210A128A110A128A11EA
:100128000C287030831603138F048F110F118F1052
:100138000F14013085008601183087008801890175
:10014800013083160317880089018312031386017F
:10015800870188018901850108003C308312031357
:1001680097008316031307159B3092001B308312E8
:10017800031395008C100330920412158C1CC528AB
:10018800C628C2288C1083160313071108000330F1
:10019800F4009730F300F30BCF28F40BCF28D428C2
:1001A800C330831203139F051F149F149F18DD2863
:1001B800DE28DA281E08F3007308F50075088600A3
:1001C8000800F30073088316031393003630831274
:1001D80003139400803083160313940001309100B8
:1001E800871507168B170B17831203138C118316A9
:1001F80003138C150800831203131F083F39403876
:100208009F001F14831603139F131F129F120800C9
:0E0218000A128A11CB200A128A110C29080042
:04400E00D4E0FFFFFC
:00000001FF
