:020000040000FA
:060000000A128A11FC2F18
:100C5200F000700883120313930008008312031339
:100C62008C1E342E352E362E1A080800F3008316F9
:100C7200031387120716731D3F2E402E442E72084F
:100C820094008715482E7008720494008711730827
:100C92007104831203139400080083160313850161
:100CA2008601D030870088018810831603178801D7
:100CB2008901831603138C160B178B17F001F101B0
:100CC200F20124300A128A1137260A128A11080008
:100CD2000A128A114E260A128A1107300A128A1142
:100CE200A0260A128A11003083120313A9000030D1
:100CF200A8002530A7008030A6000A128A11FC261F
:100D02000A128A110A128A112F260A128A118312D2
:100D1200031386000330FA009730F900F90B8F2E87
:100D2200FA0B8F2E942E8312031306080A128A11CD
:100D320029260A128A11832E0A128A110028F20029
:100D4200D82E831603130F128F120F13FA2E831647
:100D520003130F168F120F13FA2E831603130F129B
:100D62008F160F13FA2E831603130F168F160F13F7
:100D7200FA2E831603130F128F120F17FA2E8316F1
:100D820003130F168F120F17FA2E831603130F1267
:100D92008F160F17FA2E831603130F168F160F17BF
:100DA200FA2E831603130F128F160F17FA2E7208DC
:100DB200F000F1017108003A0319E02ED22E7008FA
:100DC200003A0319A22E013A0319A82E033A031975
:100DD200AE2E013A0319B42E073A0319BA2E013A7C
:100DE2000319C02E033A0319C62E013A0319CC2E59
:100DF200D22E0F140800831203132608AA00270814
:100E0200AB002808AC002908AD0004300310AA0D7D
:100E1200AB0DAC0DAD0DFF3E031D072F2D08F300EA
:100E22002C08F2002B08F1002A08F0002608AE0078
:100E32002708AF002808B0002908B10004300310C9
:100E4200AE0DAF0DB00DB10DFF3E031D202F0030D2
:100E5200B2001230B3007A30B4000030B5002E0870
:100E6200B2022F08031C2F0F372F382FB30230087E
:100E7200031C300F3D2F3E2FB4023108031C310FEB
:100E8200432F442FB5023508F7003408F600330823
:100E9200F5003208F4000A128A115F270A128A1139
:100EA2007008831603139900181598161812181350
:100EB20083120313181698171813080083120313CA
:100EC200A101F31F652F662F732FF009F109F209B3
:100ED200F309F00A0319F10A0319F20A0319F30AD2
:100EE200A101A10AF71F762F772F862FF409F509A2
:100EF200F609F709F40A0319F50A0319F60A0319A0
:100F0200F70A0130F8007808A1060030A500003089
:100F1200A4000030A3000030A20073087204710420
:100F220070040319952F962FE32FA001A00AA62F74
:100F32000130F8000310F00DF10DF20DF30DF80B76
:100F42009B2F0130F8007808A007F31FA92FAA2FC2
:100F5200992F0130F8000310A20DA30DA40DA50DC9
:100F6200F80BAC2F73087702031DC12F72087602AB
:100F7200031DC12F71087502031DC12F7008740271
:100F8200031CC42FC52FD42F7008F4027108031C50
:100F9200710FF5027208031C720FF6027308031C2C
:100FA200730FF702221401300310F30CF20CF10C50
:100FB200F00CFF3E031DD52F0130A002031DE22FCE
:100FC200E32FAA2F21080319E72FE82FF32FA209F5
:100FD200A309A409A509A20A0319A30A0319A40AC9
:100FE2000319A50A2508F3002408F2002308F100DA
:0E0FF2002208F000080083010A128A11692EFD
:04400E00D4E0FFFFFC
:00000001FF
