:020000040000FA
:100000000A128A11F72FFF0000308A007F0882074A
:0800100008280A128A11E92DEB
:100BC600F0007008831203139300080083120313C6
:100BD6008C1EEE2DEF2DF02D1A080800F30083165B
:100BE600031387120716731DF92DFA2DFE2D7208B1
:100BF60094008715022E70087204940087117308FA
:100C060071048312031394000800831603138501ED
:100C16008601D03087008801881083160317880163
:100C26008901831603138C160B178B17F001F1013C
:100C3600F20124300A128A11F1250A128A110800DB
:100C4600F2005B2E831603130F128F120F137D2EE5
:100C5600831603130F168F120F137D2E831603139D
:100C66000F128F160F137D2E831603130F168F1672
:100C76000F137D2E831603130F128F120F177D2E5F
:100C8600831603130F168F120F177D2E8316031369
:100C96000F128F160F177D2E831603130F168F163E
:100CA6000F177D2E831603130F128F160F177D2E27
:100CB6007208F000F1017108003A0319632E552EEF
:100CC6007008003A0319252E013A03192B2E033A10
:100CD6000319312E013A0319372E073A03193D2E0F
:100CE600013A0319432E033A0319492E013A03190F
:100CF6004F2E552E0F140800831203132608AA0040
:100D06002708AB002808AC002908AD000430031002
:100D1600AA0DAB0DAC0DAD0DFF3E031D8A2E2D08A1
:100D2600F3002C08F2002B08F1002A08F000260830
:100D3600AE002708AF002808B0002908B10004302B
:100D46000310AE0DAF0DB00DB10DFF3E031DA32E6A
:100D56000030B2001230B3007A30B4000030B50073
:100D66002E08B2022F08031C2F0FBA2EBB2EB30279
:100D76003008031C300FC02EC12EB4023108031CEC
:100D8600310FC62EC72EB5023508F7003408F60017
:100D96003308F5003208F4000A128A115A270A129B
:100DA6008A117008831603139900181598161812DD
:100DB60018138312031318169817181308000A122B
:100DC6008A1108260A128A1107300A128A11232666
:100DD6000A128A11003083120313A9000030A800FA
:100DE6002530A7008030A6000A128A117F260A1233
:100DF6008A110230FB000430FA00BA30F900F90B10
:100E0600022FFA0B022FFB0B022F00000A128A1187
:100E1600E9250A128A11F9007908FD007D080A12EF
:100E26008A11E3250A128A110330FB000830FA0002
:100E36007730F900F90B1D2FFA0B1D2FFB0B1D2F19
:100E46000A128A11E9250A128A11F9007908FC00AA
:100E56007C080A128A11E3250A128A110330FB0064
:100E66000830FA007730F900F90B372FFA0B372FD5
:100E7600FB0B372F0130F900790883120313B600F4
:100E860036080A128A11E3250A128A110430FB0079
:100E96000C30FA003330F900F90B4F2FFA0B4F2FB5
:100EA600FB0B4F2F562FFC2E0A128A110028831295
:100EB6000313A101F31F602F612F6E2FF009F109B3
:100EC600F209F309F00A0319F10A0319F20A0319E0
:100ED600F30AA101A10AF71F712F722F812FF409BE
:100EE600F509F609F709F40A0319F50A0319F60ACA
:100EF6000319F70A0130F8007808A1060030A500AA
:100F06000030A4000030A3000030A2007308720471
:100F1600710470040319902F912FDE2FA001A00AEF
:100F2600A12F0130F8000310F00DF10DF20DF30DB5
:100F3600F80B962F0130F8007808A007F31FA42FAE
:100F4600A52F942F0130F8000310A20DA30DA40DB8
:100F5600A50DF80BA72F73087702031DBC2F720887
:100F66007602031DBC2F71087502031DBC2F700885
:100F76007402031CBF2FC02FCF2F7008F402710814
:100F8600031C710FF5027208031C720FF602730838
:100F9600031C730FF702221401300310F30CF20C3A
:100FA600F10CF00CFF3E031DD02F0130A002031DF3
:100FB600DD2FDE2FA52F21080319E22FE32FEE2FB9
:100FC600A209A309A409A509A20A0319A30A0319D8
:100FD600A40A0319A50A2508F3002408F200230829
:100FE600F1002208F0000800FC01FD018312031342
:0A0FF600B60183010A128A11E22EEF
:04400E00D4E0FFFFFC
:00000001FF
