:020000040000FA
:060000000A128A110C280F
:10000800FE00030EF7000A08F8000A128A111C28DD
:100018000A128A110F28F001F101F201F301F4012B
:1000280083120313C001C10183010A128A11A22994
:10003800831203138C1D2128222892280A128A1160
:1000480026230A128A11F6007608F1007108031DAA
:100058002E282F283C2873080A128A113E230A12D8
:100068008A11831603131410831203138C11FE28AC
:100078007103031D402841284E2872080A128A116C
:100088003E230A128A1183160313141083120313D2
:100098008C11FE2802307106031D5328542861284C
:1000A80074080A128A113E230A128A11831603134E
:1000B8001410831203138C11FE2803307106031DDC
:1000C8006628672876288312031340080A128A11C3
:1000D8003E230A128A118316031314108312031382
:1000E8008C11FE2804307106031D7B287C288B2880
:1000F8008312031341080A128A113E230A128A1135
:10010800831603131410831203138C11FE2883160D
:1001180003131410831203138C11FE288C1E9528C8
:100128009628FD287008031D9A289B28A9280A12DA
:100138008A112F230A128A11F6007608F300831217
:1001480003138C12F001F00AFE287003031DAD287A
:10015800AE28BE280A128A112F230A128A11F60025
:100168007608F200831203138C120230F600760828
:10017800F000FE2802307006031DC328C428D428C6
:100188000A128A112F230A128A11F6007608F4003F
:10019800831203138C120330F6007608F000FE2851
:1001A80003307006031DD928DA28EA280A128A11B2
:1001B8002F230A128A11F600760883120313C0004F
:1001C8008C120430F6007608F000FE280430700621
:1001D800031DEF28F028FD280A128A112F230A127E
:1001E8008A11F600760883120313C1008C12F001FD
:1001F800FE288C1278088A00770E8300FE0E7E0E89
:10020800090083120313A901A31F0B290C2919291B
:10021800A009A109A209A309A00A0319A10A03199F
:10022800A20A0319A30AA901A90AA71F1C291D29A3
:100238002C29A409A509A609A709A40A0319A50A2E
:100248000319A60A0319A70A0130F9007908A906B3
:100258000030AD000030AC000030AB000030AA0028
:10026800230822042104200403193B293C29892955
:10027800A801A80A4C290130F9000310A00DA10D0E
:10028800A20DA30DF90B41290130F9007908A8073F
:10029800A31F4F2950293F290130F9000310AA0D47
:1002A800AB0DAC0DAD0DF90B522923082702031D28
:1002B800672922082602031D672921082502031D34
:1002C800672920082402031C6A296B297A29200837
:1002D800A4022108031C210FA5022208031C220FD7
:1002E800A6022308031C230FA7022A1401300310B7
:1002F800A30CA20CA10CA00CFF3E031D7B2901300E
:10030800A802031D882989295029290803198D293C
:100318008E299929AA09AB09AC09AD09AA0A0319BA
:10032800AB0A0319AC0A0319AD0A2D08A3002C085F
:10033800A2002B08A1002A08A00008000A128A11AE
:10034800DB220A128A1107300A128A117D220A1248
:100358008A11003083120313B1000030B000253039
:10036800AF008030AE000A128A1118220A128A11D0
:10037800710883120313860073080A128A111A235C
:100388000A128A11033083120313BF009730BE008C
:10039800BE0BCC29BF0BCC2972080A128A111A236A
:1003A8000A128A11033083120313BF009730BE006C
:1003B800BE0BDC29BF0BDC2974080A128A111A2328
:1003C8000A128A11033083120313BF009730BE004C
:1003D800BE0BEC29BF0BEC298312031340080A1249
:1003E8008A111A230A128A11033083120313BF00D9
:1003F8009730BE00BE0BFE29BF0BFE2983120313E4
:1004080041080A128A111A230A128A110330831228
:100418000313BF009730BE00BE0B102ABF0B102A73
:10042800BC290A128A110C28831203132E08B20061
:100438002F08B3003008B4003108B50004300310A9
:10044800B20DB30DB40DB50DFF3E031D232A3508BB
:10045800A3003408A2003308A1003208A0002E0827
:10046800B6002F08B7003008B8003108B9000430CA
:100478000310B60DB70DB80DB90DFF3E031D3C2A8C
:100488000030BA001230BB007A30BC000030BD002A
:100498003608BA023708031C370F532A542ABB02FE
:1004A8003808031C380F592A5A2ABC023908031C79
:1004B800390F5F2A602ABD023D08A7003C08A60044
:1004C8003B08A5003A08A4000A128A1105210A125D
:1004D8008A11831203132008831603139900181531
:1004E800981618121813831203131816981718134E
:1004F8000800F900B52A831603130F128F120F1381
:10050800D92A831603130F168F120F13D92A8316AD
:1005180003130F128F160F13D92A831603130F16FE
:100528008F160F13D92A831603130F128F120F1762
:10053800D92A831603130F168F120F17D92A831679
:1005480003130F128F160F17D92A831603130F16CA
:100558008F160F17D92A831603130F128F160F172A
:10056800D92A790883120313A000A1012108003AAF
:100578000319BF2AAF2A2008003A03197F2A013A33
:100588000319852A033A03198B2A013A0319912A78
:10059800073A0319972A013A03199D2A033A0319BE
:1005A800A32A013A0319A92AAF2A0F1408008316AF
:1005B800031385018601D0308700880188108316CF
:1005C800031788018901831603138C160B178B17E1
:1005D8008C15F101F00183120313A001A101A201FE
:1005E80025300A128A11FB220A128A110800F90022
:1005F8008316031387120716791D032B042B0C2B64
:100608008312031322088316031394008715142BEF
:1006180083120313200822048316031394008711FE
:10062800790883120313210494000800F900831643
:100638000313981C202B212B1B2B790883120313DF
:10064800990008000A128A1137230A128A118312A4
:10065800031313080800831203138C1E342B352B45
:10066800362B1A08080083160313141C3C2B3D2B49
:10067800372B0800F5007508831203139300080050
:04400E00D4E0FFFFFC
:00000001FF
