:020000040000FA
:060000000A128A110C280F
:10000800FE00030EF1000A08F2000A128A111C28E9
:100018000A128A110F28F701F801F9018312031354
:10002800C001C101C201C30183010A128A117E29DC
:10003800831203138C1D2128222870280A128A1182
:10004800F5220A128A11F0007008F8007808031DDA
:100058002E282F283628831603131410831203130F
:100068008C11DA287803031D3A283B284228831686
:1000780003131410831203138C11DA280230780644
:10008800031D472848284F2883160313141083128A
:1000980003138C11DA2803307806031D54285528D9
:1000A8005C28831603131410831203138C11DA28A7
:1000B80004307806031D6128622869288316031313
:1000C8001410831203138C11DA28831603131410E7
:1000D800831203138C11DA288C1E73287428DA28EB
:1000E8007708031D7828792887280A128A11FE22A2
:1000F8000A128A11F0007008F900831203138C1297
:10010800F701F70ADA287703031D8B288C289C2827
:100118000A128A11FE220A128A11F000700883124C
:100128000313C3008C120230F0007008F700DA28BD
:1001380002307706031DA128A228B2280A128A11C4
:10014800FE220A128A11F000700883120313C200FB
:100158008C120330F0007008F700DA2803307706B5
:10016800031DB728B828C8280A128A11FE220A12C5
:100178008A11F000700883120313C1008C12043036
:10018800F0007008F700DA2804307706031DCD2840
:10019800CE28DA280A128A11FE220A128A11F000E1
:1001A800700883120313C0008C12F70172088A00CA
:1001B800710E8300FE0E7E0E090083120313A9013F
:1001C800A31FE728E828F528A009A109A209A3097F
:1001D800A00A0319A10A0319A20A0319A30AA9016B
:1001E800A90AA71FF828F9280829A409A509A60912
:1001F800A709A40A0319A50A0319A60A0319A70A35
:100208000130F3007308A9060030AD000030AC00DF
:100218000030AB000030AA00230822042104200487
:100228000319172918296529A801A80A28290130BE
:10023800F3000310A00DA10DA20DA30DF30B1D29B2
:100248000130F3007308A807A31F2B292C291B29A9
:100258000130F3000310AA0DAB0DAC0DAD0DF30B7F
:100268002E2923082702031D432922082602031DDD
:10027800432921082502031D432920082402031CC1
:100288004629472956292008A4022108031C210FC2
:10029800A5022208031C220FA6022308031C230F11
:1002A800A7022A1401300310A30CA20CA10CA00C65
:1002B800FF3E031D57290130A802031D6429652943
:1002C8002C292908031969296A297529AA09AB095A
:1002D800AC09AD09AA0A0319AB0A0319AC0A031938
:1002E800AD0A2D08A3002C08A2002B08A1002A089B
:1002F800A00008000A128A11B5220A128A110730D2
:100308000A128A1159220A128A1100308312031321
:10031800B1000030B0002530AF008030AE000A12C6
:100328008A11F4210A128A1179080A128A11E9221B
:100338000A128A11033083120313BF009730BE00DC
:10034800BE0BA429BF0BA4298312031343080A1266
:100358008A11E9220A128A11033083120313BF009B
:100368009730BE00BE0BB629BF0BB6298312031304
:1003780042080A128A11E9220A128A1103308312EA
:100388000313BF009730BE00BE0BC829BF0BC82996
:100398008312031341080A128A11E9220A128A11E8
:1003A800033083120313BF009730BE00BE0BDA2957
:1003B800BF0BDA298312031340080A128A11E922B3
:1003C8000A128A11033083120313BF009730BE004C
:1003D800BE0BEC29BF0BEC2998290A128A110C28AC
:1003E800831203132E08B2002F08B3003008B4009C
:1003F8003108B50004300310B20DB30DB40DB50DBE
:10040800FF3E031DFF293508A3003408A200330866
:10041800A1003208A0002E08B6002F08B700300847
:10042800B8003108B90004300310B60DB70DB80D87
:10043800B90DFF3E031D182A0030BA001230BB0068
:100448007A30BC000030BD003608BA023708031CF9
:10045800370F2F2A302ABB023808031C380F352AD9
:10046800362ABC023908031C390F3B2A3C2ABD0234
:100478003D08A7003C08A6003B08A5003A08A400D0
:100488000A128A11E1200A128A1183120313200822
:100498008316031399001815981618121813831247
:1004A80003131816981718130800F500912A8316D5
:1004B80003130F128F120F13B32A831603130F1689
:1004C8008F120F13B32A831603130F128F160F13ED
:1004D800B32A831603130F168F160F13B32A831626
:1004E80003130F128F120F17B32A831603130F1655
:1004F8008F120F17B32A831603130F128F160F17B5
:10050800B32A831603130F168F160F17B32A8316F1
:1005180003130F128F160F17B32A7508F300F4018F
:100528007408003A0319992A8B2A7308003A0319A8
:100538005B2A013A0319612A033A0319672A013A27
:1005480003196D2A073A0319732A013A0319792AFC
:10055800033A03197F2A013A0319852A8B2A0F14B3
:1005680008008316031385018601D03087008801AF
:1005780088108316031788018901831603138C16C4
:100588000B178B17F801F701F301F401F50124307B
:100598000A128A11D2220A128A110800F60083165A
:1005A800031387120716761DDA2ADB2ADF2A750855
:1005B80094008715E32A7308750494008711760858
:1005C80074048312031394000800F30083160313C2
:1005D800981CEF2AF02AEA2A730883120313990059
:1005E80008000A128A1106230A128A1183120313B9
:1005F80013080800831203138C1E032B042B052BEE
:100608001A08080083160313141C0B2B0C2B062B3B
:020618000800D8
:04400E00D4E0FFFFFC
:00000001FF
