:020000040000FA
:060000000A128A110C280F
:10000800FE00030EF1000A08F2000A128A112A2AD9
:100018000A128A110F28F801F901FA018313203016
:1000280084004C300A128A11F9240A128A118301B9
:100038000A128A111F280A128A11A8240A128A1180
:1000480007300A128A118D220A128A110A128A119D
:1000580008240A128A118312031388140A128A11B7
:10006800C4240A128A110A128A1188240A128A11CF
:10007800831203133503031D422843282A280A1232
:100088008A118A230A128A1183120313DF005F0878
:10009800F8000A128A118A230A128A11831203139A
:1000A800DF005F08B3000A128A118A230A128A1134
:1000B80083120313DF005F08F9000A128A118A23EA
:1000C8000A128A1183120313DF005F08B4000A12B0
:1000D8008A118A230A128A1183120313DF00E001AE
:1000E8005F08A0006008A10078083307DF00E0017E
:1000F800E00D79085F07E100003003180130600760
:10010800E20034086107E300003003180130620799
:10011800E400FF306305E50000306405E6002108CF
:100128006606031D992820086506031D9C289D283E
:100138002A280A30F3000030F4007808DF00E001D4
:100148005F08F5006008F6000A128A11C1210A1238
:100158008A11740883120313AB007308AA002B08D2
:10016800D9002A08D8000A30DA000030DB0038301D
:100178000A128A1162240A128A110A30F300003026
:10018800F400780883120313DF00E0015F08F5002C
:100198006008F6000A128A11E9220A128A11740804
:1001A80083120313AD007308AC002D08D9002C0886
:1001B800D8000A30DA000030DB003D300A128A111C
:1001C80062240A128A110A30F3000030F400790818
:1001D80083120313DF00E0015F08F5006008F600F2
:1001E8000A128A11C1210A128A1174088312031390
:1001F800AF007308AE002F08D9002E08D8000A30C7
:10020800DA000030DB0042300A128A1162240A1236
:100218008A110A30F3000030F400790883120313BE
:10022800DF00E0015F08F5006008F6000A128A1195
:10023800E9220A128A11740883120313B1007308A1
:10024800B0003108D9003008D8000A30DA00003090
:10025800DB0047300A128A1162240A128A113D30E3
:1002680083120313DF005F08F30038300A128A1183
:1002780039240A128A11473083120313DF005F08FA
:10028800F30042300A128A1139240A128A112A28E4
:100298000A128A110C2883120313D7005008D500BC
:1002A8004F08D4005208F4005108F3005508F6002E
:1002B8005408F5000A128A1144230A128A11740894
:1002C80083120313D5007308D4000130D3005308F8
:1002D800D70754085504031D72297329562957084E
:1002E8008400831380010130D7025208F4005108BA
:1002F800F3005008F6004F08F5000A128A11CC23C3
:100308000A128A11730883120313D3005308D60004
:100318005208F4005108F3005008F6004F08F500A1
:100328000A128A1144230A128A11740883120313C9
:10033800D0007308CF000A305602031CA429A5294F
:10034800A9290730D3005308D6073030D300530803
:10035800D6075608D3005708840053088313800033
:100368000130D7024F085004031DBB29BC29792945
:100378000130D3005308D707080083120313CD01B7
:10038800F41FC729C829CF29F309F409F30A031967
:10039800F40ACD01CD0AF61FD229D329DC29F509A3
:1003A800F609F50A0319F60A0130F7007708CD06B1
:1003B800CE01CF01730874040319E329E4291B2A29
:1003C800CC01CC0AF22901300310F30DF40DFF3EE5
:1003D800031DE8290130F7007708CC07F41FF52939
:1003E800F629E72901300310CE0DCF0DFF3E031D7E
:1003F800F72974087602031D032A73087502031C83
:10040800062A072A0E2A7308F5027408031CF60345
:10041800F6024E1401300310F40CF30CFF3E031DDA
:100428000F2A0130CC02031D1A2A1B2AF6294D086F
:1004380003191F2A202A252ACE09CF09CE0A031913
:10044800CF0A4F08F4004E08F30008008312031384
:100458008C1D2F2A302A862A1412141B342A352A76
:10046800392A941F382A392A402A1308F0007008BC
:10047800B70014139413141683160313941A452AF9
:10048800462A622A1419492A4A2A622A831203131D
:100498001308F0007008B7008C11141683160313A4
:1004A800141C572A582A522A831203131308880047
:1004B800A630F000F00B5E2A0000832A941A652A01
:1004C800662A832A141D692A6A2A832A8312031337
:1004D8001308F0007008B700831603131410831272
:1004E8000313060893001416A630F000F00B7A2ABE
:1004F8000000831603131418822A832A7D2A831284
:1005080003138C1172088A00710E8300FE0E7E0E92
:100518000900F500C52A831603130F128F120F1353
:10052800E72A831603130F168F120F13E72A831671
:1005380003130F128F160F13E72A831603130F16D0
:100548008F160F13E72A831603130F128F120F1734
:10055800E72A831603130F168F120F17E72A83163D
:1005680003130F128F160F17E72A831603130F169C
:100578008F160F17E72A831603130F128F160F17FC
:10058800E72A7508F300F4017408003A0319CD2A24
:10059800BF2A7308003A03198F2A013A0319952ACA
:1005A800033A03199B2A013A0319A12A073A0319A6
:1005B800A72A013A0319AD2A033A0319B32A013AC3
:1005C8000319B92ABF2A0F14080083120313CD0197
:1005D800F61FEF2AF02AF72AF509F609F50A031992
:1005E800F60ACD01CD0AF41FFA2AFB2A002BF309DB
:1005F800F409F30A0319F40A730874040319052BA0
:10060800062B352BCC01CC0A142B01300310F30D2B
:10061800F40DFF3E031D0A2B0130F7007708CC07C5
:10062800F41F172B182B092B74087602031D1E2B99
:1006380073087502031C212B222B282B7308F50243
:100648007408031CF603F60201300310F40CF30CD3
:10065800FF3E031D292B0130CC02031D342B352B03
:10066800182B4D080319392B3A2B3F2BF509F6099E
:10067800F50A0319F60A7608F4007508F30008006D
:1006880083120313CD01CE017308740403194D2B93
:100698004E2B852BCC01CC0A5C2B01300310F30DBB
:1006A800F40DFF3E031D522B0130F7007708CC07ED
:1006B800F41F5F2B602B512B01300310CD0DCE0D95
:1006C800FF3E031D612B74087602031D6D2B730812
:1006D8007502031C702B712B782B7308F5027408B4
:1006E800031CF603F6024D1401300310F40CF30C4E
:1006F800FF3E031D792B0130CC02031D842B852B73
:10070800602B4E08F4004D08F3000800F601831230
:100718000313081D902B912B8B2B1330F300F30B35
:10072800932B962B8312031308199B2B9C2BAD2B11
:100738000130F3007608073C013EA42B0310F30DAB
:10074800FF3E031DA22B7308FF3AF4007408F50559
:10075800C02B0130F3007608073C013EB52B03108F
:10076800F30DFF3E031DB32B7308F4007408F50462
:100778000819BF2BC02BBC2B0130F3007308F607F8
:1007880008307602031CC92BCA2B8B2B750808006E
:10079800730874040319D12BD22B032C831203136F
:1007A800CC01CC0AE22B01300310F30DF40DFF3E0F
:1007B800031DD82B0130F7007708CC07F41FE52B71
:1007C800E62BD72B74087602031DEC2B73087502F1
:1007D800031CEF2BF02BF62B7308F5027408031C8F
:1007E800F603F60201300310F40CF30CFF3E031D70
:1007F800F72B0130CC02031D022C032CE62B7608C4
:10080800F4007508F3000800831203131F139F17E1
:100818001F14831603139F131F129F120330F40033
:100828009730F300F30B162CF40B162C1B2C8312A9
:1008380003131F119F111F129F12EF30F300242C76
:10084800F30B232C272C282C831203131F140C13AF
:100858009F149F18302C312C2D2C1E08F300730880
:10086800FA007A088600122C0800F5007508F400D2
:100878007408F600432C0130F4007408F607760873
:10088800840083130008031D4A2C4B2C3F2C542C46
:100898000130F4007408F6070130F4007408F30717
:1008A800730884000008F400760884007408800047
:1008B8000008031D602C612C4C2C080083120313C4
:1008C800DE00D91F682C692C792C2D30DC005E08DD
:1008D80084005C08831380000130DC005C08DE07BC
:1008E800D809D909D80A0319D90A5908D0005808CB
:1008F800CF005B08D2005A08D1005E080A128A119C
:100908004F210A128A11080083120313B5011A3005
:10091800F300F30B8D2C0000831203130819952C98
:10092800962CA72C3530F300F30B982C8312031365
:10093800081D9F2CA02CA72CB501B50A1A30F3006E
:10094800F30BA42C00000800013083160313850064
:100958008601183087008801890101308316031742
:1009680088008901831203138601870188018901A0
:10097800850130300A128A11DF240A128A11080010
:100988008316031308118312031308112F30F40080
:10099800BF30F300F30BCE2CF40BCE2CD32C8312E8
:1009A800031308151330F300F30BD82CDB2C831634
:1009B800031308150800F300730883160313930044
:1009C8003630831203139400803083160313940087
:1009D80001309100871507168B170B178312031325
:1009E8008C11831603138C15080064008001840A97
:0A09F8000406031900340406FA2C6B
:04400E00D4E0FFFFFC
:00000001FF
