:020000040000FA
:060000000A128A11EB2F29
:10000A007008710403190A280B283A28F501F50A21
:10001A00192801300310F00DF10DFF3E031D0F28C2
:10002A000130F4007408F507F11F1C281D280E285A
:10003A0071087302031D232870087202031C262804
:10004A0027282D287008F2027108031CF303F30213
:10005A0001300310F10CF00CFF3E031D2E28013075
:10006A00F502031D39283A281D287308F100720881
:10007A00F000080083120313A101F31F4528462844
:10008A005328F009F109F209F309F00A0319F10AF0
:10009A000319F20A0319F30AA101A10AF71F562844
:1000AA0057286628F409F509F609F709F40A031925
:1000BA00F50A0319F60A0319F70A0130F800780855
:1000CA00A1060030A5000030A4000030A3000030D3
:1000DA00A200730872047104700403197528762843
:1000EA00C328A001A00A86280130F8000310F00DE9
:1000FA00F10DF20DF30DF80B7B280130F8007808AA
:10010A00A007F31F89288A2879280130F8000310EC
:10011A00A20DA30DA40DA50DF80B8C287308770268
:10012A00031DA12872087602031DA1287108750211
:10013A00031DA12870087402031CA428A528B4284A
:10014A007008F4027108031C710FF5027208031C8F
:10015A00720FF6027308031C730FF70222140130A0
:10016A000310F30CF20CF10CF00CFF3E031DB52842
:10017A000130A002031DC228C3288A2821080319B6
:10018A00C728C828D328A209A309A409A509A20A2D
:10019A000319A30A0319A40A0319A50A2508F300D7
:1001AA002408F2002308F1002208F0000800F800F1
:1001BA0078080319E128E228F628F31FE528E6283B
:1001CA00F6287009FA007109FB007209FC0073092C
:1001DA00FD00FA0A0319FB0A0319FC0A0319FD0AAE
:1001EA00FE287308FD007208FC007108FB00700805
:1001FA00FA007308720471047004031D05290629A4
:10020A000F290030F3000030F2000030F100003016
:10021A00F00095299630F4007408F900212901307C
:10022A00F4007408F90701300310FD0CFC0CFB0CF8
:10023A00FA0CFF3E031D1929FE307D05031D2629F0
:10024A002729142943290130F4007408F9070130D9
:10025A00FA07003003180130FB0700300318013099
:10026A00FC07003003180130FD0701300310FD0CB4
:10027A00FC0CFB0CFA0CFF3E031D3B29FF307D05ED
:10028A00031D48294929282955290130F902013035
:10029A00F4000310FA0DFB0DFC0DFD0DF40B4E29B5
:1002AA00FC1B582959295F290230790203185E2953
:1002BA005F294A297918622963296B29FF30FA05CF
:1002CA00FF30FB057F30FC05FF30FD050310F90CFC
:1002DA007908F400F501F601F70118300310F40D5E
:1002EA00F50DF60DF70DFF3E031D73297408FA0488
:1002FA007508FB047608FC047708FD0478080319DE
:10030A00872988298D29F31F8B298C298D29FD1787
:10031A007D08F3007C08F2007B08F1007A08F000FF
:10032A0008000130F3008030F4000A128A152922ED
:10033A000A128A110A128A155B210A128A112130BD
:10034A00F0000030F1000A128A156D210A128A1192
:10035A000030F000F1000A128A15C8220A128A1126
:10036A00700883120313D4005408EE000A128A1587
:10037A0064210A128A11063083120313D5002F3022
:10038A00D400D40BC629D50BC629CB2943308312F6
:10039A000313BD007F30BC000030BB000030BA0040
:1003AA004030A300A030A2000030A1000030A0001D
:1003BA006E08D400D501D601D7015708F3005608B4
:1003CA00F2005508F1005408F00001300A128A11AF
:1003DA00DC200A128A11730883120313A700720819
:1003EA00A6007108A5007008A4000A128A118A24BE
:1003FA000A128A11831203132308C1002208C000BB
:10040A002108BF002008BE000A128A1523260A12F4
:10041A008A11831203133D0883160313BB00831248
:10042A0003133C0883160313BA00831203133B0811
:10043A0083160313B900831203133A0883160313AE
:10044A00B8003B0883120313A700831603133A0864
:10045A0083120313A60083160313390883120313A6
:10046A00A50083160313380883120313A40042302D
:10047A00A300C830A2000030A1000030A0000A1278
:10048A008A118A240A128A11831203132308BD00CF
:10049A002208BC002108BB002008BA000A128A15EB
:1004AA00A7250A128A11831203133B08DF003A08B0
:1004BA00DE000A30F9000030FA005F08FC005E082E
:1004CA00FB000A128A15AA230A128A117A088312D1
:1004DA000313DD007908DC005D08A5005C08A400B0
:1004EA000A30A6000030A700CF300A128A1503226C
:1004FA000A128A110A30F9000030FA000A30F000B4
:10050A000030F100831203135F08F3005E08F20063
:10051A000A128A15CE240A128A117108FC00700880
:10052A00FB000A128A15AA230A128A117A08831270
:10053A000313DB007908DA005B08A5005A08A40057
:10054A000A30A6000030A700CA300A128A15032210
:10055A000A128A110A30F9000030FA006430F000F9
:10056A000030F100831203135F08F3005E08F20003
:10057A000A128A15CE240A128A117108FC00700820
:10058A00FB000A128A15AA230A128A117A08831210
:10059A000313D9007908D8005908A5005808A400FF
:1005AA000A30A6000030A700C5300A128A150322B5
:1005BA000A128A11CF3083120313D4005408F000B0
:1005CA00CA300A128A159F220A128A11153083121A
:1005DA000313D4005408F000C0300A128A15E2212D
:1005EA000A128A11CA3083120313D4005408F00085
:1005FA00C0300A128A159F220A128A11C030831249
:10060A000313D4005408F000C5300A128A159F2239
:10061A000A128A11C0300A128A159F210A128A11F7
:10062A000A128A1552210A128A110A128A155B21A4
:10063A000A128A111130F0000030F1000A128A15EC
:10064A006D210A128A110030F000F1000A128A158F
:10065A00C8220A128A11700883120313D40054089C
:10066A00ED000A128A1564210A128A1106308312D1
:10067A000313D5002F30D400D40B412BD50B412BBB
:10068A00462B0A30F0000030F100831203136D0884
:10069A00D400D5015408F2005508F3000A128A154D
:1006AA00CE240A128A11710883120313E300700818
:1006BA00E2006308A5006208A4000A30A600003020
:1006CA00A700D9300A128A1503220A128A110A309F
:1006DA00F9000030FA00831203136D08D400D50123
:1006EA005408FB005508FC000A128A15AA230A12AC
:1006FA008A117A0883120313E1007908E00061087D
:10070A00A5006008A4000A30A6000030A700D43073
:10071A000A128A1503220A128A11D4308312031389
:10072A00D4005408F000D9300A128A159F220A12FE
:10073A008A110A128A1552210A128A110A128A1574
:10074A005B210A128A113130F0000030F1000A12DE
:10075A008A156D210A128A110030F000F1000A127E
:10076A008A15C8220A128A11700883120313D40048
:10077A005408EC000A128A1564210A128A110630FA
:10078A0083120313D5002F30D400D40BCA2BD50BF8
:10079A00CA2BCF2B0930831203136C02031CD62BEE
:1007AA00D72BD82B051009306C020318DD2BDE2B52
:1007BA00DF2B05140A30F0000030F1006C08D40079
:1007CA00D5015408F2005508F3000A128A15CE24FE
:1007DA000A128A11710883120313EB007008EA00E7
:1007EA006B08A5006A08A4000A30A6000030A7001A
:1007FA00E3300A128A1503220A128A110A30F90012
:10080A000030FA00831203136C08D400D50154088F
:10081A00FB005508FC000A128A15AA230A128A113B
:10082A007A0883120313E9007908E8006908A50029
:10083A006808A4000A30A6000030A700DE300A12B9
:10084A008A1503220A128A11DE3083120313D40096
:10085A005408F000E3300A128A159F220A128A11FC
:10086A00C530F3000030F4000A128A1529220A1250
:10087A008A111130F3008030F4000A128A152922F5
:10088A000A128A11D930F3000030F4000A128A15CC
:10089A0029220A128A111230F3008030F4000A1257
:1008AA008A1529220A128A11E330F3000030F40073
:1008BA000A128A1529220A128A11C5300A128A15C1
:1008CA0077210A128A110D3083120313D500FB30E7
:1008DA00D400D40B6E2CD50B6E2CD9300A128A1583
:1008EA0077210A128A110D3083120313D500FB30C7
:1008FA00D400D40B7E2CD50B7E2CE3300A128A1539
:10090A0077210A128A119F290800831203132308E8
:10091A008039A8002808AD002308A8002807A900E4
:10092A002908B300A21F9A2C9B2C9C2C3314330841
:10093A000319A02CA12CB02C330A031DA52CA62C1C
:10094A00AE2C0030A3000030A2000030A10000301D
:10095A00A000A217B82C0030A3000030A20000307B
:10096A00A1000030A00027088039A8002808AD0699
:10097A002708A8002807A9002908B200A61FC62C24
:10098A00C72CC82C321432080319CC2CCD2CDC2CE1
:10099A00320A031DD12CD22CDA2C0030A7000030E9
:1009AA00A6000030A5000030A400A617E42C0030F1
:1009BA00A7000030A6000030A5000030A4003208CD
:1009CA000319E82CE92CEE2C3308031DED2CEE2C30
:1009DA00F72C0030A3000030A2000030A100003044
:1009EA00A000EA2F2008A8002808F00026080A120A
:1009FA008A154F220A128A11710883120313B90049
:100A0A007008B8003808A800A901AA01AB012B0890
:100A1A00B1002A08B0002908AF002808AE0039083A
:100A2A00A800A901AA01AB012B08B7002A08B60041
:100A3A002908B5002808B4002108A8002808F000F1
:100A4A0025080A128A154F220A128A11710883127E
:100A5A000313B9007008B8003808A800A901AA0150
:100A6A00AB012808AE07290803110318013E031930
:100A7A003F2DAF072A0803110318013E0319462D1B
:100A8A00B0072B0803110318013E03194D2DB107B6
:100A9A003908A800A901AA01AB012808B407290846
:100AAA0003110318013E03195B2DB5072A08031128
:100ABA000318013E0319622DB6072B080311031808
:100ACA00013E0319692DB7072208A8002808F0007B
:100ADA0024080A128A154F220A128A1171088312EF
:100AEA000313B9007008B8003808A800A901AA01C0
:100AFA00AB012808AE07290803110318013E0319A0
:100B0A00872DAF072A0803110318013E03198E2DFA
:100B1A00B0072B0803110318013E0319952DB107DD
:100B2A003908A800A901AA01AB012808B4072908B5
:100B3A0003110318013E0319A32DB5072A0803114F
:100B4A000318013E0319AA2DB6072B08031103182F
:100B5A00013E0319B12DB7070830A8000310AE0DE6
:100B6A00AF0DB00DB10DA80BB32D2108A8002808B0
:100B7A00F00024080A128A154F220A128A117108F3
:100B8A0083120313B9007008B8003808A80039089E
:100B9A00A900AA01AB012808AE0729080311031806
:100BAA00013E0319D92DAF072A0803110318013E84
:100BBA000319E02DB0072B0803110318013E03198E
:100BCA00E72DB1072008A8002808F00025080A1216
:100BDA008A154F220A128A11710883120313B90067
:100BEA007008B8003808A8003908A900AA01AB01A2
:100BFA002808AE07290803110318013E0319062E17
:100C0A00AF072A0803110318013E03190D2EB00776
:100C1A002B0803110318013E0319142EB1070830DB
:100C2A00A8000310AE0DAF0DB00DB10DA80B162E16
:100C3A002008A8002808F00024080A128A154F2262
:100C4A000A128A11710883120313B9007008B800D6
:100C5A003808A8003908A900AA01AB012808AE077C
:100C6A00290803110318013E03193C2EAF072A086D
:100C7A0003110318013E0319432EB0072B08031171
:100C8A000318013E03194A2EB1072108A8002808B3
:100C9A00F00026080A128A154F220A128A117108D0
:100CAA0083120313B9007008B8003808A80039087D
:100CBA00A900AA01AB012808B407290803110318DF
:100CCA00013E0319692EB5072A0803110318013ECC
:100CDA000319702EB6072B0803110318013E0319D6
:100CEA00772EB7072208A8002808F00025080A125C
:100CFA008A154F220A128A11710883120313B90046
:100D0A007008B8003808A8003908A900AA01AB0180
:100D1A002808B407290803110318013E0319962E5F
:100D2A00B5072A0803110318013E03199D2EB607B9
:100D3A002B0803110318013E0319A42EB707220832
:100D4A00A8002808F00026080A128A154F220A125B
:100D5A008A11710883120313B9007008B8003808A1
:100D6A00A8003908A900AA01AB0108300310A80D90
:100D7A00A90DAA0DAB0DFF3E031DBB2E2808B40713
:100D8A00290803110318013E0319CC2EB5072A08B6
:100D9A0003110318013E0319D32EB6072B080311BA
:100DAA000318013E0319DA2EB7072E08A8002F08E8
:100DBA00A9003008AA003108AB0018300310AB0CA8
:100DCA00AA0CA90CA80CFF3E031DE32E2808B407A1
:100DDA00290803110318013E0319F42EB5072A083E
:100DEA0003110318013E0319FB2EB6072B08031142
:100DFA000318013E0319022FB7070830A800031091
:100E0A00AE0DAF0DB00DB10DA80B042F330832078C
:100E1A00A800A901A90D2808823EB80029080318CC
:100E2A00013EFF3EB900362F0130A8000310B40D71
:100E3A00B50DB60DB70DA80B1B2FB11F252F262FE9
:100E4A00272F34140130A8000310AE0DAF0DB00DDA
:100E5A00B10DA80B292FFF30B8070318B90AFF30C4
:100E6A00B907B61F392F3A2F192FB201B11F3E2FDA
:100E7A003F2F5B2FFF302E05A800FF302F05A9005A
:100E8A00FF303005AA007F303105AB002B082A0459
:100E9A00290428040319522F532F562FB201B20ADC
:100EAA005B2F341C592F5A2F5B2F532F32080319EB
:100EBA005F2F602F912F0130B407003003180130E3
:100ECA00B507003003180130B607003003180130A7
:100EDA00B707371C712F722F912F3408A8003508D5
:100EEA00A9003608AA003708AB000130AC002B0D68
:100EFA00AB0CAA0CA90CA80CAC0B7C2F2B08B700C6
:100F0A002A08B6002908B5002808B4000130B80735
:100F1A000318B90A0030B9073908803AFF0080304F
:100F2A007F02031D9A2FFF303802031C9D2F9E2F2C
:100F3A00A92F7F3083120313B7008030B600003028
:100F4A00B5000030B400DE2F831203133908803A4B
:100F5A00FF0080307F02031DB42F013038020318CE
:100F6A00B72FB82FC42F003083120313B7000030F5
:100F7A00B6000030B5000030B400AD01DE2F831298
:100F8A0003133808A8002808B300FF30B405FF305F
:100F9A00B5057F30B6050030B705331CD52FD62FDF
:100FAA00D72FB6173308A8000310280CA900290860
:100FBA00B7002D08A8002808B7043708A300360888
:100FCA00A2003508A1003408A00008008313583095
:100FDA0084006F300A128A154A210A128A11A03037
:100FEA008400E8300A128A154A210A128A118301FA
:100FFA000A128A152E2BFF1B0A2883137F188317C0
:10100A000008840A0319FF0A080008308A00040845
:10101A00840A82070034413444344334203420346F
:10102A0043344F344E3454342E34203420344C3428
:10103A0055345A34003456342034203400342E3493
:02104A00003470
:1012940064008001840A04060319003404064B29FF
:1012A4000A128A1583210A128A15831603139114CC
:1012B40008000A128A1583210A128A158316031359
:1012C400111408000A128A1583210A128A1583163A
:1012D4000313111508000A128A1583210A128A15AC
:1012E40070088312031393000800F000831603139D
:1012F400981C7D297E29782970088312031399008C
:1013040008008316031314198829892983291108CD
:101314001F39031D8E298F29832908008312031383
:1013240088174E30F100EB30F000F00B9729F10BE9
:1013340097298312031388130800F2000A128A15EE
:1013440076220A128A157208831203138600881201
:1013540008130A128A1590210A128A150800F2004D
:101364000A128A1576220A128A1572088312031346
:101374008600881608130A128A1590210A128A1503
:10138400080038300A128A159F210A128A150C3077
:101394000A128A159F210A128A1501300A128A1527
:1013A4009F210A128A1506300A128A159F210A12F1
:1013B4008A1580300A128A159F210A128A1508009C
:1013C400F2007208F1007108F300F0290130F10015
:1013D4007108F3070130F1007108F0077008840008
:1013E4000A128A150A200A128A15F1007308840069
:1013F4007108831380000008031D012A022AE829CA
:10140400080083120313A900A51F092A0A2A1A2A0D
:101414002D30FD00290884007D08831380000130ED
:10142400FD007D08A907A409A509A40A0319A50AB2
:101434002508F9002408F8002708FB002608FA000C
:1014440029080A128A1535250A128A1508003E2A27
:101454007408FF00730884000A128A1500200A1217
:101464008A150A128A15B1210A128A150130F30766
:101474000318F40A0030F407740883120313FF00FE
:10148400730884000A128A1500200A128A15003A89
:10149400031D4D2A4E2A2A2A0800F800F401F501FA
:1014A4007008F200F3017208F6007308F700781C64
:1014B4005C2A5D2A632A7608F4070318F50A77087C
:1014C400F50701300310F60DF70DFF3E031D642AE6
:1014D4000310F80C7808031D702A712A592A75081C
:1014E400F1007408F0000800FF3083120313860033
:1014F4008030F000700886058812081788134E3073
:10150400F100EB30F000F00B852AF10B852A8312F1
:101514000313881780300606031D912A922A9E2AF7
:1015240088134E30F100EB30F000F00B972AF10BEA
:10153400972A8312031388170800F3007308F10035
:101544007108F200A92A0130F1007108F20772084B
:10155400840083130008031DB02AB12AA52ABA2ADD
:101564000130F1007108F2070130F1007108F00751
:10157400700884000008F10072088400710880007B
:101584000008031DC62AC72AB22A08000A128A15AF
:1015940083210A128A158316031391150A128A15D8
:1015A40083210A128A15831203131308F200F3012C
:1015B4007208F4007308F5000A128A1583210A12CE
:1015C4008A1570037104031DE82AE92AED2A83169B
:1015D40003139112F02A831603139116111675083A
:1015E400F1007408F00008002830831203139400FB
:1015F400831603139101831203132008A400210806
:10160400A5002208A6002308A70002300310A40D99
:10161400A50DA60DA70DFF3E031D082B2708F300FB
:101624002608F2002508F1002408F0000030F70035
:101634007A30F6001230F5000030F4000A128A15F0
:1016440068240A128A157008FF3E83160313930058
:101654009401871507160800831603138501860174
:10166400983087008801890183120313850186015C
:101674008701880189010030A3000130A20086306F
:10168400A100A030A0000A128A15F6220A128A15B7
:10169400003083120313A9000030A8002530A700EE
:1016A4008030A6000A128A1505240A128A150A1225
:1016B4008A15C3210A128A150A128A1196210A125E
:1016C4008A150A128A110028F501F60170087104BE
:1016D40003196D2B6E2BA52BF701F70A7C2B013018
:1016E4000310F00DF10DFF3E031D722B0130F400C9
:1016F4007408F707F11F7F2B802B712B0130031027
:10170400F50DF60DFF3E031D812B71087302031DB9
:101714008D2B70087202031C902B912B982B700850
:10172400F2027108031CF303F30275140130031071
:10173400F10CF00CFF3E031D992B0130F702031D41
:10174400A42BA52B802B7608F1007508F000080067
:1017540083120313A101FC1FB02BB12BB82BFB097F
:10176400FC09FB0A0319FC0AA101A10AFA1FBB2BFD
:10177400BC2BC12BF909FA09F90A0319FA0A7908E9
:101784007A040319C62BC72BF62BA001A00AD52B6C
:1017940001300310F90DFA0DFF3E031DCB2B013070
:1017A400FD007D08A007FA1FD82BD92BCA2B7A0875
:1017B4007C02031DDF2B79087B02031CE22BE32B45
:1017C400E92B7908FB027A08031CFC03FC020130B4
:1017D4000310FA0CF90CFF3E031DEA2B0130A002A2
:1017E400031DF52BF62BD92B21080319FA2BFB2B00
:1017F400002CFB09FC09FB0A0319FC0A7C08FA000B
:101804007B08F9000800831203132608AA0027089E
:10181400AB002808AC002908AD0004300310AA0D61
:10182400AB0DAC0DAD0DFF3E031D102C2D08F300C8
:101834002C08F2002B08F1002A08F0002608AE005C
:101844002708AF002808B0002908B10004300310AD
:10185400AE0DAF0DB00DB10DFF3E031D292C0030B0
:10186400B2001230B3007A30B4000030B5002E0854
:10187400B2022F08031C2F0F402C412CB302300856
:10188400031C300F462C472CB4023108031C310FC3
:101894004C2C4D2CB5023508F7003408F6003308FB
:1018A400F5003208F4000A128A113F200A128A1540
:1018B4007008831603139900181598161812181334
:1018C4008312031318169817181308000030FC002D
:1018D4000030FB000030FA000030F9007308720495
:1018E400710470040319772C782CC52CFD01FD0AB2
:1018F400882C0130F8000310F00DF10DF20DF30DFA
:10190400F80B7D2C0130F8007808FD07F31F8B2CB1
:101914008C2C7B2C0130F8000310F90DFA0DFB0D13
:10192400FC0DF80B8E2C73087702031DA32C720890
:101934007602031DA32C71087502031DA32C7008E5
:101944007402031CA62CA72CB62C7008F402710890
:10195400031C710FF5027208031C720FF602730860
:10196400031C730FF702791401300310F30CF20C0B
:10197400F10CF00CFF3E031DB72C0130FD02031DDA
:10198400C42CC52C8C2C7C08F3007B08F2007A084C
:10199400F1007908F0000800F601F11FD22CD32CD5
:1019A400DA2CF009F109F00A0319F10AF601F60A32
:1019B400F31FDD2CDE2CE72CF209F309F20A0319DC
:1019C400F30A0130F4007408F606F701F801700810
:1019D40071040319EE2CEF2C262DF501F50AFD2CCC
:1019E40001300310F00DF10DFF3E031DF32C013007
:1019F400F4007408F507F11F002D012DF22C0130BD
:101A04000310F70DF80DFF3E031D022D710873023C
:101A1400031D0E2D70087202031C112D122D192D99
:101A24007008F2027108031CF303F3027714013007
:101A34000310F10CF00CFF3E031D1A2D0130F502CA
:101A4400031D252D262D012D760803192A2D2B2D56
:101A5400302DF709F809F70A0319F80A7808F10094
:101A64007708F000080083120313A3007908A1008B
:101A74007808A0007B08F1007A08F0002108F30040
:101A84002008F2000A128A1566230A128A157108C0
:101A940083120313A1007008A0000130FC007C082D
:101AA400A30720082104031D582D592D3C2D23087C
:101AB4008400831380010130A3027B08F1007A08BB
:101AC400F0007908F3007808F2000A128A11052060
:101AD4000A128A157008FC007C0883120313A20002
:101AE4007B08F1007A08F0007908F3007808F20026
:101AF4000A128A1566230A128A157108F9007008F9
:101B0400F8000A30831203132202031C8A2D8B2D42
:101B14008F2D0730FC007C08A2073030FC007C08C5
:101B2400A2072208FC00230884007C088313800099
:101B34000130A30278087904031DA12DA22D5F2D85
:101B44000130FC007C08A307080003108312031370
:101B54003C0D3D0DBE003E08C4004408031DB32DDA
:101B6400B42DBD2D0030BD000030BC000030BB00E2
:101B74000030BA00222E3A08BE003B08BF003C08E1
:101B8400C0003D08C1001F300310C10CC00CBF0CC5
:101B9400BE0CFF3E031DC62D3E08C2004208C30012
:101BA400BC17FF30BA05FF30BB05FF30BC05003061
:101BB400BD059630C402C41FE02DE12DFB2D440861
:101BC400803A973E0318E72DE82DE92DB42D013016
:101BD4000310BD0CBC0CBB0CBA0CFF3E031DEA2D5C
:101BE4000130BE003E08C407031DF92DFA2DE92D6E
:101BF400122E20304402031C002E012E0D2EB42D73
:101C04000130BE000310BA0DBB0DBC0DBD0DBE0BE3
:101C1400042E0130C4024408031D112E122E022E7C
:101C240043080319162E172E222EBA09BB09BC0924
:101C3400BD09BA0A0319BB0A0319BC0A0319BD0A70
:101C440008008312031341088039C2004208CB0004
:101C54004108C2004207C3004308D200C01F332E0C
:101C6400342E352E521452080319392E3A2E4A2E88
:101C7400520A031D3E2E3F2E472E0030C100003075
:101C8400C0000030BF000030BE00C017C101522E9A
:101C94000030C1000030C0000030BF000030BE0082
:101CA4003D088039C2004208CB063D08C200420705
:101CB400C3004308D300BC1F602E612E622E531450
:101CC40053080319662E672E772E530A031D6B2EB5
:101CD4006C2E742E0030BD000030BC000030BB0000
:101CE4000030BA00BC17BD017F2E0030BD000030AB
:101CF400BC000030BB000030BA003D083C043B048B
:101D04003A04031D862E872EA02E0030C100003019
:101D1400C0000030BF000030BE008030C0047F30FF
:101D2400C1044B08C2004208C1044108BD00400878
:101D3400BC003F08BB003E08BA00FF2F5208031D39
:101D4400A42EA52EAE2E0030BD000030BC00003005
:101D5400BB000030BA00FF2F5208C200C301430881
:101D6400C50053084202C400031CC50344087F3E57
:101D7400CC0045080318013E003ECD004108CA00CE
:101D84004008C9003F08C8003E08C7000030C10031
:101D94000030C0000030BF000030BE000030D10071
:101DA4000030D0000030CF000030CE00D301242F0B
:101DB40053080319DE2EDF2EFF2E0130C20003105C
:101DC400C70DC80DC90DCA0DC20BE12E0130C200EA
:101DD4000310BE0DBF0DC00DC10DC20BEA2ED11FE5
:101DE400F42EF52EF62E3E140130C2000310CE0D53
:101DF400CF0DD00DD10DC20BF82E3D084A02031DA4
:101E04000D2F3C084902031D0D2F3B084802031DFA
:101E14000D2F3A084702031C102F112F202F5117A2
:101E24003A08C7023B08031C3B0FC8023C08031CCA
:101E34003C0FC9023D08031C3D0FCA020130C20019
:101E44004208D3071A305302031C292F2A2FDA2EF3
:101E54004A084904480447040319312F322F512FEB
:101E64004E14512F0130C2000310BE0DBF0DC00D22
:101E7400C10DC20B362FD11F402F412F422F3E14CC
:101E84000130C2000310CE0DCF0DD00DD10DC20B09
:101E9400442FFF30CC070318CD0AFF30CD07C01FF5
:101EA400542F552F342FD301D11F592F5A2F762F4A
:101EB400FF304E05C200FF304F05C300FF30500510
:101EC400C4007F305105C50045084404430442045E
:101ED40003196D2F6E2F712FD301D30A762F3E1C59
:101EE400742F752F762F6E2F530803197A2F7B2F9B
:101EF400AC2F0130BE07003003180130BF0700309B
:101F040003180130C007003003180130C107411C19
:101F14008C2F8D2FAC2F3E08C2003F08C300400811
:101F2400C4004108C5000130C600450DC50CC40CF1
:101F3400C30CC20CC60B972F4508C1004408C0004F
:101F44004308BF004208BE000130CC070318CD0A85
:101F54000030CD074D08803AFF0080307F02031D1A
:101F6400B52FFF304C02031CB82FB92FC72FFF30F9
:101F740083120313CC000030CD000030C1000030C8
:101F8400C0000030BF000030BE00831203134D08B0
:101F9400803AFF0080307F02031DD22F01304C02B3
:101FA4000318D52FD62FE32F83120313CC01CD01B1
:101FB4000030C1000030C0000030BF000030BE005F
:101FC400CB01831203134C08C2004208D200521CF6
:101FD400EC2FED2FEF2FC017F32F7F30C2004208F4
:101FE400C0055208C2000310420CC3004308C100DC
:0C1FF4004B08C2004208C104972E0800F0
:04400E00D2E0FFFFFE
:00000001FF
