:020000040000FA
:100000000A128A11E42FFF1B0D2883137F18831710
:100010000008840A0319FF0A080000308A00040857
:10002000840A82070034203446345534453452342F
:100030005A344134203455344C34543452344134DD
:100040002034203420340034543445344D3450347A
:10005000203443344134523452344F3453342034F6
:100060004C3455345A342034003420342034203475
:08007000203420342034003458
:10008200FF308312031386008030F000700886056B
:100092008812081788134E30F100EB30F000F00B95
:1000A2005028F10B5028831203138817803006065C
:1000B200031D5C285D28692888134E30F100EB305F
:1000C200F000F00B6228F10B6228831203138817E9
:1000D2000800F2007208F1007108F3007428013080
:1000E200F1007108F3077308840083130008031DED
:1000F2007B287C28702885280130F1007108F307DD
:100102000130F1007108F007700884000008F10066
:1001120073088400710880000008031D912892284A
:100122007D2808000A128A1540270A128A118316AE
:10013200031391150A128A1540270A128A11831293
:1001420003131308F200F3017208F4007308F500B8
:100152000A128A1540270A128A1170037104031DBC
:10016200B328B428B828831603139112BB28831628
:100172000313911611167508F1007408F0000800B7
:100182002830831203139400831603139101831200
:1001920003135408D8005508D9005608DA00570846
:1001A200DB0002300310D80DD90DDA0DDB0DFF3E56
:1001B200031DD3285B08F3005A08F2005908F10026
:1001C2005808F0000030F7007A30F6001230F500DF
:1001D2000030F4000A128A1133220A128A117008BE
:1001E200FF3E831603139300940187150716080038
:1001F200700871040319FE28FF282E29F501F50A5B
:100202000D2901300310F00DF10DFF3E031D0329EE
:100212000130F4007408F507F11F10291129022991
:1002220071087302031D172970087202031C1A2930
:100232001B2921297008F2027108031CF303F3023F
:1002420001300310F10CF00CFF3E031D2229013096
:10025200F502031D2D292E2911297308F1007208B8
:10026200F0000800F501F6017008710403193A293B
:100272003B297229F701F70A492901300310F00DD1
:10028200F10DFF3E031D3F290130F4007408F7070A
:10029200F11F4C294D293E2901300310F50DF60DB1
:1002A200FF3E031D4E2971087302031D5A2970086F
:1002B2007202031C5D295E2965297008F202710829
:1002C200031CF303F302751401300310F10CF00C5C
:1002D200FF3E031D66290130F702031D71297229B1
:1002E2004D297608F1007508F0000800F601F31FA9
:1002F2007B297C298329F209F309F20A0319F30AFB
:10030200F601F60AF11F862987298C29F009F109DD
:10031200F00A0319F10A700871040319912992294C
:10032200C129F501F50AA02901300310F00DF10DE4
:10033200FF3E031D96290130F4007408F507F11FF2
:10034200A329A429952971087302031DAA297008FB
:100352007202031CAD29AE29B4297008F202710899
:10036200031CF303F30201300310F10CF00CFF3E07
:10037200031DB5290130F502031DC029C129A42995
:1003820076080319C529C629CB29F209F309F20A0D
:100392000319F30A7308F1007208F00008008312CF
:1003A20003135A08DE005B08DF005C08E0005D080A
:1003B200E10004300310DE0DDF0DE00DE10DFF3E24
:1003C200031DDB296108F3006008F2005F08F100F9
:1003D2005E08F0005A08E2005B08E3005C08E400F3
:1003E2005D08E50004300310E20DE30DE40DE50DB8
:1003F200FF3E031DF4290030E6001230E7007A3098
:10040200E8000030E9006208E6026308031C630F9B
:100412000B2A0C2AE7026408031C640F112A122A11
:10042200E8026508031C650F172A182AE902690801
:10043200F7006808F6006708F5006608F4000A127B
:100442008A1172230A128A11700883160313990003
:1004520018159816181218138312031318169817E2
:10046200181308000030FC000030FB000030FA00D6
:100472000030F90073087204710470040319422AEF
:10048200432A902AFD01FD0A532A0130F800031085
:10049200F00DF10DF20DF30DF80B482A0130F800C2
:1004A2007808FD07F31F562A572A462A0130F8001A
:1004B2000310F90DFA0DFB0DFC0DF80B592A730808
:1004C2007702031D6E2A72087602031D6E2A7108D6
:1004D2007502031D6E2A70087402031C712A722AA7
:1004E200812A7008F4027108031C710FF502720868
:1004F200031C720FF6027308031C730FF7027914C0
:1005020001300310F30CF20CF10CF00CFF3E031D52
:10051200822A0130FD02031D8F2A902A572A7C0865
:10052200F3007B08F2007A08F1007908F000080075
:10053200F601F11F9D2A9E2AA52AF009F109F00A67
:100542000319F10AF601F60AF31FA82AA92AB22A08
:10055200F209F309F20A0319F30A0130F4007408EC
:10056200F606F701F801700871040319B92ABA2ACC
:10057200F12AF501F50AC82A01300310F00DF10D38
:10058200FF3E031DBE2A0130F4007408F507F11F77
:10059200CB2ACC2ABD2A01300310F70DF80DFF3EFD
:1005A200031DCD2A71087302031DD92A7008720235
:1005B200031CDC2ADD2AE42A7008F2027108031CFB
:1005C200F303F302771401300310F10CF00CFF3E39
:1005D200031DE52A0130F502031DF02AF12ACC2A77
:1005E20076080319F52AF62AFB2AF709F809F70A09
:1005F2000319F80A7808F1007708F000080083125E
:100602000313D7007908D5007808D4007B08F100DD
:100612007A08F0005508F3005408F2000A128A1111
:1006220033210A128A11710883120313D50070084C
:10063200D4000130FC007C08D70754085504031D80
:10064200232B242B072B57088400831380010130AE
:10065200D7027B08F1007A08F0007908F3007808E5
:10066200F2000A128A11F9200A128A117008FC009B
:100672007C0883120313D6007B08F1007A08F0008D
:100682007908F3007808F2000A128A1133210A125B
:100692008A117108F9007008F8000A3083120313F6
:1006A2005602031C552B562B5A2B0730FC007C0894
:1006B200D6073030FC007C08D6075608FC005708E5
:1006C20084007C08831380000130D7027808790403
:1006D200031D6C2B6D2B2A2B0130FC007C08D707E5
:1006E200080083120313D501F31F782B792B862B75
:1006F200F009F109F209F309F00A0319F10A0319E1
:10070200F20A0319F30AD501D50AF71F892B8A2B9E
:10071200992BF409F509F609F709F40A0319F50A00
:100722000319F60A0319F70A0130F8007808D5060A
:100732000030D9000030D8000030D7000030D60099
:1007420073087204710470040319A82BA92BF62BE9
:10075200D401D40AB92B0130F8000310F00DF10DC9
:10076200F20DF30DF80BAE2B0130F8007808D40728
:10077200F31FBC2BBD2BAC2B0130F8000310D60DA0
:10078200D70DD80DD90DF80BBF2B73087702031DB7
:10079200D42B72087602031DD42B71087502031D37
:1007A200D42B70087402031CD72BD82BE72B7008AC
:1007B200F4027108031C710FF5027208031C720F18
:1007C200F6027308031C730FF7025614013003106C
:1007D200F30CF20CF10CF00CFF3E031DE82B013080
:1007E200D402031DF52BF62BBD2B55080319FA2B4A
:1007F200FB2B062CD609D709D809D909D60A031921
:10080200D70A0319D80A0319D90A5908F300580854
:10081200F2005708F1005608F00008000A128A1583
:1008220080270A128A11003083120313D700013085
:10083200D6008630D500A030D4000A128A11C12019
:100842000A128A110A128A1595270A128A11003091
:1008520083120313DD000030DC002530DB00803022
:10086200DA000A128A11D0210A128A110A128A1592
:1008720018270A128A113130F0000030F1000A12F2
:100882008A152A270A128A110030F000F1000A1292
:100892008A1193200A128A11700883120313EA0044
:1008A2006A08CC000A128A1521270A128A1103301B
:1008B20083120313EC000830EB007630EA00EA0BF7
:1008C200602CEB0B602CEC0B602C00000A30F0006B
:1008D2000030F100831203134C08EA00EB016A08AE
:1008E200F2006B08F3000A128A1199220A128A1185
:1008F200710883120313C7007008C6004708D900A5
:100902004608D8000A30DA000030DB004F300A1205
:100912008A15B4270A128A110A30F0000030F10059
:10092200831203134C08EA00EB016A08F2006B0819
:10093200F3000A128A1177210A128A1171088312AE
:100942000313C5007008C4004508D9004408D80044
:100952000A30DA000030DB00E9300A128A15B427C7
:100962000A128A11E93083120313EA006A08F000BE
:100972004F300A128A116A200A128A110A128A1543
:1009820018270A128A113130F0000030F1000A12E1
:100992008A152A270A128A110030F000F1000A1281
:1009A2008A1193200A128A11700883120313EA0033
:1009B2006A08CA000A128A1521270A128A1103300C
:1009C20083120313EC000830EB007630EA00EA0BE6
:1009D200E82CEB0BE82CEC0BE82C00000A30F000C2
:1009E2000030F100831203134A08EA00EB016A089F
:1009F200F2006B08F3000A128A1199220A128A1174
:100A0200710883120313C1007008C0004108D900A5
:100A12004008D8000A30DA000030DB00C1300A1288
:100A22008A15B4270A128A110A30F0000030F10048
:100A3200831203134A08EA00EB016A08F2006B080A
:100A4200F3000A128A1177210A128A11710883129D
:100A52000313C3007008C2004308D9004208D8003B
:100A62000A30DA000030DB00C6300A128A15B427D9
:100A72000A128A11C63083120313EA006A08F000D0
:100A8200C1300A128A116A200A128A110A128A15C0
:100A920018270A128A111130F0000030F1000A12F0
:100AA2008A152A270A128A110030F000F1000A1270
:100AB2008A1193200A128A11700883120313EA0022
:100AC2006A08CD000A128A1521270A128A110330F8
:100AD20083120313EC000830EB007630EA00EA0BD5
:100AE200702DEB0B702DEC0B702D00000A30F00016
:100AF2000030F100831203134D08EA00EB016A088B
:100B0200F2006B08F3000A128A1199220A128A1162
:100B1200710883120313B3007008B2003308D900BE
:100B22003208D8000A30DA000030DB00DA300A126C
:100B32008A15B4270A128A110A30F0000030F10037
:100B4200831203134D08EA00EB016A08F2006B08F6
:100B5200F3000A128A1177210A128A11710883128C
:100B62000313AF007008AE002F08D9002E08D8007A
:100B72000A30DA000030DB00D5300A128A15B427B9
:100B82000A128A110A128A1518270A128A112130AA
:100B9200F0000030F1000A128A152A270A128A117F
:100BA2000030F000F1000A128A1193200A128A1111
:100BB200700883120313EA006A08CE000A128A152B
:100BC20021270A128A11033083120313EC00083022
:100BD200EB007630EA00EA0BEC2DEB0BEC2DEC0B84
:100BE200EC2D00000A30F0000030F10083120313F4
:100BF2004E08EA00EB016A08F2006B08F3000A12E1
:100C02008A1199220A128A11710883120313AB0006
:100C12007008AA002B08D9002A08D8000A30DA0086
:100C22000030DB00D0300A128A15B4270A128A116A
:100C32000A30F0000030F100831203134E08EA007C
:100C4200EB016A08F2006B08F3000A128A1177219D
:100C52000A128A11710883120313BB007008BA00CA
:100C62003B08D9003A08D8000A30DA000030DB002D
:100C7200CB300A128A15B4270A128A11CB3083129A
:100C82000313EA006A08F000D0300A128A116A20BF
:100C92000A128A110A128A1518270A128A11213099
:100CA200F0000030F1000A128A152A270A128A116E
:100CB2000030F000F1000A128A1193200A128A1100
:100CC200700883120313EA006A08CB000A128A151D
:100CD20021270A128A11033083120313EC00083011
:100CE200EB007630EA00EA0B742EEB0B742EEC0B61
:100CF200742E00000A30F0000030F100831203135A
:100D02004B08EA00EB016A08F2006B08F3000A12D2
:100D12008A1199220A128A11710883120313B100EF
:100D22007008B0003108D9003008D8000A30DA0063
:100D32000030DB00E4300A128A15B4270A128A1145
:100D42000A30F0000030F100831203134B08EA006E
:100D5200EB016A08F2006B08F3000A128A1177218C
:100D62000A128A11710883120313AD007008AC00D5
:100D72002D08D9002C08D8000A30DA000030DB0038
:100D8200DF300A128A15B4270A128A11831203135A
:100D92000518CC2ECD2E2F2F4903031DD12ED22E76
:100DA200DB2E01300A128A155C270A128A1183127D
:100DB2000313C90180300A128A155C270A128A11AC
:100DC2001230F3008030F4000A128A15DA270A1270
:100DD2008A11C0300A128A155C270A128A11283039
:100DE200F3008030F4000A128A15DA270A128A11F7
:100DF200C130F3000030F4000A128A15DA270A1211
:100E02008A112530F3008030F4000A128A15DA279D
:100E12000A128A11D530F3000030F4000A128A1542
:100E2200DA270A128A112530F3008030F4000A1200
:100E32008A15DA270A128A114F30F3000030F400C3
:100E42000A128A15DA270A128A112830F300803032
:100E5200F4000A128A15DA270A128A11831203137E
:100E6200051C342F352F862F4908031D392F3A2FA1
:100E7200442F01300A128A155C270A128A11831242
:100E82000313C901C90A80300A128A155C270A12A3
:100E92008A110130F3008030F4000A128A15DA2731
:100EA2000A128A11C0300A128A155C270A128A11A4
:100EB2002730F3008030F4000A128A15DA270A126A
:100EC2008A11D030F3000030F4000A128A15DA27B2
:100ED2000A128A112430F3008030F4000A128A15B3
:100EE200DA270A128A11DF30F3000030F4000A1206
:100EF2008A15DA270A128A112330F3008030F400AF
:100F02000A128A15DA270A128A11831203134A086F
:100F12000A128A1534270A128A1103308312031324
:100F2200EB009730EA00EA0B942FEB0B942F83121D
:100F320003134D080A128A1534270A128A11033044
:100F420083120313EB009730EA00EA0BA62FEB0B98
:100F5200A62F831203134C080A128A1534270A1289
:100F62008A11033083120313EB009730EA00EA0B75
:100F7200B82FEB0BB82F831203134E080A128A15EF
:100F820034270A128A11033083120313EB009730BD
:100F9200EA00EA0BCA2FEB0BCA2F831203134B088A
:100FA2000A128A1534270A128A1103308312031394
:100FB200EB009730EA00EA0BDC2FEB0BDC2F372C2F
:100FC2000A128A11002883132030840054300A1236
:100FD2008A1510270A128A11A0308400EE300A12F4
:100FE2008A1510270A128A1183160317900191019C
:0E0FF20092019301940183010A128A110F2CBF
:101E200064008001840A0406031900340406112F9B
:101E30000A128A1540270A128A15831603131114F1
:101E400008000A128A1540270A128A1583160313FE
:101E5000111508000A128A1540270A128A157008FF
:101E60008312031393000800F00083160313981CD9
:101E70003A2F3B2F352F7008831203139900080067
:101E8000831603131419452F462F402F11081F39AD
:101E9000031D4B2F4C2F402F08008312031388176C
:101EA0004E30F100EB30F000F00B542FF10B542FBB
:101EB0008312031388130800F2000A128A114120CA
:101EC0000A128A15720883120313860088120813F7
:101ED0000A128A154D270A128A150800F2000A1202
:101EE0008A1141200A128A15720883120313860090
:101EF000881608130A128A154D270A128A15080037
:101F0000013083160313850086011830870088018D
:101F10008901831603178801890183120313850140
:101F20008601870188018901080038300A128A1564
:101F30005C270A128A150C300A128A155C270A12CD
:101F40008A1501300A128A155C270A128A15063092
:101F50000A128A155C270A128A1580300A128A151D
:101F60005C270A128A15080083120313DD00D91FAB
:101F7000BA2FBB2FCB2F2D30FD005D0884007D08CC
:101F8000831380000130FD007D08DD07D809D909E1
:101F9000D80A0319D90A5908F9005808F8005B084B
:101FA000FB005A08FA005D080A128A1100230A127F
:101FB0008A150800EF2F7408FF00730884000A12C6
:101FC0008A1103200A128A150A128A156E270A122C
:101FD0008A150130F3070318F40A0030F407740877
:101FE00083120313FF00730884000A128A1103206E
:101FF0000A128A15003A031DFE2FFF2FDB2F08005F
:04400E00D2E0FFFFFE
:00000001FF
