:020000040000FA
:100000000A128A11EB2F0A128A1577210A128A1115
:1000100083160313111508000A128A1577210A1294
:100020008A118316031391150A128A1577210A1271
:100030008A11831203131308F200F3017208F4000B
:100040007308F5000A128A1577210A128A117003C3
:100050007104031D2C282D283128831603139112B7
:10006000342883160313911611167508F1007408CD
:10007000F000080083120313A101F31F4028412858
:100080004E28F009F109F209F309F00A0319F10AFF
:100090000319F20A0319F30AA101A10AF71F512853
:1000A00052286128F409F509F609F709F40A031939
:1000B000F50A0319F60A0319F70A0130F80078085F
:1000C000A1060030A5000030A4000030A3000030DD
:1000D000A200730872047104700403197028712857
:1000E000BE28A001A00A81280130F8000310F00DFD
:1000F000F10DF20DF30DF80B76280130F8007808B9
:10010000A007F31F8428852874280130F800031005
:10011000A20DA30DA40DA50DF80B87287308770277
:10012000031D9C2872087602031D9C287108750225
:10013000031D9C2870087402031C9F28A028AF2868
:100140007008F4027108031C710FF5027208031C99
:10015000720FF6027308031C730FF70222140130AA
:100160000310F30CF20CF10CF00CFF3E031DB02851
:100170000130A002031DBD28BE28852821080319CF
:10018000C228C328CE28A209A309A409A509A20A46
:100190000319A30A0319A40A0319A50A2508F300E1
:1001A0002408F2002308F1002208F0000800F800FB
:1001B00078080319DC28DD28F128F31FE028E1285E
:1001C000F1287009FA007109FB007209FC0073093B
:1001D000FD00FA0A0319FB0A0319FC0A0319FD0AB8
:1001E000F9287308FD007208FC007108FB00700814
:1001F000FA007308720471047004031D00290129B8
:100200000A290030F3000030F2000030F100003025
:10021000F00090299630F4007408F9001C29013090
:10022000F4007408F90701300310FD0CFC0CFB0C02
:10023000FA0CFF3E031D1429FE307D05031D212904
:1002400022290F293E290130F4007408F9070130F2
:10025000FA07003003180130FB07003003180130A3
:10026000FC07003003180130FD0701300310FD0CBE
:10027000FC0CFB0CFA0CFF3E031D3629FF307D05FC
:10028000031D43294429232950290130F902013053
:10029000F4000310FA0DFB0DFC0DFD0DF40B4929C4
:1002A000FC1B532954295A29023079020318592971
:1002B0005A29452979185D295E296629FF30FA05F2
:1002C000FF30FB057F30FC05FF30FD050310F90C06
:1002D0007908F400F501F601F70118300310F40D68
:1002E000F50DF60DF70DFF3E031D6E297408FA0497
:1002F0007508FB047608FC047708FD0478080319E8
:10030000822983298829F31F862987298829FD17AF
:100310007D08F3007C08F2007B08F1007A08F00009
:1003200008000130F3008030F4000A128A151D2203
:100330000A128A110A128A1558210A128A112130CA
:10034000F0000030F1000A128A1561210A128A11A8
:100350000030F000F1000A128A110C200A128A11F2
:10036000700883120313D4005408EE000A128A1195
:1003700003200A128A11063083120313D5002F308E
:10038000D400D40BC129D50BC129C629433083120F
:100390000313BD007F30BC000030BB000030BA004A
:1003A0004030A300A030A2000030A1000030A00027
:1003B0006E08D400D501D601D7015708F3005608BE
:1003C000F2005508F1005408F00001300A128A11B9
:1003D000D7200A128A11730883120313A700720828
:1003E000A6007108A5007008A4000A128A118A24C8
:1003F0000A128A11831203132308C1002208C000C5
:100400002108BF002008BE000A128A1523260A12FE
:100410008A11831203133D0883160313BB00831252
:1004200003133C0883160313BA00831203133B081B
:1004300083160313B900831203133A0883160313B8
:10044000B8003B0883120313A700831603133A086E
:1004500083120313A60083160313390883120313B0
:10046000A50083160313380883120313A400423037
:10047000A300C830A2000030A1000030A0000A1282
:100480008A118A240A128A11831203132308BD00D9
:100490002208BC002108BB002008BA000A128A15F5
:1004A000A7250A128A11831203133B08DF003A08BA
:1004B000DE000A30F9000030FA005F08FC005E0838
:1004C000FB000A128A15AA230A128A117A088312DB
:1004D0000313DD007908DC005D08A5005C08A400BA
:1004E0000A30A6000030A700CF300A128A15F72183
:1004F0000A128A110A30F9000030FA000A30F000BE
:100500000030F100831203135F08F3005E08F2006D
:100510000A128A15CE240A128A117108FC0070088A
:10052000FB000A128A15AA230A128A117A0883127A
:100530000313DB007908DA005B08A5005A08A40061
:100540000A30A6000030A700CA300A128A15F72127
:100550000A128A110A30F9000030FA006430F00003
:100560000030F100831203135F08F3005E08F2000D
:100570000A128A15CE240A128A117108FC0070082A
:10058000FB000A128A15AA230A128A117A0883121A
:100590000313D9007908D8005908A5005808A40009
:1005A0000A30A6000030A700C5300A128A15F721CC
:1005B0000A128A11CF3083120313D4005408F000BA
:1005C000CA300A128A1593220A128A111530831230
:1005D0000313D4005408F000C0300A128A15D62143
:1005E0000A128A11CA3083120313D4005408F0008F
:1005F000C0300A128A1593220A128A11C03083125F
:100600000313D4005408F000C5300A128A1593224F
:100610000A128A11C0300A128A1593210A128A110D
:100620000A128A154F210A128A110A128A155821B4
:100630000A128A111130F0000030F1000A128A15F6
:1006400061210A128A110030F000F1000A128A11A9
:100650000C200A128A11700883120313D400540864
:10066000ED000A128A1103200A128A110630831241
:100670000313D5002F30D400D40B3C2BD50B3C2BCF
:10068000412B0A30F0000030F100831203136D0893
:10069000D400D5015408F2005508F3000A128A1557
:1006A000CE240A128A11710883120313E300700822
:1006B000E2006308A5006208A4000A30A60000302A
:1006C000A700D9300A128A15F7210A128A110A30B6
:1006D000F9000030FA00831203136D08D400D5012D
:1006E0005408FB005508FC000A128A15AA230A12B6
:1006F0008A117A0883120313E1007908E000610887
:10070000A5006008A4000A30A6000030A700D4307D
:100710000A128A15F7210A128A11D43083120313A0
:10072000D4005408F000D9300A128A1593220A1214
:100730008A110A128A154F210A128A110A128A1581
:1007400058210A128A113130F0000030F1000A12EB
:100750008A1561210A128A110030F000F1000A1294
:100760008A110C200A128A11700883120313D40014
:100770005408EC000A128A1103200A128A1106306A
:1007800083120313D5002F30D400D40BC52BD50B07
:10079000C52BCA2B0930831203136C02031CD12B07
:1007A000D22BD32B051009306C020318D82BD92B70
:1007B000DA2B05140A30F0000030F1006C08D40088
:1007C000D5015408F2005508F3000A128A15CE2408
:1007D0000A128A11710883120313EB007008EA00F1
:1007E0006B08A5006A08A4000A30A6000030A70024
:1007F000E3300A128A15F7210A128A110A30F90029
:100800000030FA00831203136C08D400D501540899
:10081000FB005508FC000A128A15AA230A128A1145
:100820007A0883120313E9007908E8006908A50033
:100830006808A4000A30A6000030A700DE300A12C3
:100840008A15F7210A128A11DE3083120313D400AD
:100850005408F000E3300A128A1593220A128A1112
:10086000C530F3000030F4000A128A151D220A1266
:100870008A111130F3008030F4000A128A151D220B
:100880000A128A11D930F3000030F4000A128A15D6
:100890001D220A128A111230F3008030F4000A126D
:1008A0008A151D220A128A11E330F3000030F40089
:1008B0000A128A151D220A128A11C5300A128A15D7
:1008C0006B210A128A110D3083120313D500FB30FD
:1008D000D400D40B692CD50B692CD9300A128A1597
:1008E0006B210A128A110D3083120313D500FB30DD
:1008F000D400D40B792CD50B792CE3300A128A154D
:100900006B210A128A110A128A154F210A128A11C2
:100910009A2908008312031323088039A8002808A5
:10092000AD002308A8002807A9002908B300A21FCA
:100930009A2C9B2C9C2C331433080319A02CA12C2B
:10094000B02C330A031DA52CA62CAE2C0030A3001E
:100950000030A2000030A1000030A000A217B82C87
:100960000030A3000030A2000030A1000030A00041
:1009700027088039A8002808AD062708A8002807FE
:10098000A9002908B200A61FC62CC72CC82C3214F7
:1009900032080319CC2CCD2CDC2C320A031DD12CAF
:1009A000D22CDA2C0030A7000030A6000030A500C1
:1009B0000030A400A617E42C0030A7000030A600E9
:1009C0000030A5000030A40032080319E82CE92CFF
:1009D000EE2C3308031DED2CEE2CF72C0030A30079
:1009E0000030A2000030A1000030A000EA2F200853
:1009F000A8002808F00026080A128A1543220A12C5
:100A00008A11710883120313B9007008B8003808FE
:100A1000A800A901AA01AB012B08B1002A08B00067
:100A20002908AF002808AE003908A800A901AA01CA
:100A3000AB012B08B7002A08B6002908B500280822
:100A4000B4002108A8002808F00025080A128A1519
:100A500043220A128A11710883120313B900700825
:100A6000B8003808A800A901AA01AB012808AE0700
:100A7000290803110318013E03193F2DAF072A0867
:100A800003110318013E0319462DB0072B0803116B
:100A90000318013E03194D2DB1073908A800A9011B
:100AA000AA01AB012808B407290803110318013E65
:100AB00003195B2DB5072A0803110318013E03191A
:100AC000622DB6072B0803110318013E0319692D87
:100AD000B7072208A8002808F00024080A128A157F
:100AE00043220A128A11710883120313B900700895
:100AF000B8003808A800A901AA01AB012808AE0770
:100B0000290803110318013E0319872DAF072A088E
:100B100003110318013E03198E2DB0072B08031192
:100B20000318013E0319952DB1073908A800A90142
:100B3000AA01AB012808B407290803110318013ED4
:100B40000319A32DB5072A0803110318013E031941
:100B5000AA2DB6072B0803110318013E0319B12D66
:100B6000B7070830A8000310AE0DAF0DB00DB10DE2
:100B7000A80BB32D2108A8002808F00024080A12A9
:100B80008A1543220A128A11710883120313B900CD
:100B90007008B8003808A8003908A900AA01AB01FC
:100BA0002808AE07290803110318013E0319D92D9F
:100BB000AF072A0803110318013E0319E02DB007FF
:100BC0002B0803110318013E0319E72DB107200874
:100BD000A8002808F00025080A128A1543220A12E4
:100BE0008A11710883120313B9007008B80038081D
:100BF000A8003908A900AA01AB012808AE072908F6
:100C000003110318013E0319062EAF072A0803112A
:100C10000318013E03190D2EB0072B08031103180A
:100C2000013E0319142EB1070830A8000310AE0DC1
:100C3000AF0DB00DB10DA80B162E2008A800280886
:100C4000F00024080A128A1543220A128A11710838
:100C500083120313B9007008B8003808A8003908D7
:100C6000A900AA01AB012808AE072908031103183F
:100C7000013E03193C2EAF072A0803110318013E59
:100C80000319432EB0072B0803110318013E031963
:100C90004A2EB1072108A8002808F00026080A12E9
:100CA0008A1543220A128A11710883120313B900AC
:100CB0007008B8003808A8003908A900AA01AB01DB
:100CC0002808B407290803110318013E0319692EE7
:100CD000B5072A0803110318013E0319702EB60741
:100CE0002B0803110318013E0319772EB7072208BA
:100CF000A8002808F00025080A128A1543220A12C3
:100D00008A11710883120313B9007008B8003808FB
:100D1000A8003908A900AA01AB012808B4072908CE
:100D200003110318013E0319962EB5072A08031173
:100D30000318013E03199D2EB6072B080311031853
:100D4000013E0319A42EB7072208A8002808F000C6
:100D500026080A128A1543220A128A117108831280
:100D60000313B9007008B8003808A8003908A900B2
:100D7000AA01AB0108300310A80DA90DAA0DAB0DF7
:100D8000FF3E031DBB2E2808B407290803110318D2
:100D9000013E0319CC2EB5072A0803110318013EA2
:100DA0000319D32EB6072B0803110318013E0319AC
:100DB000DA2EB7072E08A8002F08A9003008AA00CD
:100DC0003108AB0018300310AB0CAA0CA90CA80C0E
:100DD000FF3E031DE32E2808B4072908031103185A
:100DE000013E0319F42EB5072A0803110318013E2A
:100DF0000319FB2EB6072B0803110318013E031934
:100E0000022FB7070830A8000310AE0DAF0DB00DCC
:100E1000B10DA80B042F33083207A800A901A90DB2
:100E20002808823EB80029080318013EFF3EB90099
:100E3000362F0130A8000310B40DB50DB60DB70D57
:100E4000A80B1B2FB11F252F262F272F341401305D
:100E5000A8000310AE0DAF0DB00DB10DA80B292FDA
:100E6000FF30B8070318B90AFF30B907B61F392F8A
:100E70003A2F192FB201B11F3E2F3F2F5B2FFF30AA
:100E80002E05A800FF302F05A900FF303005AA006D
:100E90007F303105AB002B082A04290428040319EC
:100EA000522F532F562FB201B20A5B2F341C592FE9
:100EB0005A2F5B2F532F320803195F2F602F912F6A
:100EC0000130B407003003180130B50700300318B3
:100ED0000130B607003003180130B707371C712FF7
:100EE000722F912F3408A8003508A9003608AA00EF
:100EF0003708AB000130AC002B0DAB0CAA0CA90CD1
:100F0000A80CAC0B7C2F2B08B7002A08B6002908C8
:100F1000B5002808B4000130B8070318B90A00303A
:100F2000B9073908803AFF0080307F02031D9A2FED
:100F3000FF303802031C9D2F9E2FA92F7F30831274
:100F40000313B7008030B6000030B5000030B400A5
:100F5000DE2F831203133908803AFF0080307F02AE
:100F6000031DB42F013038020318B72FB82FC42F38
:100F7000003083120313B7000030B6000030B50014
:100F80000030B400AD01DE2F831203133808A8002F
:100F90002808B300FF30B405FF30B5057F30B60533
:100FA0000030B705331CD52FD62FD72FB6173308EF
:100FB000A8000310280CA9002908B7002D08A800D4
:100FC0002808B7043708A3003608A2003508A10096
:100FD0003408A00008008313583084006F300A12D0
:100FE0008A1547210A128A11A0308400E8300A12BB
:100FF0008A1547210A128A1183010A128A15F42AD6
:10100000FF1B0A2883137F1883170008840A03191B
:10101000FF0A080008308A000408840A82070034A6
:101020004134443443342034203443344F344E3438
:1010300054342E34203420344C3455345A34003453
:0C10400056342034203400342E340034A8
:10128E0064008001840A0406031900340406482908
:10129E000A128A1577210A128A15831603139114DE
:1012AE0008000A128A1577210A128A15831603136B
:1012BE00111408000A128A1577210A128A1570086D
:1012CE008312031393000800F00083160313981C77
:1012DE00712972296C297008831203139900080072
:1012EE008316031314197C297D29772911081F39B8
:1012FE00031D822983297729080083120313881777
:10130E004E30F100EB30F000F00B8B29F10B8B29F6
:10131E008312031388130800F2000A128A156A2238
:10132E000A128A1572088312031386008812081394
:10133E000A128A1584210A128A150800F2000A126E
:10134E008A156A220A128A157208831203138600FE
:10135E00881608130A128A1584210A128A150800A3
:10136E0038300A128A1593210A128A150C300A1285
:10137E008A1593210A128A1501300A128A159321B1
:10138E000A128A1506300A128A1593210A128A1534
:10139E0080300A128A1593210A128A150800F2006B
:1013AE007208F1007108F300E4290130F1007108B0
:1013BE00F3070130F1007108F007700884000A127B
:1013CE008A150A200A128A15F10073088400710822
:1013DE00831380000008031DF529F629DC29080077
:1013EE0083120313A900A51FFD29FE290E2A2D30F5
:1013FE00FD00290884007D08831380000130FD0064
:10140E007D08A907A409A509A40A0319A50A250898
:10141E00F9002408F8002708FB002608FA0029081E
:10142E000A128A1535250A128A150800322A7408FE
:10143E00FF00730884000A128A1500200A128A150A
:10144E000A128A15A5210A128A150130F30703180C
:10145E00F40A0030F407740883120313FF007308B4
:10146E0084000A128A1500200A128A15003A031DFA
:10147E00412A422A1E2A0800F800F401F5017008DC
:10148E00F200F3017208F6007308F700781C502A78
:10149E00512A572A7608F4070318F50A7708F50734
:1014AE0001300310F60DF70DFF3E031D582A0310F1
:1014BE00F80C7808031D642A652A4D2A7508F10078
:1014CE007408F0000800FF3083120313860080308A
:1014DE00F000700886058812081788134E30F10048
:1014EE00EB30F000F00B792AF10B792A83120313FB
:1014FE00881780300606031D852A862A922A8813AD
:10150E004E30F100EB30F000F00B8B2AF10B8B2AF2
:10151E008312031388170800F3007308F100710893
:10152E00F2009D2A0130F1007108F2077208840062
:10153E0083130008031DA42AA52A992AAE2A013076
:10154E00F1007108F2070130F1007108F007700820
:10155E0084000008F1007208840071088000000801
:10156E00031DBA2ABB2AA62A0800283083120313A9
:10157E009400831603139101831203132008A40011
:10158E002108A5002208A6002308A7000230031098
:10159E00A40DA50DA60DA70DFF3E031DCE2A2708EF
:1015AE00F3002608F2002508F1002408F0000030B0
:1015BE00F7007A30F6001230F5000030F4000A120F
:1015CE008A1568240A128A157008FF3E83160313C3
:1015DE0093009401871507160800831603138501DF
:1015EE0086019830870088018901831203138501D3
:1015FE0086018701880189010030A3000130A20015
:10160E008630A100A030A0000A128A15BC220A1250
:10161E008A15003083120313A9000030A80025306C
:10162E00A7008030A6000A128A1505240A128A1510
:10163E000A128A15B7210A128A150A128A119121E5
:10164E000A128A150A128A110028700871040319E9
:10165E00312B322B612BF501F50A402B0130031093
:10166E00F00DF10DFF3E031D362B0130F400740812
:10167E00F507F11F432B442B352B71087302031D05
:10168E004A2B70087202031C4D2B4E2B542B7008E4
:10169E00F2027108031CF303F30201300310F10C84
:1016AE00F00CFF3E031D552B0130F502031D602B80
:1016BE00612B442B7308F1007208F0000800F5014D
:1016CE00F6017008710403196D2B6E2BA52BF70113
:1016DE00F70A7C2B01300310F00DF10DFF3E031DB8
:1016EE00722B0130F4007408F707F11F7F2B802B4B
:1016FE00712B01300310F50DF60DFF3E031D812BEE
:10170E0071087302031D8D2B70087202031C902B3F
:10171E00912B982B7008F2027108031CF303F3024D
:10172E00751401300310F10CF00CFF3E031D992BC4
:10173E000130F702031DA42BA52B802B7608F10098
:10174E007508F000080083120313A101FC1FB02BD3
:10175E00B12BB82BFB09FC09FB0A0319FC0AA101EA
:10176E00A10AFA1FBB2BBC2BC12BF909FA09F90AE6
:10177E000319FA0A79087A040319C62BC72BF62B1C
:10178E00A001A00AD52B01300310F90DFA0DFF3E72
:10179E00031DCB2B0130FD007D08A007FA1FD82BAF
:1017AE00D92BCA2B7A087C02031DDF2B79087B020A
:1017BE00031CE22BE32BE92B7908FB027A08031CAE
:1017CE00FC03FC0201300310FA0CF90CFF3E031D62
:1017DE00EA2B0130A002031DF52BF62BD92B210885
:1017EE000319FA2BFB2B002CFB09FC09FB0A03192E
:1017FE00FC0A7C08FA007B08F90008008312031328
:10180E002608AA002708AB002808AC002908AD005E
:10181E0004300310AA0DAB0DAC0DAD0DFF3E031D34
:10182E00102C2D08F3002C08F2002B08F1002A08CA
:10183E00F0002608AE002708AF002808B0002908DF
:10184E00B10004300310AE0DAF0DB00DB10DFF3E63
:10185E00031D292C0030B2001230B3007A30B400D0
:10186E000030B5002E08B2022F08031C2F0F402C9B
:10187E00412CB3023008031C300F462C472CB40207
:10188E003108031C310F4C2C4D2CB5023508F700D6
:10189E003408F6003308F5003208F4000A128A11F3
:1018AE003A200A128A157008831603139900181528
:1018BE009816181218138312031318169817181364
:1018CE0008000030FC000030FB000030FA00003051
:1018DE00F90073087204710470040319772C782CC4
:1018EE00C52CFD01FD0A882C0130F8000310F00D07
:1018FE00F10DF20DF30DF80B7D2C0130F800780888
:10190E00FD07F31F8B2C8C2C7B2C0130F800031061
:10191E00F90DFA0DFB0DFC0DF80B8E2C73087702EA
:10192E00031DA32C72087602031DA32C71087502E9
:10193E00031DA32C70087402031CA62CA72CB62C16
:10194E007008F4027108031C710FF5027208031C73
:10195E00720FF6027308031C730FF702791401302D
:10196E000310F30CF20CF10CF00CFF3E031DB72C20
:10197E000130FD02031DC42CC52C8C2C7C08F300F9
:10198E007B08F2007A08F1007908F0000800F601F1
:10199E00F11FD22CD32CDA2CF009F109F00A03191D
:1019AE00F10AF601F60AF31FDD2CDE2CE72CF20904
:1019BE00F309F20A0319F30A0130F4007408F6066B
:1019CE00F701F801700871040319EE2CEF2C262D87
:1019DE00F501F50AFD2C01300310F00DF10DFF3E5F
:1019EE00031DF32C0130F4007408F507F11F002DD0
:1019FE00012DF22C01300310F70DF80DFF3E031DE3
:101A0E00022D71087302031D0E2D70087202031C45
:101A1E00112D122D192D7008F2027108031CF303FB
:101A2E00F302771401300310F10CF00CFF3E031D8E
:101A3E001A2D0130F502031D252D262D012D7608B8
:101A4E0003192A2D2B2D302DF709F809F70A031942
:101A5E00F80A7808F1007708F000080083120313E3
:101A6E00A3007908A1007808A0007B08F1007A088D
:101A7E00F0002108F3002008F2000A128A156623EE
:101A8E000A128A15710883120313A1007008A000B0
:101A9E000130FC007C08A30720082104031D582DEB
:101AAE00592D3C2D23088400831380010130A3029D
:101ABE007B08F1007A08F0007908F3007808F2004C
:101ACE000A128A152C230A128A157008FC007C084B
:101ADE0083120313A2007B08F1007A08F000790844
:101AEE00F3007808F2000A128A1566230A128A1584
:101AFE007108F9007008F8000A30831203132202ED
:101B0E00031C8A2D8B2D8F2D0730FC007C08A2071D
:101B1E003030FC007C08A2072208FC002308840059
:101B2E007C08831380000130A30278087904031D1A
:101B3E00A12DA22D5F2D0130FC007C08A30708000B
:101B4E000310831203133C0D3D0DBE003E08C4006E
:101B5E004408031DB32DB42DBD2D0030BD00003043
:101B6E00BC000030BB000030BA00222E3A08BE0086
:101B7E003B08BF003C08C0003D08C1001F300310E9
:101B8E00C10CC00CBF0CBE0CFF3E031DC62D3E0883
:101B9E00C2004208C300BC17FF30BA05FF30BB05B8
:101BAE00FF30BC050030BD059630C402C41FE02DC9
:101BBE00E12DFB2D4408803A973E0318E72DE82DC2
:101BCE00E92DB42D01300310BD0CBC0CBB0CBA0CAE
:101BDE00FF3E031DEA2D0130BE003E08C407031D63
:101BEE00F92DFA2DE92D122E20304402031C002E61
:101BFE00012E0D2EB42D0130BE000310BA0DBB0DFB
:101C0E00BC0DBD0DBE0B042E0130C4024408031DD5
:101C1E00112E122E022E43080319162E172E222EC7
:101C2E00BA09BB09BC09BD09BA0A0319BB0A0319D3
:101C3E00BC0A0319BD0A0800831203134108803938
:101C4E00C2004208CB004108C2004207C30043084D
:101C5E00D200C01F332E342E352E521452080319C3
:101C6E00392E3A2E4A2E520A031D3E2E3F2E472E55
:101C7E000030C1000030C0000030BF000030BE0098
:101C8E00C017C101522E0030C1000030C00000301C
:101C9E00BF000030BE003D088039C2004208CB06AE
:101CAE003D08C2004207C3004308D300BC1F602E8C
:101CBE00612E622E531453080319662E672E772E4B
:101CCE00530A031D6B2E6C2E742E0030BD00003097
:101CDE00BC000030BB000030BA00BC17BD017F2E27
:101CEE000030BD000030BC000030BB000030BA0038
:101CFE003D083C043B043A04031D862E872EA02E7D
:101D0E000030C1000030C0000030BF000030BE0007
:101D1E008030C0047F30C1044B08C2004208C104A9
:101D2E004108BD004008BC003F08BB003E08BA0099
:101D3E00FF2F5208031DA42EA52EAE2E0030BD007F
:101D4E000030BC000030BB000030BA00FF2F52083C
:101D5E00C200C3014308C50053084202C400031C5D
:101D6E00C50344087F3ECC0045080318013E003EE3
:101D7E00CD004108CA004008C9003F08C8003E080F
:101D8E00C7000030C1000030C0000030BF0000307E
:101D9E00BE000030D1000030D0000030CF00003047
:101DAE00CE00D301242F53080319DE2EDF2EFF2E73
:101DBE000130C2000310C70DC80DC90DCA0DC20BEC
:101DCE00E12E0130C2000310BE0DBF0DC00DC10DBE
:101DDE00C20BEA2ED11FF42EF52EF62E3E14013034
:101DEE00C2000310CE0DCF0DD00DD10DC20BF82EAB
:101DFE003D084A02031D0D2F3C084902031D0D2FFD
:101E0E003B084802031D0D2F3A084702031C102FF2
:101E1E00112F202F51173A08C7023B08031C3B0F06
:101E2E00C8023C08031C3C0FC9023D08031C3D0FB1
:101E3E00CA020130C2004208D3071A305302031CF3
:101E4E00292F2A2FDA2E4A08490448044704031979
:101E5E00312F322F512F4E14512F0130C20003104B
:101E6E00BE0DBF0DC00DC10DC20B362FD11F402FA1
:101E7E00412F422F3E140130C2000310CE0DCF0D64
:101E8E00D00DD10DC20B442FFF30CC070318CD0A55
:101E9E00FF30CD07C01F542F552F342FD301D11F24
:101EAE00592F5A2F762FFF304E05C200FF304F05A7
:101EBE00C300FF305005C4007F305105C5004508F2
:101ECE0044044304420403196D2F6E2F712FD30166
:101EDE00D30A762F3E1C742F752F762F6E2F530834
:101EEE0003197A2F7B2FAC2F0130BE070030031859
:101EFE000130BF07003003180130C007003003184F
:101F0E000130C107411C8C2F8D2FAC2F3E08C20013
:101F1E003F08C3004008C4004108C5000130C60098
:101F2E00450DC50CC40CC30CC20CC60B972F45082F
:101F3E00C1004408C0004308BF004208BE00013083
:101F4E00CC070318CD0A0030CD074D08803AFF00AC
:101F5E0080307F02031DB52FFF304C02031CB82FBB
:101F6E00B92FC72FFF3083120313CC000030CD00E2
:101F7E000030C1000030C0000030BF000030BE0095
:101F8E00831203134D08803AFF0080307F02031D39
:101F9E00D22F01304C020318D52FD62FE32F8312E8
:101FAE000313CC01CD010030C1000030C000003061
:101FBE00BF000030BE00CB01831203134C08C200D9
:101FCE004208D200521CEC2FED2FEF2FC017F32F2B
:101FDE007F30C2004208C0055208C2000310420CF6
:101FEE00C3004308C1004B08C2004208C104972E2B
:021FFE000800D9
:04400E00D2E0FFFFFE
:00000001FF
