:020000040000FA
:060000000A128A11EB2F29
:10000A000A128A15A9220A128A1170088312031386
:10001A009300080083120313A3007908A10078084B
:10002A00A0007B08F1007A08F0002108F3002008FC
:10003A00F2000A128A15B7240A128A117108831269
:10004A000313A1007008A0000130FC007C08A3077C
:10005A0020082104031D3228332816282308840087
:10006A00831380010130A3027B08F1007A08F000B3
:10007A007908F3007808F2000A128A157D240A1218
:10008A008A117008FC007C0883120313A2007B0803
:10009A00F1007A08F0007908F3007808F2000A12F1
:1000AA008A15B7240A128A117108F9007008F80033
:1000BA000A30831203132202031C64286528692864
:1000CA000730FC007C08A2073030FC007C08A2073D
:1000DA002208FC00230884007C0883138000013076
:1000EA00A30278087904031D7B287C28392801306B
:1000FA00FC007C08A30708000310831203133C0DBD
:10010A003D0DBE003E08C4004408031D8D288E28FC
:10011A0097280030BD000030BC000030BB00003022
:10012A00BA00FC283A08BE003B08BF003C08C000E1
:10013A003D08C1001F300310C10CC00CBF0CBE0C1F
:10014A00FF3E031DA0283E08C2004208C300BC1798
:10015A00FF30BA05FF30BB05FF30BC050030BD05D6
:10016A009630C402C41FBA28BB28D5284408803A4E
:10017A00973E0318C128C228C3288E2801300310CD
:10018A00BD0CBC0CBB0CBA0CFF3E031DC4280130CD
:10019A00BE003E08C407031DD328D428C328EC2870
:1001AA0020304402031CDA28DB28E7288E28013095
:1001BA00BE000310BA0DBB0DBC0DBD0DBE0BDE2873
:1001CA000130C4024408031DEB28EC28DC2843084C
:1001DA000319F028F128FC28BA09BB09BC09BD0992
:1001EA00BA0A0319BB0A0319BC0A0319BD0A080093
:1001FA00F80078080319022903291729F31F062989
:10020A00072917297009FA007109FB007209FC0015
:10021A007309FD00FA0A0319FB0A0319FC0A0319F8
:10022A00FD0A1F297308FD007208FC007108FB0013
:10023A007008FA007308720471047004031D2629F9
:10024A00272930290030F3000030F2000030F10095
:10025A000030F000B6299630F4007408F9004229FB
:10026A000130F4007408F90701300310FD0CFC0C8E
:10027A00FB0CFA0CFF3E031D3A29FE307D05031DD7
:10028A0047294829352964290130F4007408F907F7
:10029A000130FA07003003180130FB070030031859
:1002AA000130FC07003003180130FD07013003104C
:1002BA00FD0CFC0CFB0CFA0CFF3E031D5C29FF3005
:1002CA007D05031D69296A29492976290130F90220
:1002DA000130F4000310FA0DFB0DFC0DFD0DF40BBB
:1002EA006F29FC1B79297A2980290230790203189F
:1002FA007F2980296B297918832984298C29FF3041
:10030A00FA05FF30FB057F30FC05FF30FD050310C1
:10031A00F90C7908F400F501F601F7011830031019
:10032A00F40DF50DF60DF70DFF3E031D9429740823
:10033A00FA047508FB047608FC047708FD047808BB
:10034A000319A829A929AE29F31FAC29AD29AE2979
:10035A00FD177D08F3007C08F2007B08F1007A089B
:10036A00F00008000130F3008030F4000A128A1508
:10037A004F230A128A110A128A1597220A128A111F
:10038A002130F0000030F1000A128A1105200A1209
:10039A008A110030F000F1000A128A1517240A1295
:1003AA008A11700883120313D4005408EE000A124B
:1003BA008A15A0220A128A11063083120313D50065
:1003CA002F30D400D40BE729D50BE729EC29433089
:1003DA0083120313BD007F30BC000030BB00003025
:1003EA00BA004030A300A030A2000030A1000030C3
:1003FA00A0006E08D400D501D601D7015708F30032
:10040A005608F2005508F1005408F00001300A12AB
:10041A008A11FD200A128A11730883120313A70096
:10042A007208A6007108A5007008A4000A128A11B1
:10043A008A240A128A11831203132308C10022088C
:10044A00C0002108BF002008BE000A128A15232610
:10045A000A128A11831203133D0883160313BB0081
:10046A00831203133C0883160313BA00831203137F
:10047A003B0883160313B900831203133A08831641
:10048A000313B8003B0883120313A7008316031350
:10049A003A0883120313A60083160313390883123A
:1004AA000313A50083160313380883120313A40049
:1004BA004230A300C830A2000030A1000030A000E2
:1004CA000A128A118A240A128A1183120313230830
:1004DA00BD002208BC002108BB002008BA000A128D
:1004EA008A1181200A128A11831203133B08DF0042
:1004FA003A08DE000A30F9000030FA005F08FC0012
:10050A005E08FB000A128A15FB240A128A117A086D
:10051A0083120313DD007908DC005D08A5005C087E
:10052A00A4000A30A6000030A700CF300A128A15AC
:10053A0029230A128A110A30F9000030FA000A3017
:10054A00F0000030F100831203135F08F3005E0825
:10055A00F2000A128A15BC250A128A117108FC00D7
:10056A007008FB000A128A15FB240A128A117A08FB
:10057A0083120313DB007908DA005B08A5005A0826
:10058A00A4000A30A6000030A700CA300A128A1551
:10059A0029230A128A110A30F9000030FA0064305D
:1005AA00F0000030F100831203135F08F3005E08C5
:1005BA00F2000A128A15BC250A128A117108FC0077
:1005CA007008FB000A128A15FB240A128A117A089B
:1005DA0083120313D9007908D8005908A5005808CE
:1005EA00A4000A30A6000030A700C5300A128A15F6
:1005FA0029230A128A11CF3083120313D400540814
:10060A00F000CA300A128A15C5230A128A11153057
:10061A0083120313D4005408F000C0300A128A155A
:10062A0008230A128A11CA3083120313D400540809
:10063A00F000C0300A128A15C5230A128A11C03086
:10064A0083120313D4005408F000C5300A128A1525
:10065A00C5230A128A11C0300A128A15C5220A1243
:10066A008A110A128A158E220A128A110A128A1508
:10067A0097220A128A111130F0000030F1000A1292
:10068A008A1105200A128A110030F000F1000A12BC
:10069A008A1517240A128A11700883120313D400C8
:1006AA005408ED000A128A15A0220A128A1106308D
:1006BA0083120313D5002F30D400D40B622BD50B31
:1006CA00622B672B0A30F0000030F100831203130B
:1006DA006D08D400D5015408F2005508F3000A1237
:1006EA008A15BC250A128A11710883120313E300C2
:1006FA007008E2006308A5006208A4000A30A60098
:10070A000030A700D9300A128A1529230A128A1141
:10071A000A30F9000030FA00831203136D08D4007E
:10072A00D5015408FB005508FC000A128A15FB245F
:10073A000A128A117A0883120313E1007908E00089
:10074A006108A5006008A4000A30A6000030A700CE
:10075A00D4300A128A1529230A128A11D430831234
:10076A000313D4005408F000D9300A128A15C5239D
:10077A000A128A110A128A158E220A128A110A127A
:10078A008A1597220A128A113130F0000030F100DE
:10079A000A128A1105200A128A110030F000F100AB
:1007AA000A128A1517240A128A117008831203136F
:1007BA00D4005408EC000A128A15A0220A128A11DF
:1007CA00063083120313D5002F30D400D40BEB2B41
:1007DA00D50BEB2BF02B0930831203136C02031C8D
:1007EA00F72BF82BF92B051009306C020318FE2B96
:1007FA00FF2B002C05140A30F0000030F1006C08C1
:10080A00D400D5015408F2005508F3000A128A15DB
:10081A00BC250A128A11710883120313EB007008AF
:10082A00EA006B08A5006A08A4000A30A600003096
:10083A00A700E3300A128A1529230A128A110A30FC
:10084A00F9000030FA00831203136C08D400D501B2
:10085A005408FB005508FC000A128A15FB240A12E8
:10086A008A117A0883120313E9007908E8006908F3
:10087A00A5006808A4000A30A6000030A700DE30F0
:10088A000A128A1529230A128A11DE3083120313E7
:10089A00D4005408F000E3300A128A15C5230A125C
:1008AA008A11C530F3000030F4000A128A154F236A
:1008BA000A128A111130F3008030F4000A128A15E4
:1008CA004F230A128A11D930F3000030F4000A12B9
:1008DA008A154F230A128A111230F3008030F4006D
:1008EA000A128A154F230A128A11E330F3000030E4
:1008FA00F4000A128A154F230A128A110A128A155B
:10090A008E220A128A11C0290800831203132308AF
:10091A008039A8002808AD002308A8002807A900E4
:10092A002908B300A21F9A2C9B2C9C2C3314330841
:10093A000319A02CA12CB02C330A031DA52CA62C1C
:10094A00AE2C0030A3000030A2000030A10000301D
:10095A00A000A217B82C0030A3000030A20000307B
:10096A00A1000030A00027088039A8002808AD0699
:10097A002708A8002807A9002908B200A61FC62C24
:10098A00C72CC82C321432080319CC2CCD2CDC2CE1
:10099A00320A031DD12CD22CDA2C0030A7000030E9
:1009AA00A6000030A5000030A400A617E42C0030F1
:1009BA00A7000030A6000030A5000030A4003208CD
:1009CA000319E82CE92CEE2C3308031DED2CEE2C30
:1009DA00F72C0030A3000030A2000030A100003044
:1009EA00A000EA2F2008A8002808F00026080A120A
:1009FA008A1575230A128A11710883120313B90022
:100A0A007008B8003808A800A901AA01AB012B0890
:100A1A00B1002A08B0002908AF002808AE0039083A
:100A2A00A800A901AA01AB012B08B7002A08B60041
:100A3A002908B5002808B4002108A8002808F000F1
:100A4A0025080A128A1575230A128A117108831257
:100A5A000313B9007008B8003808A800A901AA0150
:100A6A00AB012808AE07290803110318013E031930
:100A7A003F2DAF072A0803110318013E0319462D1B
:100A8A00B0072B0803110318013E03194D2DB107B6
:100A9A003908A800A901AA01AB012808B407290846
:100AAA0003110318013E03195B2DB5072A08031128
:100ABA000318013E0319622DB6072B080311031808
:100ACA00013E0319692DB7072208A8002808F0007B
:100ADA0024080A128A1575230A128A1171088312C8
:100AEA000313B9007008B8003808A800A901AA01C0
:100AFA00AB012808AE07290803110318013E0319A0
:100B0A00872DAF072A0803110318013E03198E2DFA
:100B1A00B0072B0803110318013E0319952DB107DD
:100B2A003908A800A901AA01AB012808B4072908B5
:100B3A0003110318013E0319A32DB5072A0803114F
:100B4A000318013E0319AA2DB6072B08031103182F
:100B5A00013E0319B12DB7070830A8000310AE0DE6
:100B6A00AF0DB00DB10DA80BB32D2108A8002808B0
:100B7A00F00024080A128A1575230A128A117108CC
:100B8A0083120313B9007008B8003808A80039089E
:100B9A00A900AA01AB012808AE0729080311031806
:100BAA00013E0319D92DAF072A0803110318013E84
:100BBA000319E02DB0072B0803110318013E03198E
:100BCA00E72DB1072008A8002808F00025080A1216
:100BDA008A1575230A128A11710883120313B90040
:100BEA007008B8003808A8003908A900AA01AB01A2
:100BFA002808AE07290803110318013E0319062E17
:100C0A00AF072A0803110318013E03190D2EB00776
:100C1A002B0803110318013E0319142EB1070830DB
:100C2A00A8000310AE0DAF0DB00DB10DA80B162E16
:100C3A002008A8002808F00024080A128A1575233B
:100C4A000A128A11710883120313B9007008B800D6
:100C5A003808A8003908A900AA01AB012808AE077C
:100C6A00290803110318013E03193C2EAF072A086D
:100C7A0003110318013E0319432EB0072B08031171
:100C8A000318013E03194A2EB1072108A8002808B3
:100C9A00F00026080A128A1575230A128A117108A9
:100CAA0083120313B9007008B8003808A80039087D
:100CBA00A900AA01AB012808B407290803110318DF
:100CCA00013E0319692EB5072A0803110318013ECC
:100CDA000319702EB6072B0803110318013E0319D6
:100CEA00772EB7072208A8002808F00025080A125C
:100CFA008A1575230A128A11710883120313B9001F
:100D0A007008B8003808A8003908A900AA01AB0180
:100D1A002808B407290803110318013E0319962E5F
:100D2A00B5072A0803110318013E03199D2EB607B9
:100D3A002B0803110318013E0319A42EB707220832
:100D4A00A8002808F00026080A128A1575230A1234
:100D5A008A11710883120313B9007008B8003808A1
:100D6A00A8003908A900AA01AB0108300310A80D90
:100D7A00A90DAA0DAB0DFF3E031DBB2E2808B40713
:100D8A00290803110318013E0319CC2EB5072A08B6
:100D9A0003110318013E0319D32EB6072B080311BA
:100DAA000318013E0319DA2EB7072E08A8002F08E8
:100DBA00A9003008AA003108AB0018300310AB0CA8
:100DCA00AA0CA90CA80CFF3E031DE32E2808B407A1
:100DDA00290803110318013E0319F42EB5072A083E
:100DEA0003110318013E0319FB2EB6072B08031142
:100DFA000318013E0319022FB7070830A800031091
:100E0A00AE0DAF0DB00DB10DA80B042F330832078C
:100E1A00A800A901A90D2808823EB80029080318CC
:100E2A00013EFF3EB900362F0130A8000310B40D71
:100E3A00B50DB60DB70DA80B1B2FB11F252F262FE9
:100E4A00272F34140130A8000310AE0DAF0DB00DDA
:100E5A00B10DA80B292FFF30B8070318B90AFF30C4
:100E6A00B907B61F392F3A2F192FB201B11F3E2FDA
:100E7A003F2F5B2FFF302E05A800FF302F05A9005A
:100E8A00FF303005AA007F303105AB002B082A0459
:100E9A00290428040319522F532F562FB201B20ADC
:100EAA005B2F341C592F5A2F5B2F532F32080319EB
:100EBA005F2F602F912F0130B407003003180130E3
:100ECA00B507003003180130B607003003180130A7
:100EDA00B707371C712F722F912F3408A8003508D5
:100EEA00A9003608AA003708AB000130AC002B0D68
:100EFA00AB0CAA0CA90CA80CAC0B7C2F2B08B700C6
:100F0A002A08B6002908B5002808B4000130B80735
:100F1A000318B90A0030B9073908803AFF0080304F
:100F2A007F02031D9A2FFF303802031C9D2F9E2F2C
:100F3A00A92F7F3083120313B7008030B600003028
:100F4A00B5000030B400DE2F831203133908803A4B
:100F5A00FF0080307F02031DB42F013038020318CE
:100F6A00B72FB82FC42F003083120313B7000030F5
:100F7A00B6000030B5000030B400AD01DE2F831298
:100F8A0003133808A8002808B300FF30B405FF305F
:100F9A00B5057F30B6050030B705331CD52FD62FDF
:100FAA00D72FB6173308A8000310280CA900290860
:100FBA00B7002D08A8002808B7043708A300360888
:100FCA00A2003508A1003408A00008008313583095
:100FDA0084006F300A128A1586220A128A11A030FA
:100FEA008400E8300A128A1586220A128A118301BD
:100FFA000A128A15EE2BFF1B0A2883137F18831700
:10100A000008840A0319FF0A080008308A00040845
:10101A00840A82070034413444344334203420346F
:10102A0043344F344E3454342E34203420344C3428
:10103A0055345A34003456342034203400342E3493
:02104A00003470
:10150C0064008001840A0406031900340406872A47
:10151C000A128A15A9220A128A158316031391142A
:10152C0008000A128A15A9220A128A1583160313B7
:10153C00111408000A128A15A9220A128A15831698
:10154C00031311150800831603131419AE2AAF2ABE
:10155C00A92A11081F39031DB42AB52AA92A080083
:10156C008312031388174E30F100EB30F000F00BB0
:10157C00BD2AF10BBD2A8312031388130800F20055
:10158C000A128A159C230A128A15720883120313F5
:10159C008600881208130A128A15B6220A128A15B6
:1015AC000800F2000A128A159C230A128A15720886
:1015BC00831203138600881608130A128A15B622A2
:1015CC000A128A15080038300A128A15C5220A1226
:1015DC008A150C300A128A15C5220A128A15013096
:1015EC000A128A15C5220A128A1506300A128A15A1
:1015FC00C5220A128A1580300A128A15C5220A12CF
:10160C008A150800F2007208F1007108F300162B1D
:10161C000130F1007108F3070130F1007108F00797
:10162C00700884000A128A150A200A128A15F10021
:10163C00730884007108831380000008031D272B96
:10164C00282B0E2B080083120313A900A51F2F2B88
:10165C00302B402B2D30FD00290884007D0883138E
:10166C0080000130FD007D08A907A409A509A40A82
:10167C000319A50A2508F9002408F8002708FB001F
:10168C002608FA0029080A128A110F200A128A1554
:10169C000800642B7408FF00730884000A128A1572
:1016AC0000200A128A150A128A15D7220A128A15E4
:1016BC000130F3070318F40A0030F407740883129E
:1016CC000313FF00730884000A128A1500200A1203
:1016DC008A15003A031D732B742B502B0800F8004D
:1016EC00F401F5017008F200F3017208F6007308BA
:1016FC00F700781C822B832B892B7608F4070318B0
:10170C00F50A7708F50701300310F60DF70DFF3ECB
:10171C00031D8A2B0310F80C7808031D962B972BAE
:10172C007F2B7508F1007408F0000800FF3083125D
:10173C00031386008030F0007008860588120817A5
:10174C0088134E30F100EB30F000F00BAB2BF10BAB
:10175C00AB2B83120313881780300606031DB72B9F
:10176C00B82BC42B88134E30F100EB30F000F00B8B
:10177C00BD2BF10BBD2B8312031388170800F3004C
:10178C007308F1007108F200CF2B0130F1007108E1
:10179C00F2077208840083130008031DD62BD72B85
:1017AC00CB2BE02B0130F1007108F2070130F10076
:1017BC007108F007700884000008F10072088400BA
:1017CC00710880000008031DEC2BED2BD82B0800B2
:1017DC00831603138501860118308700880189015F
:1017EC00831203138501860187018801890100306A
:1017FC00A3000130A2008630A100A030A0000A1284
:10180C008A1545240A128A150A128A15E9220A1227
:10181C008A150A128A11B7210A128A150A128A111C
:10182C0000280A128A15A9220A128A158316031394
:10183C0091150A128A15A9220A128A15831203130A
:10184C001308F200F3017208F4007308F5000A1291
:10185C008A15A9220A128A1570037104031D372CEC
:10186C00382C3C2C8316031391123F2C8316031334
:10187C00911611167508F1007408F0000800283054
:10188C008312031394008316031391018312031321
:10189C002008A4002108A5002208A6002308A70000
:1018AC0002300310A40DA50DA60DA70DFF3E031DC0
:1018BC00572C2708F3002608F2002508F10024080D
:1018CC00F0000030F7007A30F6001230F5000030EE
:1018DC00F4000A128A1556250A128A157008FF3E62
:1018EC0083160313930094018715071608007008DC
:1018FC0071040319822C832CB22CF501F50A912C5E
:10190C0001300310F00DF10DFF3E031D872C01304B
:10191C00F4007408F507F11F942C952C862C710893
:10192C007302031D9B2C70087202031C9E2C9F2CAF
:10193C00A52C7008F2027108031CF303F3020130AA
:10194C000310F10CF00CFF3E031DA62C0130F50228
:10195C00031DB12CB22C952C7308F1007208F00009
:10196C000800F501F601700871040319BE2CBF2C98
:10197C00F62CF701F70ACD2C01300310F00DF10D08
:10198C00FF3E031DC32C0130F4007408F707F11F50
:10199C00D02CD12CC22C01300310F50DF60DFF3ECE
:1019AC00031DD22C71087302031DDE2C7008720209
:1019BC00031CE12CE22CE92C7008F2027108031CC8
:1019CC00F303F302751401300310F10CF00CFF3E1D
:1019DC00031DEA2C0130F702031DF52CF62CD12C3B
:1019EC007608F1007508F000080083120313A101BA
:1019FC00FC1F012D022D092DFB09FC09FB0A031903
:101A0C00FC0AA101A10AFA1F0C2D0D2D122DF909AA
:101A1C00FA09F90A0319FA0A79087A040319172D35
:101A2C00182D472DA001A00A262D01300310F90D09
:101A3C00FA0DFF3E031D1C2D0130FD007D08A00793
:101A4C00FA1F292D2A2D1B2D7A087C02031D302DFF
:101A5C0079087B02031C332D342D3A2D7908FB02B7
:101A6C007A08031CFC03FC0201300310FA0CF90C7D
:101A7C00FF3E031D3B2D0130A002031D462D472DBB
:101A8C002A2D210803194B2D4C2D512DFB09FC0936
:101A9C00FB0A0319FC0A7C08FA007B08F900080011
:101AAC000030FC000030FB000030FA000030F90080
:101ABC0073087204710470040319652D662DB32D1F
:101ACC00FD01FD0A762D0130F8000310F00DF10D2B
:101ADC00F20DF30DF80B6B2D0130F8007808FD07B3
:101AEC00F31F792D7A2D692D0130F8000310F90DB3
:101AFC00FA0DFB0DFC0DF80B7C2D73087702031D02
:101B0C00912D72087602031D912D71087502031D2B
:101B1C00912D70087402031C942D952DA42D700822
:101B2C00F4027108031C710FF5027208031C720F8A
:101B3C00F6027308031C730FF702791401300310BB
:101B4C00F30CF20CF10CF00CFF3E031DA52D013033
:101B5C00FD02031DB22DB32D7A2D7C08F3007B08FA
:101B6C00F2007A08F1007908F0000800F601F11F84
:101B7C00C02DC12DC82DF009F109F00A0319F10A85
:101B8C00F601F60AF31FCB2DCC2DD52DF209F30956
:101B9C00F20A0319F30A0130F4007408F606F7018F
:101BAC00F801700871040319DC2DDD2D142EF501DC
:101BBC00F50AEB2D01300310F00DF10DFF3E031D66
:101BCC00E12D0130F4007408F507F11FEE2DEF2D17
:101BDC00E02D01300310F70DF80DFF3E031DF02D25
:101BEC0071087302031DFC2D70087202031CFF2D7B
:101BFC00002E072E7008F2027108031CF303F30287
:101C0C00771401300310F10CF00CFF3E031D082E6D
:101C1C000130F502031D132E142EEF2D7608031937
:101C2C00182E192E1E2EF709F809F70A0319F80AAF
:101C3C007808F1007708F0000800831203134108BC
:101C4C008039C2004208CB004108C2004207C300E1
:101C5C004308D200C01F332E342E352E5214520896
:101C6C000319392E3A2E4A2E520A031D3E2E3F2EB0
:101C7C00472E0030C1000030C0000030BF000030E3
:101C8C00BE00C017C101522E0030C1000030C00090
:101C9C000030BF000030BE003D088039C200420851
:101CAC00CB063D08C2004207C3004308D300BC1F4B
:101CBC00602E612E622E531453080319662E672E64
:101CCC00772E530A031D6B2E6C2E742E0030BD0024
:101CDC000030BC000030BB000030BA00BC17BD01A6
:101CEC007F2E0030BD000030BC000030BB00003047
:101CFC00BA003D083C043B043A04031D862E872E93
:101D0C00A02E0030C1000030C0000030BF000030F9
:101D1C00BE008030C0047F30C1044B08C2004208B2
:101D2C00C1044108BD004008BC003F08BB003E0890
:101D3C00BA00FF2F5208031DA42EA52EAE2E003084
:101D4C00BD000030BC000030BB000030BA00FF2FDB
:101D5C005208C200C3014308C50053084202C40024
:101D6C00031CC50344087F3ECC0045080318013E04
:101D7C00003ECD004108CA004008C9003F08C80019
:101D8C003E08C7000030C1000030C0000030BF006A
:101D9C000030BE000030D1000030D0000030CF0049
:101DAC000030CE00D301242F53080319DE2EDF2E72
:101DBC00FF2E0130C2000310C70DC80DC90DCA0D8E
:101DCC00C20BE12E0130C2000310BE0DBF0DC00DC1
:101DDC00C10DC20BEA2ED11FF42EF52EF62E3E1499
:101DEC000130C2000310CE0DCF0DD00DD10DC20BA2
:101DFC00F82E3D084A02031D0D2F3C084902031D15
:101E0C000D2F3B084802031D0D2F3A084702031CF7
:101E1C00102F112F202F51173A08C7023B08031C13
:101E2C003B0FC8023C08031C3C0FC9023D08031CB5
:101E3C003D0FCA020130C2004208D3071A305302C8
:101E4C00031C292F2A2FDA2E4A0849044804470478
:101E5C000319312F322F512F4E14512F0130C20044
:101E6C000310BE0DBF0DC00DC10DC20B362FD11FFF
:101E7C00402F412F422F3E140130C2000310CE0DD3
:101E8C00CF0DD00DD10DC20B442FFF30CC07031852
:101E9C00CD0AFF30CD07C01F542F552F342FD3013F
:101EAC00D11F592F5A2F762FFF304E05C200FF300D
:101EBC004F05C300FF305005C4007F305105C500ED
:101ECC00450844044304420403196D2F6E2F712FEF
:101EDC00D301D30A762F3E1C742F752F762F6E2FBD
:101EEC00530803197A2F7B2FAC2F0130BE0700301B
:101EFC0003180130BF07003003180130C007003051
:101F0C0003180130C107411C8C2F8D2FAC2F3E08BC
:101F1C00C2003F08C3004008C4004108C50001309E
:101F2C00C600450DC50CC40CC30CC20CC60B972FB8
:101F3C004508C1004408C0004308BF004208BE0069
:101F4C000130CC070318CD0A0030CD074D08803A7C
:101F5C00FF0080307F02031DB52FFF304C02031CA5
:101F6C00B82FB92FC72FFF3083120313CC000030CA
:101F7C00CD000030C1000030C0000030BF00003088
:101F8C00BE00831203134D08803AFF0080307F029D
:101F9C00031DD22F01304C020318D52FD62FE32F5F
:101FAC0083120313CC01CD010030C1000030C000FE
:101FBC000030BF000030BE00CB01831203134C086D
:101FCC00C2004208D200521CEC2FED2FEF2FC0178D
:101FDC00F32F7F30C2004208C0055208C200031024
:101FEC00420CC3004308C1004B08C2004208C104A4
:041FFC00972E080014
:04400E00D2E0FFFFFE
:00000001FF
