:020000040000FA
:060000000A128A11E22F32
:100008008312031388174E30F100EB30F000F00B29
:100018000B28F10B0B288312031388130800F50132
:10002800F6017008710403191A281B285228F701D1
:10003800F70A292801300310F00DF10DFF3E031DCA
:100048001F280130F4007408F707F11F2C282D2809
:100058001E2801300310F50DF60DFF3E031D2E2856
:1000680071087302031D3A2870087202031C3D28A8
:100078003E2845287008F2027108031CF303F302B6
:10008800751401300310F10CF00CFF3E031D4628D7
:100098000130F702031D512852282D287608F10057
:1000A8007508F0000800F800780803195C285D2836
:1000B8007128F31F6028612871287009FA007109F6
:1000C800FB007209FC007309FD00FA0A0319FB0A18
:1000D8000319FC0A0319FD0A79287308FD00720840
:1000E800FC007108FB007008FA00730872047104C0
:1000F8007004031D802881288A280030F30000300E
:10010800F2000030F1000030F00010299630F400C1
:100118007408F9009C280130F4007408F9070130CC
:100128000310FD0CFC0CFB0CFA0CFF3E031D94287D
:10013800FE307D05031DA128A2288F28BE28013086
:10014800F4007408F9070130FA0700300318013089
:10015800FB07003003180130FC070030031801309A
:10016800FD0701300310FD0CFC0CFB0CFA0CFF3EE4
:10017800031DB628FF307D05031DC328C428A32806
:10018800D0280130F9020130F4000310FA0DFB0DFC
:10019800FC0DFD0DF40BC928FC1BD328D428DA2844
:1001A800023079020318D928DA28C5287918DD28F9
:1001B800DE28E628FF30FA05FF30FB057F30FC0516
:1001C800FF30FD050310F90C7908F400F501F6017C
:1001D800F70118300310F40DF50DF60DF70DFF3E7D
:1001E800031DEE287408FA047508FB047608FC045D
:1001F8007708FD0478080319022903290829F31F41
:10020800062907290829FD177D08F3007C08F20054
:100218007B08F1007A08F000080083120313230812
:100228008039A8002808AD002308A8002807A900DD
:100238002908B300A21F21292229232933143308AE
:100248000319272928293729330A031D2C292D2981
:1002580035290030A3000030A2000030A100003092
:10026800A000A2173F290030A3000030A2000030F0
:10027800A1000030A00027088039A8002808AD0692
:100288002708A8002807A9002908B200A61F4D2999
:100298004E294F2932143208031953295429632946
:1002A800320A031D5829592961290030A700003056
:1002B800A6000030A5000030A400A6176B29003066
:1002C800A7000030A6000030A5000030A4003208C6
:1002D80003196F29702975293308031D7429752995
:1002E8007E290030A3000030A2000030A1000030B9
:1002F800A000712C2008A8002808F00026080A127F
:100308008A15BC210A128A11710883120313B900D5
:100318007008B8003808A800A901AA01AB012B0889
:10032800B1002A08B0002908AF002808AE00390833
:10033800A800A901AA01AB012B08B7002A08B6003A
:100348002908B5002808B4002108A8002808F000EA
:1003580025080A128A15BC210A128A11710883120B
:100368000313B9007008B8003808A800A901AA0149
:10037800AB012808AE07290803110318013E031929
:10038800C629AF072A0803110318013E0319CD290E
:10039800B0072B0803110318013E0319D429B1072C
:1003A8003908A800A901AA01AB012808B40729083F
:1003B80003110318013E0319E229B5072A0803119E
:1003C8000318013E0319E929B6072B08031103187E
:1003D800013E0319F029B7072208A8002808F000F1
:1003E80024080A128A15BC210A128A11710883127C
:1003F8000313B9007008B8003808A800A901AA01B9
:10040800AB012808AE07290803110318013E031998
:100418000E2AAF072A0803110318013E0319152AEB
:10042800B0072B0803110318013E03191C2AB10752
:100438003908A800A901AA01AB012808B4072908AE
:1004480003110318013E03192A2AB5072A080311C4
:100458000318013E0319312AB6072B0803110318A4
:10046800013E0319382AB7070830A8000310AE0D5B
:10047800AF0DB00DB10DA80B3A2A2108A800280825
:10048800F00024080A128A15BC210A128A11710880
:1004980083120313B9007008B8003808A800390897
:1004A800A900AA01AB012808AE07290803110318FF
:1004B800013E0319602AAF072A0803110318013EF9
:1004C8000319672AB0072B0803110318013E031903
:1004D8006E2AB1072008A8002808F00025080A128B
:1004E8008A15BC210A128A11710883120313B900F4
:1004F8007008B8003808A8003908A900AA01AB019B
:100508002808AE07290803110318013E03198D2A8C
:10051800AF072A0803110318013E0319942AB007EC
:100528002B0803110318013E03199B2AB107083051
:10053800A8000310AE0DAF0DB00DB10DA80B9D2A8C
:100548002008A8002808F00024080A128A15BC21EF
:100558000A128A11710883120313B9007008B800CF
:100568003808A8003908A900AA01AB012808AE0775
:10057800290803110318013E0319C32AAF072A08E3
:1005880003110318013E0319CA2AB0072B080311E7
:100598000318013E0319D12AB1072108A800280829
:1005A800F00026080A128A15BC210A128A1171085D
:1005B80083120313B9007008B8003808A800390876
:1005C800A900AA01AB012808B407290803110318D8
:1005D800013E0319F02AB5072A0803110318013E42
:1005E8000319F72AB6072B0803110318013E03194C
:1005F800FE2AB7072208A8002808F00025080A12D2
:100608008A15BC210A128A11710883120313B900D2
:100618007008B8003808A8003908A900AA01AB0179
:100628002808B407290803110318013E03191D2BD4
:10063800B5072A0803110318013E0319242BB6072E
:100648002B0803110318013E03192B2BB7072208A7
:10065800A8002808F00026080A128A15BC210A12E8
:100668008A11710883120313B9007008B80038089A
:10067800A8003908A900AA01AB0108300310A80D89
:10068800A90DAA0DAB0DFF3E031D422B2808B40788
:10069800290803110318013E0319532BB5072A082B
:1006A80003110318013E03195A2BB6072B0803112F
:1006B8000318013E0319612BB7072E08A8002F085D
:1006C800A9003008AA003108AB0018300310AB0CA1
:1006D800AA0CA90CA80CFF3E031D6A2B2808B40716
:1006E800290803110318013E03197B2BB5072A08B3
:1006F80003110318013E0319822BB6072B080311B7
:100708000318013E0319892BB7070830A800031006
:10071800AE0DAF0DB00DB10DA80B8B2B3308320702
:10072800A800A901A90D2808823EB80029080318C5
:10073800013EFF3EB900BD2B0130A8000310B40DE7
:10074800B50DB60DB70DA80BA22BB11FAC2BAD2B59
:10075800AE2B34140130A8000310AE0DAF0DB00D50
:10076800B10DA80BB02BFF30B8070318B90AFF303A
:10077800B907B61FC02BC12BA02BB201B11FC52BC7
:10078800C62BE22BFF302E05A800FF302F05A9004D
:10079800FF303005AA007F303105AB002B082A0452
:1007A800290428040319D92BDA2BDD2BB201B20A4C
:1007B800E22B341CE02BE12BE22BDA2B3208031955
:1007C800E62BE72B182C0130B40700300318013052
:1007D800B507003003180130B607003003180130A0
:1007E800B707371CF82BF92B182C3408A800350844
:1007F800A9003608AA003708AB000130AC002B0D61
:10080800AB0CAA0CA90CA80CAC0B032C2B08B7003A
:100818002A08B6002908B5002808B4000130B8072E
:100828000318B90A0030B9073908803AFF00803048
:100838007F02031D212CFF303802031C242C252C99
:10084800302C7F3083120313B7008030B60000309D
:10085800B5000030B400652C831203133908803AC0
:10086800FF0080307F02031D3B2C01303802031843
:100878003E2C3F2C4B2C003083120313B700003062
:10088800B6000030B5000030B400AD01652C83120D
:1008980003133808A8002808B300FF30B405FF3058
:1008A800B5057F30B6050030B705331C5C2C5D2CD0
:1008B8005E2CB6173308A8000310280CA9002908D5
:1008C800B7002D08A8002808B7043708A300360881
:1008D800A2003508A1003408A00008000130F30088
:1008E8008030F4000A128A1596210A128A110A1217
:1008F8008A15D7200A128A113130F0000030F10031
:100908000A128A15E9200A128A110030F000F10053
:100918000A128A1535220A128A11700883120313E3
:10092800D4005408EF000A128A15E0200A128A112E
:10093800033083120313D6000830D5007630D40074
:10094800D40BA42CD50BA42CD60BA42C00000A3055
:10095800F0000030F100831203136D08D400D501B4
:100968005408F2005508F3000A128A1531240A12B5
:100978008A11710883120313EB007008EA006B08F0
:10098800A5006A08A4000A30A6000030A700EA30D3
:100998000A128A1570210A128A110A30F9000030E9
:1009A800FA00831203136D08D400D5015408FB0024
:1009B8005508FC000A128A150D230A128A117A08B2
:1009C80083120313E9007908E8006908A50068089C
:1009D800A4000A30A6000030A700E5300A128A15E4
:1009E80070210A128A11E53083120313D4005408C7
:1009F800F000EA300A128A150C220A128A110A1229
:100A08008A15D7200A128A113130F0000030F1001F
:100A18000A128A15E9200A128A110030F000F10042
:100A28000A128A1535220A128A11700883120313D2
:100A3800D4005408EC000A128A15E0200A128A1120
:100A4800033083120313D6000830D5007630D40063
:100A5800D40B2C2DD50B2C2DD60B2C2D00000A30A9
:100A6800F0000030F100831203136C08D400D501A4
:100A78005408F2005508F3000A128A1531240A12A4
:100A88008A11710883120313E5007008E4006508F1
:100A9800A5006408A4000A30A6000030A700BD30F5
:100AA8000A128A1570210A128A110A30F9000030D8
:100AB800FA00831203136C08D400D5015408FB0014
:100AC8005508FC000A128A150D230A128A117A08A1
:100AD80083120313E7007908E6006708A500660893
:100AE800A4000A30A6000030A700C2300A128A15F6
:100AF80070210A128A11C23083120313D4005408D9
:100B0800F000BD300A128A150C220A128A110A1244
:100B18008A15D7200A128A111130F0000030F1002E
:100B28000A128A15E9200A128A110030F000F10031
:100B38000A128A1535220A128A11700883120313C1
:100B4800D4005408EE000A128A15E0200A128A110D
:100B5800033083120313D6000830D5007630D40052
:100B6800D40BB42DD50BB42DD60BB42D00000A3000
:100B7800F0000030F100831203136E08D400D50191
:100B88005408F2005508F3000A128A1531240A1293
:100B98008A11710883120313E3007008E2006308E6
:100BA800A5006208A4000A30A6000030A700E030C3
:100BB8000A128A1570210A128A110A30F9000030C7
:100BC800FA00831203136E08D400D5015408FB0001
:100BD8005508FC000A128A150D230A128A117A0890
:100BE80083120313E1007908E0006108A50060089A
:100BF800A4000A30A6000030A700DB300A128A15CC
:100C080070210A128A11DB3083120313D4005408AE
:100C1800F000E0300A128A150C220A128A110A1210
:100C28008A15D7200A128A112130F0000030F1000D
:100C38000A128A15E9200A128A110030F000F10020
:100C48000A128A1535220A128A11700883120313B0
:100C5800D4005408ED000A128A15E0200A128A11FD
:100C6800033083120313D6000830D5007630D40041
:100C7800D40B3C2ED50B3C2ED60B3C2E000043301B
:100C880083120313BD007F30BC000030BB0000306E
:100C9800BA004030A300A030A2000030A10000300C
:100CA800A0006F08D400D501D601D7015708F3007A
:100CB8005608F2005508F1005408F00001300A12F5
:100CC8008A1157200A128A11730883120313A70086
:100CD8007208A6007108A5007008A4000A128A11FB
:100CE80011210A128A11831203132308C100220852
:100CF800C0002108BF002008BE000A128A1523265A
:100D08000A128A11831203133D0883160313AC00D9
:100D1800831203133C0883160313AB0083120313D7
:100D28003B0883160313AA00831203133A08831699
:100D38000313A9002C0883120313A70083160313B7
:100D48002B0883120313A600831603132A088312A1
:100D58000313A50083160313290883120313A400A1
:100D68004230A300C830A2000030A1000030A0002B
:100D78000A128A1111210A128A11831203132308F5
:100D8800BD002208BC002108BB002008BA000A12D6
:100D98008A150A250A128A11831203133B08DF00F9
:100DA8003A08DE000A30F9000030FA005F08FC005B
:100DB8005E08FB000A128A150D230A128A117A08A6
:100DC80083120313DD007908DC005D08A5005C08C8
:100DD800A4000A30A6000030A700D6300A128A15EF
:100DE80070210A128A110A30F9000030FA000A301C
:100DF800F0000030F100831203135F08F3005E086F
:100E0800F2000A128A1531240A128A117108FC00AC
:100E18007008FB000A128A150D230A128A117A0833
:100E280083120313DB007908DA005B08A5005A086F
:100E3800A4000A30A6000030A700D1300A128A1593
:100E480070210A128A110A30F9000030FA00643061
:100E5800F0000030F100831203135F08F3005E080E
:100E6800F2000A128A1531240A128A117108FC004C
:100E78007008FB000A128A150D230A128A117A08D3
:100E880083120313D9007908D8005908A500580817
:100E9800A4000A30A6000030A700CC300A128A1538
:100EA80070210A128A11D63083120313D400540811
:100EB800F000D1300A128A150C220A128A11123057
:100EC80083120313D4005408F000C7300A128A159D
:100ED8004F210A128A11D13083120313D400540807
:100EE800F000C7300A128A150C220A128A11C7307C
:100EF80083120313D4005408F000CC300A128A1568
:100F08000C220A128A11C0300A128A150C210A1200
:100F18008A11BD30F3000030F4000A128A159621B8
:100F28000A128A110F30F3008030F4000A128A1571
:100F380096210A128A11E030F3000030F4000A12F8
:100F48008A1596210A128A110F30F3008030F400B6
:100F58000A128A1596210A128A11EA30F300003023
:100F6800F4000A128A1596210A128A11CC300A1244
:100F78008A15F3200A128A110D3083120313D50043
:100F8800FB30D400D40BC62FD50BC62FE0300A1285
:100F98008A15F3200A128A110D3083120313D50023
:100FA800FB30D400D40BD62FD50BD62FEA300A123B
:100FB8008A15F3200A128A117B2C080083135830F3
:100FC800840070300A128A15CF200A128A11A030C4
:100FD8008400EF300A128A15CF200A128A1183176B
:100FE800903084009F300A128A15CF200A128A1185
:100FF80083010A128A159B2AFF1B0A2883137F186C
:1010080083170008840A0319FF0A080008308A00B9
:101018000408840A82070034543445344D3450346B
:10102800203443344F344E34543420344C34553403
:0E1038005A3400342034203400342E34003476
:10119E0064008001840A0406031900340406D02872
:1011AE000A128A15FF200A128A15831603131114C8
:1011BE0008000A128A15FF200A128A1583160313D5
:1011CE00111508000A128A15FF200A128A157008D6
:1011DE008312031393000800F00083160313981C68
:1011EE00F928FA28F42870088312031399000800CE
:1011FE0083160313141904290529FF2811081F3912
:10120E00031D0A290B29FF280800F2000A128A156D
:10121E00E3210A128A1572088312031386008812BC
:10122E0008130A128A1104200A128A150800F20005
:10123E000A128A15E3210A128A1572088312031301
:10124E008600881608130A128A1104200A128A15BB
:10125E00080038300A128A150C210A128A150C3031
:10126E000A128A150C210A128A1501300A128A15E1
:10127E000C210A128A1506300A128A150C210A123E
:10128E008A1580300A128A150C210A128A15080056
:10129E00F2007208F1007108F3005D290130F100CF
:1012AE007108F3070130F1007108F007700884002F
:1012BE000A128A150A200A128A15F1007308840090
:1012CE007108831380000008031D6E296F295529AC
:1012DE00080083120313A900A51F762977298729F1
:1012EE002D30FD00290884007D0883138000013015
:1012FE00FD007D08A907A409A509A40A0319A50ADA
:10130E002508F9002408F8002708FB002608FA0033
:10131E0029080A128A1598240A128A150800AB2980
:10132E007408FF00730884000A128A1500200A123E
:10133E008A150A128A151E210A128A150130F30720
:10134E000318F40A0030F407740883120313FF0025
:10135E00730884000A128A1500200A128A15003AB0
:10136E00031DBA29BB2997290800F800F401F501DD
:10137E007008F200F3017208F6007308F700781C8B
:10138E00C929CA29D0297608F4070318F50A77085F
:10139E00F50701300310F60DF70DFF3E031DD129A1
:1013AE000310F80C7808031DDD29DE29C6297508FF
:1013BE00F1007408F0000800FF308312031386005A
:1013CE008030F000700886058812081788134E309A
:1013DE00F100EB30F000F00BF229F10BF229831241
:1013EE000313881780300606031DFE29FF290B2ADA
:1013FE0088134E30F100EB30F000F00B042AF10BA5
:10140E00042A8312031388170800F3007308F100EF
:10141E007108F200162A0130F1007108F207720805
:10142E00840083130008031D1D2A1E2A122A272A50
:10143E000130F1007108F2070130F1007108F00778
:10144E00700884000008F1007208840071088000A2
:10145E000008031D332A342A1F2A08000A128A158F
:10146E00FF200A128A158316031391150A128A1584
:10147E00FF200A128A15831203131308F200F301D8
:10148E007208F4007308F5000A128A15FF200A127A
:10149E008A1570037104031D552A562A5A2A83167B
:1014AE00031391125D2A83160313911611167508F4
:1014BE00F1007408F0000800283083120313940022
:1014CE00831603139101831203132008A40021082D
:1014DE00A5002208A6002308A70002300310A40DC1
:1014EE00A50DA60DA70DFF3E031D752A2708F300B7
:1014FE002608F2002508F1002408F0000030F7005D
:10150E007A30F6001230F5000030F4000A128A1517
:10151E00CB230A128A157008FF3E8316031393001D
:10152E00940187150716080083160313850186019B
:10153E001830870088018901831203138501860103
:10154E008701880189010030A3000130A200863096
:10155E00A100A030A0000A128A1563220A128A1571
:10156E00003083120313A9000030A8002530A70015
:10157E008030A6000A128A1568230A128A150A12EA
:10158E008A1530210A128A150A128A1172240A1239
:10159E008A150A128A110028700871040319D82AB4
:1015AE00D92A082BF501F50AE72A01300310F00DB0
:1015BE00F10DFF3E031DDD2A0130F4007408F5071E
:1015CE00F11FEA2AEB2ADC2A71087302031DF12AA5
:1015DE0070087202031CF42AF52AFB2A7008F20224
:1015EE007108031CF303F30201300310F10CF00C2D
:1015FE00FF3E031DFC2A0130F502031D072B082BAD
:10160E00EB2A7308F1007208F0000800831203132E
:10161E00A101FC1F132B142B1B2BFB09FC09FB0A2E
:10162E000319FC0AA101A10AFA1F1E2B1F2B242B42
:10163E00F909FA09F90A0319FA0A79087A04031959
:10164E00292B2A2B592BA001A00A382B013003106D
:10165E00F90DFA0DFF3E031D2E2B0130FD007D0806
:10166E00A007FA1F3B2B3C2B2D2B7A087C02031D67
:10167E00422B79087B02031C452B462B4C2B7908F9
:10168E00FB027A08031CFC03FC0201300310FA0C67
:10169E00F90CFF3E031D4D2B0130A002031D582BEC
:1016AE00592B3C2B210803195D2B5E2B632BFB0959
:1016BE00FC09FB0A0319FC0A7C08FA007B08F900F6
:1016CE000800831203132608AA002708AB00280877
:1016DE00AC002908AD0004300310AA0DAB0DAC0D03
:1016EE00AD0DFF3E031D732B2D08F3002C08F200E9
:1016FE002B08F1002A08F0002608AE002708AF00DC
:10170E002808B0002908B10004300310AE0DAF0D4B
:10171E00B00DB10DFF3E031D8C2B0030B200123008
:10172E00B3007A30B4000030B5002E08B2022F0894
:10173E00031C2F0FA32BA42BB3023008031C300F56
:10174E00A92BAA2BB4023108031C310FAF2BB02BDF
:10175E00B5023508F7003408F6003308F5003208F4
:10176E00F4000A128A1586250A128A157008831645
:10177E0003139900181598161812181383120313D1
:10178E0018169817181308000030FC000030FB00E4
:10179E000030FA000030F90073087204710470040E
:1017AE000319DA2BDB2B282CFD01FD0AEB2B013064
:1017BE00F8000310F00DF10DF20DF30DF80BE02B08
:1017CE000130F8007808FD07F31FEE2BEF2BDE2B10
:1017DE000130F8000310F90DFA0DFB0DFC0DF80B9E
:1017EE00F12B73087702031D062C72087602031D77
:1017FE00062C71087502031D062C70087402031C5A
:10180E00092C0A2C192C7008F4027108031C710F94
:10181E00F5027208031C720FF6027308031C730F95
:10182E00F702791401300310F30CF20CF10CF00CEA
:10183E00FF3E031D1A2C0130FD02031D272C282C00
:10184E00EF2B7C08F3007B08F2007A08F100790890
:10185E00F0000800F601F11F352C362C3D2CF00956
:10186E00F109F00A0319F10AF601F60AF31F402CEA
:10187E00412C4A2CF209F309F20A0319F30A01303A
:10188E00F4007408F606F701F801700871040319E4
:10189E00512C522C892CF501F50A602C01300310C5
:1018AE00F00DF10DFF3E031D562C0130F4007408AF
:1018BE00F507F11F632C642C552C01300310F70D26
:1018CE00F80DFF3E031D652C71087302031D712C6C
:1018DE0070087202031C742C752C7C2C7008F2029A
:1018EE007108031CF303F302771401300310F10C9B
:1018FE00F00CFF3E031D7D2C0130F502031D882CDC
:10190E00892C642C760803198D2C8E2C932CF709B8
:10191E00F809F70A0319F80A7808F1007708F000B9
:10192E00080083120313A3007908A1007808A00011
:10193E007B08F1007A08F0002108F3002008F2007D
:10194E000A128A1113200A128A15710883120313C0
:10195E00A1007008A0000130FC007C08A30720083D
:10196E002104031DBB2CBC2C9F2C23088400831345
:10197E0080010130A3027B08F1007A08F00079089B
:10198E00F3007808F2000A128A15D3220A128A1579
:10199E007008FC007C0883120313A2007B08F10080
:1019AE007A08F0007908F3007808F2000A128A111A
:1019BE0013200A128A157108F9007008F8000A300F
:1019CE00831203132202031CED2CEE2CF22C073093
:1019DE00FC007C08A2073030FC007C08A20722081D
:1019EE00FC00230884007C08831380000130A302CE
:1019FE0078087904031D042D052DC22C0130FC003E
:101A0E007C08A30708000310831203133C0D3D0D41
:101A1E00BE003E08C4004408031D162D172D202DB0
:101A2E000030BD000030BC000030BB000030BA00FA
:101A3E00852D3A08BE003B08BF003C08C0003D089B
:101A4E00C1001F300310C10CC00CBF0CBE0CFF3EFA
:101A5E00031D292D3E08C2004208C300BC17FF30EB
:101A6E00BA05FF30BB05FF30BC050030BD05963012
:101A7E00C402C41F432D442D5E2D4408803A973E68
:101A8E0003184A2D4B2D4C2D172D01300310BD0C74
:101A9E00BC0CBB0CBA0CFF3E031D4D2D0130BE001D
:101AAE003E08C407031D5C2D5D2D4C2D752D203079
:101ABE004402031C632D642D702D172D0130BE00C2
:101ACE000310BA0DBB0DBC0DBD0DBE0B672D013045
:101ADE00C4024408031D742D752D652D430803198A
:101AEE00792D7A2D852DBA09BB09BC09BD09BA0A13
:101AFE000319BB0A0319BC0A0319BD0A0800831295
:101B0E000313A101F31F8C2D8D2D9A2DF009F109D0
:101B1E00F209F309F00A0319F10A0319F20A03197B
:101B2E00F30AA101A10AF71F9D2D9E2DAD2DF409DB
:101B3E00F509F609F709F40A0319F50A0319F60A65
:101B4E000319F70A0130F8007808A1060030A50045
:101B5E000030A4000030A3000030A200730872040D
:101B6E00710470040319BC2DBD2D0A2EA001A00A0C
:101B7E00CD2D0130F8000310F00DF10DF20DF30D27
:101B8E00F80BC22D0130F8007808A007F31FD02DF6
:101B9E00D12DC02D0130F8000310A20DA30DA40D00
:101BAE00A50DF80BD32D73087702031DE82D7208CF
:101BBE007602031DE82D71087502031DE82D7008CD
:101BCE007402031CEB2DEC2DFB2D7008F402710832
:101BDE00031C710FF5027208031C720FF6027308D4
:101BEE00031C730FF702221401300310F30CF20CD6
:101BFE00F10CF00CFF3E031DFC2D0130A002031D65
:101C0E00092E0A2ED12D210803190E2E0F2E1A2E53
:101C1E00A209A309A409A509A20A0319A30A031973
:101C2E00A40A0319A50A2508F3002408F2002308C4
:101C3E00F1002208F00008008312031341088039D6
:101C4E00C2004208CB004108C2004207C30043084D
:101C5E00D200C01F332E342E352E521452080319C3
:101C6E00392E3A2E4A2E520A031D3E2E3F2E472E55
:101C7E000030C1000030C0000030BF000030BE0098
:101C8E00C017C101522E0030C1000030C00000301C
:101C9E00BF000030BE003D088039C2004208CB06AE
:101CAE003D08C2004207C3004308D300BC1F602E8C
:101CBE00612E622E531453080319662E672E772E4B
:101CCE00530A031D6B2E6C2E742E0030BD00003097
:101CDE00BC000030BB000030BA00BC17BD017F2E27
:101CEE000030BD000030BC000030BB000030BA0038
:101CFE003D083C043B043A04031D862E872EA02E7D
:101D0E000030C1000030C0000030BF000030BE0007
:101D1E008030C0047F30C1044B08C2004208C104A9
:101D2E004108BD004008BC003F08BB003E08BA0099
:101D3E00FF2F5208031DA42EA52EAE2E0030BD007F
:101D4E000030BC000030BB000030BA00FF2F52083C
:101D5E00C200C3014308C50053084202C400031C5D
:101D6E00C50344087F3ECC0045080318013E003EE3
:101D7E00CD004108CA004008C9003F08C8003E080F
:101D8E00C7000030C1000030C0000030BF0000307E
:101D9E00BE000030D1000030D0000030CF00003047
:101DAE00CE00D301242F53080319DE2EDF2EFF2E73
:101DBE000130C2000310C70DC80DC90DCA0DC20BEC
:101DCE00E12E0130C2000310BE0DBF0DC00DC10DBE
:101DDE00C20BEA2ED11FF42EF52EF62E3E14013034
:101DEE00C2000310CE0DCF0DD00DD10DC20BF82EAB
:101DFE003D084A02031D0D2F3C084902031D0D2FFD
:101E0E003B084802031D0D2F3A084702031C102FF2
:101E1E00112F202F51173A08C7023B08031C3B0F06
:101E2E00C8023C08031C3C0FC9023D08031C3D0FB1
:101E3E00CA020130C2004208D3071A305302031CF3
:101E4E00292F2A2FDA2E4A08490448044704031979
:101E5E00312F322F512F4E14512F0130C20003104B
:101E6E00BE0DBF0DC00DC10DC20B362FD11F402FA1
:101E7E00412F422F3E140130C2000310CE0DCF0D64
:101E8E00D00DD10DC20B442FFF30CC070318CD0A55
:101E9E00FF30CD07C01F542F552F342FD301D11F24
:101EAE00592F5A2F762FFF304E05C200FF304F05A7
:101EBE00C300FF305005C4007F305105C5004508F2
:101ECE0044044304420403196D2F6E2F712FD30166
:101EDE00D30A762F3E1C742F752F762F6E2F530834
:101EEE0003197A2F7B2FAC2F0130BE070030031859
:101EFE000130BF07003003180130C007003003184F
:101F0E000130C107411C8C2F8D2FAC2F3E08C20013
:101F1E003F08C3004008C4004108C5000130C60098
:101F2E00450DC50CC40CC30CC20CC60B972F45082F
:101F3E00C1004408C0004308BF004208BE00013083
:101F4E00CC070318CD0A0030CD074D08803AFF00AC
:101F5E0080307F02031DB52FFF304C02031CB82FBB
:101F6E00B92FC72FFF3083120313CC000030CD00E2
:101F7E000030C1000030C0000030BF000030BE0095
:101F8E00831203134D08803AFF0080307F02031D39
:101F9E00D22F01304C020318D52FD62FE32F8312E8
:101FAE000313CC01CD010030C1000030C000003061
:101FBE00BF000030BE00CB01831203134C08C200D9
:101FCE004208D200521CEC2FED2FEF2FC017F32F2B
:101FDE007F30C2004208C0055208C2000310420CF6
:101FEE00C3004308C1004B08C2004208C104972E2B
:021FFE000800D9
:04400E00D2E0FFFFFE
:00000001FF
