:020000040000FA
:100000000A128A11E42FFF1B0D2883137F18831710
:100010000008840A0319FF0A080000308A00040857
:10002000840A82070034203446345534453452342F
:100030005A344134203455344C34543452344134DD
:100040002034203420340034543445344D3450347A
:10005000203443344134523452344F3453342034F6
:100060004C3455345A342034003420342034203475
:100070002034203420340034F2000A128A114E2039
:100080000A128A1172088312031386008816081355
:100090000A128A155F270A128A110800FF3083129C
:1000A000031386008030F000700886058812081758
:1000B00088134E30F100EB30F000F00B5D28F10BAF
:1000C0005D2883120313881780300606031D6928F4
:1000D0006A28762888134E30F100EB30F000F00BE0
:1000E0006F28F10B6F288312031388170800F200A2
:1000F0007208F1007108F30081280130F1007108E5
:10010000F3077308840083130008031D88288928D7
:100110007D2892280130F1007108F3070130F100C9
:100120007108F007700884000008F100730884006B
:10013000710880000008031D9E289F288A28080057
:100140000A128A1552270A128A118316031391156F
:100150000A128A1552270A128A11831203131308EE
:10016000F200F3017208F4007308F5000A128A1510
:1001700052270A128A1170037104031DC028C12876
:10018000C528831603139112C828831603139116EA
:1001900011167508F1007408F00008002830831269
:1001A000031394008316031391018312031354085D
:1001B000D8005508D9005608DA005708DB0002308D
:1001C0000310D80DD90DDA0DDB0DFF3E031DE0281D
:1001D0005B08F3005A08F2005908F1005808F000D3
:1001E0000030F7007A30F6001230F5000030F400ED
:1001F0000A128A1140220A128A117008FF3E8316E1
:100200000313930094018715071608007008710402
:1002100003190B290C293B29F501F50A1A2901308C
:100220000310F00DF10DFF3E031D10290130F40005
:100230007408F507F11F1D291E290F297108730283
:10024000031D242970087202031C272928292E293E
:100250007008F2027108031CF303F302013003106B
:10026000F10CF00CFF3E031D2F290130F502031D98
:100270003A293B291E297308F1007208F000080092
:10028000F501F601700871040319472948297F29EF
:10029000F701F70A562901300310F00DF10DFF3E6A
:1002A000031D4C290130F4007408F707F11F592988
:1002B0005A294B2901300310F50DF60DFF3E031DA1
:1002C0005B2971087302031D672970087202031C01
:1002D0006A296B2972297008F2027108031CF30362
:1002E000F302751401300310F10CF00CFF3E031DF6
:1002F00073290130F702031D7E297F295A297608C8
:10030000F1007508F0000800F601F31F882989291B
:100310009029F209F309F20A0319F30AF601F60A21
:10032000F11F932994299929F009F109F00A031979
:10033000F10A7008710403199E299F29CE29F5013D
:10034000F50AAD2901300310F00DF10DFF3E031D3C
:10035000A3290130F4007408F507F11FB029B12971
:10036000A22971087302031DB72970087202031CC9
:10037000BA29BB29C1297008F2027108031CF303D2
:10038000F30201300310F10CF00CFF3E031DC229F3
:100390000130F502031DCD29CE29B12976080319B4
:1003A000D229D329D829F209F309F20A0319F30A49
:1003B0007308F1007208F0000800831203135A0852
:1003C000DE005B08DF005C08E0005D08E10004304F
:1003D0000310DE0DDF0DE00DE10DFF3E031DE829EA
:1003E0006108F3006008F2005F08F1005E08F000A9
:1003F0005A08E2005B08E3005C08E4005D08E500E1
:1004000004300310E20DE30DE40DE50DFF3E031D86
:10041000012A0030E6001230E7007A30E8000030B0
:10042000E9006208E6026308031C630F182A192A10
:10043000E7026408031C640F1E2A1F2AE8026508ED
:10044000031C650F242A252AE9026908F7006808B9
:10045000F6006708F5006608F4000A128A117F2387
:100460000A128A117008831603139900181598163A
:10047000181218138312031318169817181308006C
:100480000030FC000030FB000030FA000030F900C2
:10049000730872047104700403194F2A502A9D2AAC
:1004A000FD01FD0A602A0130F8000310F00DF10D86
:1004B000F20DF30DF80B552A0130F8007808FD070E
:1004C000F31F632A642A532A0130F8000310F90D40
:1004D000FA0DFB0DFC0DF80B662A73087702031D5D
:1004E0007B2A72087602031D7B2A71087502031DA0
:1004F0007B2A70087402031C7E2A7F2A8E2A7008C9
:10050000F4027108031C710FF5027208031C720FCC
:10051000F6027308031C730FF702791401300310FD
:10052000F30CF20CF10CF00CFF3E031D8F2A01308E
:10053000FD02031D9C2A9D2A642A7C08F3007B0887
:10054000F2007A08F1007908F0000800F601F11FC6
:10055000AA2AAB2AB22AF009F109F00A0319F10A12
:10056000F601F60AF31FB52AB62ABF2AF209F309E3
:10057000F20A0319F30A0130F4007408F606F701D1
:10058000F801700871040319C62AC72AFE2AF5016A
:10059000F50AD52A01300310F00DF10DFF3E031DC1
:1005A000CB2A0130F4007408F507F11FD82AD92AA4
:1005B000CA2A01300310F70DF80DFF3E031DDA2A99
:1005C00071087302031DE62A70087202031CE92AEF
:1005D000EA2AF12A7008F2027108031CF303F302FD
:1005E000771401300310F10CF00CFF3E031DF22ACA
:1005F0000130F502031DFD2AFE2AD92A76080319C7
:10060000022B032B082BF709F809F70A0319F80A3C
:100610007808F1007708F000080083120313D70070
:100620007908D5007808D4007B08F1007A08F0003A
:100630005508F3005408F2000A128A1140210A12E8
:100640008A11710883120313D5007008D400013099
:10065000FC007C08D70754085504031D302B312BB0
:10066000142B57088400831380010130D7027B08C4
:10067000F1007A08F0007908F3007808F2000A1215
:100680008A1106210A128A117008FC007C08831264
:100690000313D6007B08F1007A08F0007908F30014
:1006A0007808F2000A128A1140210A128A11710890
:1006B000F9007008F8000A30831203135602031C75
:1006C000622B632B672B0730FC007C08D607303089
:1006D000FC007C08D6075608FC00570884007C08FC
:1006E000831380000130D70278087904031D792B29
:1006F0007A2B372B0130FC007C08D70708008312C7
:100700000313D501F31F852B862B932BF009F109D9
:10071000F209F309F00A0319F10A0319F20A03199D
:10072000F30AD501D50AF71F962B972BA62BF409B0
:10073000F509F609F709F40A0319F50A0319F60A87
:100740000319F70A0130F8007808D5060030D900FF
:100750000030D8000030D7000030D6007308720493
:10076000710470040319B52BB62B032CD401D40AE1
:10077000C62B0130F8000310F00DF10DF20DF30D52
:10078000F80BBB2B0130F8007808D407F31FC92BF6
:10079000CA2BB92B0130F8000310D60DD70DD80D98
:1007A000D90DF80BCC2B73087702031DE12B7208CF
:1007B0007602031DE12B71087502031DE12B700801
:1007C0007402031CE42BE52BF42B7008F40271086F
:1007D000031C710FF5027208031C720FF6027308F6
:1007E000031C730FF702561401300310F30CF20CC4
:1007F000F10CF00CFF3E031DF52B0130D402031D5C
:10080000022C032CCA2B55080319072C082C132C77
:10081000D609D709D809D909D60A0319D70A03195D
:10082000D80A0319D90A5908F3005808F2005708E2
:10083000F1005608F00008000A128A1580270A12F3
:100840008A11003083120313D7000130D60086309E
:10085000D500A030D4000A128A11CE200A128A11C3
:100860000A128A1595270A128A110030831203137F
:10087000DD000030DC002530DB008030DA000A12B9
:100880008A11DD210A128A110A128A152A270A12F0
:100890008A113130F0000030F1000A128A153C272D
:1008A0000A128A110030F000F1000A128A11A02009
:1008B0000A128A11700883120313EA006A08CC0036
:1008C0000A128A1533270A128A110330831203137E
:1008D000EC000830EB007630EA00EA0B6D2CEB0BF5
:1008E0006D2CEC0B6D2C00000A30F0000030F10094
:1008F000831203134C08EA00EB016A08F2006B084C
:10090000F3000A128A11A6220A128A1171088312B0
:100910000313C7007008C6004708D9004608D8006E
:100920000A30DA000030DB004F300A128A15B42793
:100930000A128A110A30F0000030F100831203130A
:100940004C08EA00EB016A08F2006B08F3000A1297
:100950008A1184210A128A11710883120313C500B7
:100960007008C4004508D9004408D8000A30DA00ED
:100970000030DB00E9300A128A15B4270A128A1106
:10098000E93083120313EA006A08F0004F300A12BC
:100990008A1177200A128A110A128A152A270A1246
:1009A0008A113130F0000030F1000A128A153C271C
:1009B0000A128A110030F000F1000A128A11A020F8
:1009C0000A128A11700883120313EA006A08CA0027
:1009D0000A128A1533270A128A110330831203136D
:1009E000EC000830EB007630EA00EA0BF52CEB0B5C
:1009F000F52CEC0BF52C0000831203134A080A12A5
:100A00008A1546270A128A110A30F0000030F100D8
:100A1000831203134A08EA00EB016A08F2006B082C
:100A2000F3000A128A11A6220A128A11710883128F
:100A30000313C1007008C0004108D9004008D80065
:100A40000A30DA000030DB00C1300A128A15B42700
:100A50000A128A110A30F0000030F10083120313E9
:100A60004A08EA00EB016A08F2006B08F3000A1278
:100A70008A1184210A128A11710883120313C30098
:100A80007008C2004308D9004208D8000A30DA00D2
:100A90000030DB00C6300A128A15B4270A128A1108
:100AA000C63083120313EA006A08F000C1300A124C
:100AB0008A1177200A128A110A128A152A270A1225
:100AC0008A111130F0000030F1000A128A153C271B
:100AD0000A128A110030F000F1000A128A11A020D7
:100AE0000A128A11700883120313EA006A08CD0003
:100AF0000A128A1533270A128A110330831203134C
:100B0000EC000830EB007630EA00EA0B852DEB0BA9
:100B1000852DEC0B852D0000831203134D080A125E
:100B20008A1546270A128A110A30F0000030F100B7
:100B3000831203134D08EA00EB016A08F2006B0808
:100B4000F3000A128A11A6220A128A11710883126E
:100B50000313B3007008B2003308D9003208D8007C
:100B60000A30DA000030DB00DA300A128A15B427C6
:100B70000A128A110A30F0000030F10083120313C8
:100B80004D08EA00EB016A08F2006B08F3000A1254
:100B90008A1184210A128A11710883120313AF008B
:100BA0007008AE002F08D9002E08D8000A30DA00ED
:100BB0000030DB00D5300A128A15B4270A128A11D8
:100BC0000A128A152A270A128A112130F0000030F1
:100BD000F1000A128A153C270A128A110030F0002F
:100BE000F1000A128A11A0200A128A1170088312D9
:100BF0000313EA006A08CE000A128A1533270A1284
:100C00008A11033083120313EC000830EB007630B6
:100C1000EA00EA0B092EEB0B092EEC0B092E000063
:100C2000831203134E080A128A1546270A128A11E4
:100C30000A30F0000030F100831203134E08EA007E
:100C4000EB016A08F2006B08F3000A128A11A6226F
:100C50000A128A11710883120313AB007008AA00EC
:100C60002B08D9002A08D8000A30DA000030DB004F
:100C7000D0300A128A15B4270A128A110A30F000FD
:100C80000030F100831203134E08EA00EB016A08FA
:100C9000F2006B08F3000A128A1184210A128A11E9
:100CA000710883120313BB007008BA003B08D90017
:100CB0003A08D8000A30DA000030DB00CB300A12E4
:100CC0008A15B4270A128A11CB3083120313EA0063
:100CD0006A08F000D0300A128A1177200A128A11AD
:100CE0000A128A152A270A128A112130F0000030D0
:100CF000F1000A128A153C270A128A110030F0000E
:100D0000F1000A128A11A0200A128A1170088312B7
:100D10000313EA006A08CB000A128A1533270A1265
:100D20008A11033083120313EC000830EB00763095
:100D3000EA00EA0B992EEB0B992EEC0B992E000092
:100D4000831203134B080A128A1546270A128A11C6
:100D50000A30F0000030F100831203134B08EA0060
:100D6000EB016A08F2006B08F3000A128A11A6224E
:100D70000A128A11710883120313B1007008B000BF
:100D80003108D9003008D8000A30DA000030DB0022
:100D9000E4300A128A15B4270A128A110A30F000C8
:100DA0000030F100831203134B08EA00EB016A08DC
:100DB000F2006B08F3000A128A1184210A128A11C8
:100DC000710883120313AD007008AC002D08D90020
:100DD0002C08D8000A30DA000030DB00DF300A12BD
:100DE0008A15B4270A128A11831203130518F92EE3
:100DF000FA2E5C2F4903031DFE2EFF2E082F013013
:100E00000A128A156E270A128A1183120313C90166
:100E100080300A128A156E270A128A111230F300E6
:100E20008030F4000A128A15DA270A128A11C030BB
:100E30000A128A156E270A128A112830F3008030B0
:100E4000F4000A128A15DA270A128A11C130F30057
:100E50000030F4000A128A15DA270A128A112530A6
:100E6000F3008030F4000A128A15DA270A128A1178
:100E7000D530F3000030F4000A128A15DA270A127E
:100E80008A112530F3008030F4000A128A15DA271F
:100E90000A128A114F30F3000030F4000A128A154A
:100EA000DA270A128A112830F3008030F4000A127F
:100EB0008A15DA270A128A1183120313051C612F7F
:100EC000622FB32F4908031D662F672F712F013042
:100ED0000A128A156E270A128A1183120313C90196
:100EE000C90A80300A128A156E270A128A11013047
:100EF000F3008030F4000A128A15DA270A128A11E8
:100F0000C0300A128A156E270A128A112730F300A0
:100F10008030F4000A128A15DA270A128A11D030BA
:100F2000F3000030F4000A128A15DA270A128A1137
:100F30002430F3008030F4000A128A15DA270A12EE
:100F40008A11DF30F3000030F4000A128A15DA2724
:100F50000A128A112330F3008030F4000A128A1535
:100F6000DA270A128A11C1300A128A1546270A1294
:100F70008A11D5300A128A1546270A128A114F3073
:100F80000A128A1546270A128A11D0300A128A15C7
:100F900046270A128A11DF300A128A1546270A12DA
:100FA0008A11023083120313EC000430EB00B930D5
:100FB000EA00EA0BD92FEB0BD92FEC0BD92FE02F3E
:100FC000442C0A128A1100288313203084005430E4
:100FD0000A128A1522270A128A11A0308400EE30E4
:100FE0000A128A1522270A128A1183160317900102
:100FF000910192019301940183010A128A111C2C20
:101E440064008001840A0406031900340406232F65
:101E54000A128A1552270A128A15831603131114BB
:101E640008000A128A1552270A128A1583160313C8
:101E7400111508000A128A1552270A128A157008C9
:101E84008312031393000800F00083160313981CB5
:101E94004C2F4D2F472F700883120313990008000D
:101EA400831603131419572F582F522F11081F3953
:101EB400031D5D2F5E2F522F080083120313881712
:101EC4004E30F100EB30F000F00B662FF10B662F73
:101ED4008312031388130800F2000A128A114E2099
:101EE4000A128A15720883120313860088120813D3
:101EF4000A128A155F270A128A1508000130831610
:101F04000313850086011830870088018901831630
:101F14000317880189018312031385018601870150
:101F240088018901080038300A128A156E270A12BE
:101F34008A150C300A128A156E270A128A15013086
:101F44000A128A156E270A128A1506300A128A1591
:101F54006E270A128A1580300A128A156E270A1211
:101F64008A15080083120313DD00D91FBA2FBB2F73
:101F7400CB2F2D30FD005D0884007D088313800085
:101F84000130FD007D08DD07D809D909D80A0319F5
:101F9400D90A5908F9005808F8005B08FB005A08E8
:101FA400FA005D080A128A110D230A128A15080024
:101FB400EF2F7408FF00730884000A128A110320AB
:101FC4000A128A150A128A113C200A128A15013053
:101FD400F3070318F40A0030F40774088312031398
:101FE400FF00730884000A128A1103200A128A155A
:0C1FF400003A031DFE2FFF2FDB2F08001A
:04400E00D2E0FFFFFE
:00000001FF
