:020000040000FA
:060000000A128A110C280F
:10000800FE00030EF1000A08F2000A128A11912A72
:100018000A128A110F28F701F801F9018312031354
:10002800BE01BF0183010A128A115C2A83120313DD
:100038002E08B2002F08B3003008B4003108B5000C
:1000480006300310B20DB30DB40DB50DFF3E031D00
:1000580025283508A3003408A2003308A100320877
:10006800A0002E08B6002F08B7003008B8003108E5
:10007800B90006300310B60DB70DB80DB90DFF3E27
:10008800031D3E280030BA001230BB007A30BC0095
:100098000030BD003608BA023708031C370F552850
:1000A8005628BB023808031C380F5B285C28BC02A2
:1000B8003908031C390F61286228BD023D08A700D2
:1000C8003C08A6003B08A5003A08A4000A128A11B9
:1000D800F6200A128A11831203132108F50020085A
:1000E800F40001307502003003197402031C7D28E6
:1000F8007E28DA282E08B2002F08B3003008B40092
:100108003108B50004300310B20DB30DB40DB50DB0
:10011800FF3E031D87283508A3003408A2003308D2
:10012800A1003208A0002E08B6002F08B70030083A
:10013800B8003108B90004300310B60DB70DB80D7A
:10014800B90DFF3E031DA0280030BA001230BB00D5
:100158007A30BC000030BD003608BA023708031CEC
:10016800370FB728B828BB023808031C380FBD283A
:10017800BE28BC023908031C390FC328C428BD0295
:100188003D08A7003C08A6003B08A5003A08A400C3
:100198000A128A11F6200A128A11831203132108FF
:1001A800F5002008F40083160313181501307502B2
:1001B8000030031974020318E228E328F5287408AC
:1001C80083160313990018128312031398178316C2
:1001D80003138717071783120313181683160313BD
:1001E8009816080083120313A901A31FFC28FD28F1
:1001F8000A29A009A109A209A309A00A0319A10AA9
:100208000319A20A0319A30AA901A90AA71F0D29FC
:100218000E291D29A409A509A609A709A40A0319D5
:10022800A50A0319A60A0319A70A0130F3007308DF
:10023800A9060030AD000030AC000030AB00003043
:10024800AA00230822042104200403192C292D299B
:100258007A29A801A80A3D290130F3000310A00D4E
:10026800A10DA20DA30DF30B32290130F300730881
:10027800A807A31F4029412930290130F3000310A2
:10028800AA0DAB0DAC0DAD0DF30B432923082702C6
:10029800031D582922082602031D58292108250272
:1002A800031D582920082402031C5B295C296B299B
:1002B8002008A4022108031C210FA5022208031C00
:1002C800220FA6022308031C230FA7022A140130B9
:1002D8000310A30CA20CA10CA00CFF3E031D6C295B
:1002E8000130A802031D79297A294129290803190F
:1002F8007E297F298A29AA09AB09AC09AD09AA0A6E
:100308000319AB0A0319AC0A0319AD0A2D08A30097
:100318002C08A2002B08A1002A08A00008007708D2
:10032800031D97299829A5297903031D9C299D292F
:10033800A52983120313051CA229A329A529BF01F6
:10034800BF0A7708031DA929AA29062A7903031DCC
:10035800AE29AF29062A831203133F03031DB529CB
:10036800B629062A0518B929BA29062AF8018130BA
:100378007802031CC029C129C229012A81307802C8
:100388000318C729C829FC290830831203138600DB
:100398000630F4003030F300F30BD029F40BD029E9
:1003A800000004308312031386000630F400303056
:1003B800F300F30BDD29F40BDD2900000230831272
:1003C800031386000630F4003030F300F30BEA29FB
:1003D800F40BEA290000013083120313860006306B
:1003E800F4003030F300F30BF729F40BF729000081
:1003F8000130F3007308F807BB2983120313BF0108
:10040800F901F80108007703031D0B2A0C2A5B2A5F
:100418007908031D102A112A5B2AF8018130780215
:10042800031C172A182A192A582A81307802031817
:100438001E2A1F2A532A013083120313860006300E
:10044800F4003030F300F30B272AF40B272A0000BE
:1004580002308312031386000630F4003030F300B4
:10046800F30B342AF40B342A0000043083120313EC
:1004780086000630F4003030F300F30B412AF40B09
:10048800412A000008308312031386000630F40066
:100498003030F300F30B4E2AF40B4E2A00000130E3
:1004A800F3007308F807122AF901F90AF80108009D
:1004B8007030831603138F048F110F118F100F14D0
:1004C800003083120313B1000030B0002530AF00B4
:1004D8008030AE000A128A111A200A128A11831675
:1004E80003138C160B178B170130850086018701C3
:1004F8008801890183160317880189018312031370
:10050800860187018801890185010A128A11AB22B7
:100518000A128A110A128A110C28831203138C1EDC
:10052800962A972AA42A0A128A11C0220A128A1124
:100538008312031389000908F0007008F7008C1271
:1005480072088A00710E8300FE0E7E0E09000A12E0
:100558008A1107220A128A110D30F600FB30F500C5
:10056800F50BB42AF60BB42AB92A0A128A11932178
:100578000A128A11AB2A0800831203138C1EC52A9B
:08058800C62AC02A1A08080067
:04400E00D4E0FFFFFC
:00000001FF
